:020000040000FA
:1000000080312528161408007E1480310B1F232808
:100010002100111C12282000111C1228A7310727CB
:100020008031232821009119200091191D282100D9
:10003000111D23282000111D2328220033088A00C7
:1000400032080A0080317E10090080312728C33031
:100050008400993085004E308600013087001A30C8
:10006000A6312B268031DB3084009D308500A03006
:100070008600013087004930A6312B2680317A3046
:1000800084009C30850020308600023087002D30AF
:10009000A6312B268031E5308400A6308500C030A3
:1000A0008600023087001030A6312B268031FD01FA
:1000B000EA01EB01EC0120308400013085002E3094
:1000C000A631252680312300E901EA01EB01EC018C
:1000D000ED01EE014D308400023085001E30A63166
:1000E00025268031A0308400023085002030A631E2
:1000F0002526803120308400033085002930A63148
:1001000025267E10200080318528A631F5268031F5
:10011000F430A3000130A400A7311B278031210057
:100120008D1325008D1722008D179931DD21803127
:10013000883100208031210011140B178B178B1789
:100140000B1764302000A3000030A400A7311B2748
:1001500080311030A300F030A400A631AC268031ED
:100160005C3A031D0B2912302000A300F030A400DC
:10017000A631AC2680312100E60066082000EB00A5
:100180001330A300F030A400A631AC26803121004A
:10019000E60066082200BF0014302000A300F03003
:1001A000A400A631AC2680312100E6006608FD00DF
:1001B00015302000A300F030A400A631AC26803119
:1001C0002100E60066082000EA001630A300F030A7
:1001D000A400A631AC2680312100E600660822008A
:1001E000BB0011302000A300F030A400A631AC26E3
:1001F00080312100E60066082200BE003B08031D96
:1002000003293E0805293B08BE002100E6006608D8
:100210002000EC005F2911302000A900F030AA0076
:1002200092302200BE002000EC002100E6006608AB
:100230002000AB009A318A2280311230A900F030C0
:10024000AA00EB01AB019A318A2280311330A90058
:10025000F030AA0002302200BF002100E60066084C
:100260002000AB009A318A2280311430A900F0308E
:10027000AA00FD01AB019A318A2280311530A90014
:10028000F030AA00EA01AB019A318A22803116309F
:10029000A900F030AA002200BB012000AB019A3176
:1002A0008A2280311030A900F030AA00C530210028
:1002B000E60066082000AB009A318A228031933133
:1002C000F32380319031C520803190316F2080310F
:1002D000A631C8268031A6319F26803120302100EA
:1002E000C0000330C1004230C200A130C3009A31C7
:1002F000CC22803120302000B7000330B800983184
:10030000D32080312030A3000330A400A7311B2765
:100310008031A6319226803120006C082100E60051
:1003200066082200C90020006B082100E60066086C
:100330002000BA006C0891312E218031523021000A
:10034000E60066082000AC000230AD000030AE00D0
:100350006A309B313823803150302100E600660836
:100360002000AC000230AD000030AE006A309B319E
:10037000382380314E302100E60066082000AC00B2
:100380000230AD000030AE006A309B31382380313E
:1003900022003F088831362080312100ED01EE0136
:1003A0002200A301A401A5015F302000AF00A83006
:1003B000B00091319C218031E830A3000330A400CB
:1003C000A7311B2780318B31ED2380316C089231AE
:1003D000B522803122004803031DC92A22003F08AC
:1003E0002100E60066082200C90063302000AF004B
:1003F000A830B00091319C2180312200C80120300A
:100400002000A3000330A400A7311B278031533004
:10041000AF00A830B00091319C218031C830A300DA
:100420000030A400A7311B2780312200C8012330EF
:10043000860001308700413101302200A300C03F17
:100440002100E60025308600013087006608810023
:1004500022004808031D6C2A05302100E6006608CA
:100460002000A30022003F089A316A228031210037
:10047000E700E80167082000A900210068082000C3
:10048000AA000730AB000030AC009931F821803170
:10049000FF302100E900A030EA00200029082100F7
:1004A0006907EB0020002A0821006A3DEC006B0878
:1004B0002000AF0021006C082000B00091319C2189
:1004C00080318B31ED238031220049082100E60084
:1004D00066082200BF00282AC801B3302100E600C8
:1004E00066082000AC000230AD000030AE006A307B
:1004F0009B31382380311030A900F030AA005C30E5
:100500002100E60066082000AB009A318A22803183
:100510001330A900F030AA0005302100E60066087B
:100520002000A30022003F089A316A228031210076
:10053000E70067082000AB009A318A228031220050
:100540003F088831362080316C082100E6006608BB
:100550002200C90020006C089231B52280312200AF
:10056000A301A401A501C0302000AF000230B000FB
:1005700091319C21803152302100E6006608200034
:10058000AC000230AD000030AE006A309B31382341
:100590008031023022004806031D0F2E103020004B
:1005A000A900F030AA005C302100E60066082000B7
:1005B000AB009A318A2280316B08403E2100E60070
:1005C00066082200C9006F302000AF00A830B000DC
:1005D00091319C2180318430A3000330A400A731E5
:1005E0001B2780315330AF00A830B00091319C21DF
:1005F0008031C830A3000030A400A7311B27803110
:100600002330860001308700413101302200A300F1
:10061000C03F2100E60025308600013087006608D3
:1006200081002200C80122004808031D392B253013
:100630002100C0000230C1004E30C200A830C3000B
:1006400022004908C03E2000EB002100C400C50183
:10065000C41BC5039A31CC22803125302000AF0065
:100660000230B00091319C2180318B31ED238031FB
:10067000132BC80112302000A900F030AA006B082B
:100680002100E60066082000AB009A318A22803102
:100690002200A301A401A50125302100C0000230E1
:1006A000C1004E30C200A830C30020006B082100FA
:1006B000C400C501C41BC5039A31CC22803120007F
:1006C0006B082100E60066082000BA006C08913132
:1006D0002E2180312530AF000230B00091319C21B5
:1006E00080317830A3000530A400A7311B2780316A
:1006F0005330AF00A830B00091319C2180312030C0
:10070000A3000330A400A7311B2780316A08210011
:10071000E60066082200C9006B302000AF00A83058
:10072000B00091319C2180318430A3000330A400BB
:10073000A7311B2780315330AF00A830B000913172
:100740009C218031C830A3000030A400A7311B27B2
:100750008031233086000130870041310130220092
:10076000A300C03F2100E60025308600013087004D
:10077000660881002200C80122004808031D042CDD
:1007800009302100E60066082000A3002200490885
:100790009A316A2280312100E70067082000EA00D0
:1007A0002530AF000230B0006A082100E600E70102
:1007B00066082000A900210067082000AA00073071
:1007C000AB000030AC009931F82180313F3021007E
:1007D000E800A030E9002000290821006807200077
:1007E000B1002A082100693D2000B2009A31EF22B1
:1007F00080312530AF000230B00091319C21803132
:100800008B31ED238031BC2BC80115302000A900AD
:10081000F030AA006A082100E60066082000AB005C
:100820009A318A2280312200A301A401A501083057
:1008300020006A06031D2B2CB9302100E600660853
:100840002000AC000230AD000030AE006A309B31B9
:1008500038238031432C56302100E6006608200002
:10086000AC000230AD000030AE006A309B3138235E
:1008700080316A082100E60066082000B0002630BA
:100880009031002080312530AF000230B0006A087E
:100890002100E600E70166082000A90021006708A2
:1008A0002000AA000730AB000030AC009931F821DD
:1008B00080313F302100E800A030E9002000290805
:1008C000210068072000B1002A082100693D2000AE
:1008D000B2009A31EF2280312530AF000230B000F3
:1008E00091319C218031DC30A3000530A400A73178
:1008F0001B2780315330AF00A830B00091319C21CC
:1009000080312030A3000330A400A7311B278031A1
:1009100022003B082100E60066082200C90073306F
:100920002000AF00A830B00091319C21803184308C
:10093000A3000330A400A7311B2780315330AF0040
:10094000A830B00091319C218031C830A300003024
:10095000A400A7311B278031233086000130870097
:10096000413101302200A300C03F2100E6002530C4
:10097000860001308700660881002200C80122003D
:100980004808031DCF2C220049082100E600660814
:100990002200BB003B08933154238031BF2CC80197
:1009A00016302000A900F030AA0022003B082100E8
:1009B000E60066082000AB009A318A2280312200CE
:1009C000A301A401A50122003B080319F32C253043
:1009D0002000AF000230B0007F30B100A830B2007C
:1009E0009A31EF22803125302000AF000230B00074
:1009F00091319C2180312030A3000330A400A73125
:100A00001B2780315330AF00A830B00091319C21BA
:100A100080312030A3000330A400A7311B27803190
:100A20007D082100E60066082200C900773020001A
:100A3000AF00A830B00091319C2180318430A300F8
:100A40000330A400A7311B2780315330AF00A830FA
:100A5000B00091319C218031C830A3000030A40047
:100A6000A7311B27803123308600013087004131B8
:100A700001302200A300C03F2100E600253086009F
:100A800001308700660881002200C8012200480862
:100A9000031D862D2200490801392100E600660861
:100AA000FD0025302000AF000230B0007D0821009D
:100AB000E600E70166082000A90021006708200081
:100AC000AA000730AB000030AC009931F82180312A
:100AD0007E302100E800A030E90020002908210034
:100AE00068072000B1002A082100693D2000B200FB
:100AF0009A31EF2280312530AF000230B0009131C1
:100B00009C2180318B31ED238031462DC80114307A
:100B10002000A900F030AA007D082100E600660848
:100B20002000AB009A318A2280312200A301A40167
:100B3000A5017D03031D9E2D66309F2D643021008D
:100B4000E60066082000AC000230AD000030AE00C8
:100B500040309B31382380312530AF000230B00067
:100B60007D082100E600E70166082000A9002100B9
:100B700067082000AA000730AB000030AC009931B4
:100B8000F82180317E302100E800A030E90020000B
:100B90002908210068072000B1002A082100693DCA
:100BA0002000B2009A31EF2280312530AF000230B0
:100BB000B00091319C218031DC30A3000530A400CD
:100BC000A7311B2780315330AF00A830B0009131DE
:100BD0009C2180312030A3000330A400A7311B27C3
:100BE00080318B30AF00A830B00091319C21803132
:100BF000F430A3000130A400A7311B2780316C081A
:100C00002100E60066082200C90020006C0892312D
:100C1000B52280318B31ED2380312200C8012000C4
:100C20006C08220049060319802E49082100E600BD
:100C300066082000EC006C089231B52280316B0808
:100C40002100E60066082000BA006C0891312E21D0
:100C500080318B31ED238031C030AF000230B000E5
:100C600091319C218031802EB730E600660820004B
:100C7000AC000230AD000030AE006A309B3138234A
:100C800080316A082100E60066082000B0002630A6
:100C9000903100208031A12EB530E600660820009A
:100CA000AC000230AD000030AE006A309B3138231A
:100CB00080316A082100E60066082000B000263076
:100CC000903100208031A12E5430E60066082000CB
:100CD000AC000230AD000030AE006A309B313823EA
:100CE00080316A080319A12E6A08FF3E2100E60040
:100CF00066082000B0002630903100208031A12EFF
:100D000038302100E60066082000AC0040309D31FC
:100D10004C2580310F392100E700E8016808003ACE
:100D20000319932EA12E6708083A0319342E013AAD
:100D300003194C2E023A0319642E073A0319642E44
:100D4000A12E2D302100E60066082000AC004030C6
:100D50009D314C258031953167258031003A03194A
:100D6000B42E8B31ED23803150302100E60066082F
:100D70002000AC000230AD000030AE006A309B3184
:100D8000382380314E302100E60066082000AC0098
:100D90000230AD000030AE006A309B313823803124
:100DA0006C0822003E060319FD2E21006E08E700A4
:100DB0006D08E600ED0A0319EE0A0330670285307C
:100DC00003196602031CFD2E20006C082100E600BA
:100DD00066082200BE0011302000A900F030AA00F1
:100DE00022003E082100E60066082000AB009A3190
:100DF0008A2280312100ED01EE0120008D1B162F8B
:100E0000D9302100E60066082000AC000230AD00B9
:100E10000030AE0040309B31382380314930AF0084
:100E2000A830B00091319C218031282FD73021008B
:100E3000E60066082000AC000230AD000030AE00D5
:100E400040309B31382380316C089231B52280319B
:100E500009306C0203182F2F22008D13EA2922007B
:100E60008D17EA292000BB00C930860002308700B8
:100E700030308400003085000730AD0016001A00C5
:100E8000AD0B3E2F2C08BD002B08BC003C083D04D8
:100E9000031D4E2F3030BC000030BD003D08A400C3
:100EA0003C08A3009831FE2087312408C1002308A4
:100EB000C000220029082000BF00220028082000CE
:100EC000BE00BF1B742F3F08803AAD004108803A36
:100ED0002D02031D6D2F40083E020318742F2000C1
:100EE0003F08C1003E08C00020004108BF00400884
:100EF000BE00220027082000BA0022002608200099
:100F0000B90022002A1C962FA32F20302000A30016
:100F10000030A4003B08AD002D08A5009E316E26D0
:100F2000873101302000C0070030C13D200041085A
:100F3000803AAD003A08803A2D02031DA12F3908EE
:100F40004002031C852F2000B701B8013808803A01
:100F5000AD003F08803A2D02031DB02F3E08370236
:100F60000318CF2F20003C0884003D0885000008AE
:100F7000AD00AE012D08A3002E08A4003B08AF0071
:100F80002F08A5009E316E26873101302000BC0756
:100F90000030BD3D0130B7070030B83DA62F22001C
:100FA0002A18E42FF12F20302000A3000030A400E5
:100FB0003B08AD002D08A5009E316E26873101301B
:100FC0002000C0070030C13D20004108803AAD003C
:100FD0003A08803A2D02031DEF2F39084002031C06
:100FE000D32F20004108AC004008AB0008002400CB
:100FF00094010830950096014F3092009512080038
:101000001B14080022008C0180308D008E013830C6
:1010100021008C0070308D008E0123008E018D0127
:101020008C01F03024008D0038308C008E012500BA
:101030008C01D0308D008E01383026008C00F030CD
:101040008D00FF308E003F3027008C00F0308D0087
:10105000FF308E000E303C00A00018303D009E0096
:1010600019309C000C303C00A10008002000B300A7
:101070000A296230B0003008AC000230AD00003008
:10108000AE0040309B3138238831DD30B00030086D
:10109000AC000230AD000030AE0040309B31382350
:1010A00088315A30B0003008AC000230AD0000305A
:1010B000AE0040309B31382388315E30B0003008BC
:1010C000AC000230AD000030AE0040309B31382320
:1010D00088312A296230B0003008AC000230AD00FF
:1010E0000030AE0040309B31382388315C30B00096
:1010F0003008AC000230AD000030AE0040309B3113
:10110000382388315A30B0003008AC000230AD00CE
:101110000030AE0040309B31382388315E30B00063
:101120003008AC000230AD000030AE0040309B31E2
:10113000382388312A296030B0003008AC000230F2
:10114000AD000030AE0040309B313823883158303C
:10115000B0003008AC000230AD000030AE004030CE
:101160009B3138238831E130B0003008AC000230C8
:10117000AD000030AE0040309B31382388312A2941
:10118000E730B0003008AC000230AD000030AE00F7
:1011900040309B3138238831D130B0003008AC006A
:1011A0000230AD000030AE0040309B313823883132
:1011B000DF30B0003008AC000230AD000030AE00CF
:1011C00040309B31382388312A29E530B00030087F
:1011D000AC000230AD000030AE0040309B3138230F
:1011E0008831CF30B0003008AC000230AD000030A4
:1011F000AE0040309B3138238831E330B0003008F6
:10120000AC000230AD000030AE0040309B313823DE
:1012100088312A290530B0003008A30033089A31FC
:101220006A228831B100B2013208003A0319192943
:101230002A293108003A03193928013A03196A2882
:10124000033A03199B28013A0319C028073A0319E6
:10125000E5282A290530A3000030A400A7311B2768
:1012600088315030B0003008AC000230AD000030A2
:10127000AE006A309B31382388314E30B0003008E0
:10128000AC000230AD000030AE006A309B31382334
:1012900008002000C9003E08D2003F08D3004008E3
:1012A000D4004108D5004208D6004308D7004408BE
:1012B000D8004508D9005230860000308700473FEB
:1012C000C600C61F65290130662900302000C7000E
:1012D000C8014708D0004808D1005008510403193C
:1012E0008F29D209D309D409D509D609D709D80934
:1012F000D909D20A031D8F29D30A031D8F29D40AC5
:10130000031D8F29D50A031D8F29D60A031D8F2996
:10131000D70A031D8F29D80A031D8F29D90A220055
:10132000A91B9629FD30AA05FF30AB052908803A94
:101330002000C60080304602031DA1290130220092
:1013400028020318A92901302000CC000030CD006C
:10135000B129220029082000CD0022002808200001
:10136000CC00220027082000CF0022002608200001
:10137000CE0050085104031DC02922002A1DC52992
:10138000FF302000CE07FF30CF3D1F302000DA00B5
:101390000030DB002500BF01592A20005208530409
:1013A000540455045604570458045904031DF229E3
:1013B0004D08803AC60080304602031DE129013005
:1013C0004C020318F22920004F08803AC6008030F2
:1013D0004602031DED2901304E02031C652A22003E
:1013E000AA1C652AFF302000DA07FF30DB3D0A30F7
:1013F000A300A401A501A601A701A801A901AA01B2
:101400005208AB005308AC005408AD005508AE00BC
:101410005608AF005708B0005808B1005908B2008C
:1014200096312C2689312408B7002308B60099315B
:101430002D21893120003608303EC6005A08A03ED2
:1014400086000230870046088100FF30CC07FF305D
:10145000CD3DFF30CE07FF30CF3D0A30A300A401C1
:10146000A501A601A701A801A901AA015208AB0084
:101470005308AC005408AD005508AE005608AF0044
:101480005708B0005808B1005908B20097310A2730
:1014900089312308D2002408D3002508D400260867
:1014A000D5002708D6002808D7002908D8002A0820
:1014B000D90020005B08803AC60080304602031D38
:1014C000632A01305A020318CD2920005008510424
:1014D000031D6D2A22002A1D852AFF302000DA070D
:1014E000FF30DB3D50085104031D782A2B30792A48
:1014F0002D30CA000030CB004A08C6005A08A03E72
:101500008600023087004608810020005A08A03E6D
:10151000C6004608B3004F08B5004E08B40049089D
:101520009F3109273408BF003308BE00080020009F
:10153000CD002200A91BA02AFD30AA05FF30AB0573
:101540002908803A2000C50080304502031DAB2ADF
:101550000130220028020318B32A01302000D200F3
:101560000030D300BB2A220029082000D30022002B
:1015700028082000D200220027082000D5002200E1
:1015800026082000D40022002A1ECB2AFE3020008C
:10159000D407FF30D53D20003C08D6003D08D700D9
:1015A0003E08D8003F08D9004008DA004108DB00B7
:1015B0004208DC004308DD001F30DE000030DF00A1
:1015C0002500BF018C2BFF302000DE07FF30DF3D00
:1015D0000F305605E00000305705E1006108803A01
:1015E000C50080304502031DF72A0A306002031C43
:1015F000FD2A20006008573E002B20006008303E86
:10160000E0000030613DE1004408BF3EC500FF300E
:1016100003180030C600003046021A300319450294
:101620000318142B0130152B0030C700C8014708E0
:10163000CE004808CF004E084F0403194A2B203033
:101640006004C50000306104C60045089F3EC70025
:10165000FF30463DC800003048021A3003194702E7
:101660000318342B0130352B0030C900CA0149085A
:10167000D0004A08D1005008510403194A2B6108D0
:10168000AA006008A9009A31AB228A312A08E10039
:101690002908E0006008C5005E08A03E8600023010
:1016A000870045088100FF30D207FF30D33DFF306F
:1016B000D407FF30D53D5630860000308700403FCC
:1016C000C500413FC600423FC700433FC800443FFA
:1016D000C900453FCA00463FCB00473FCC0004301D
:1016E0002000CC36CB0CCA0CC90CC80CC70CC60CDD
:1016F000C50C890B702B20004C08DD004B08DC006A
:101700004A08DB004908DA004808D9004708D80031
:101710004608D7004508D60020005F08803AC5007B
:1017200080304502031D962B02305E02031CBD2B48
:10173000200056085704580459045A045B045C04FA
:101740005D04031DE32A5308803AC500803045023A
:10175000031DAC2B013052020318E32A2000550868
:10176000803AC50080304502031DB82B0130540279
:10177000031CBD2B2200AA18E32A22002A1EDB2B01
:10178000FF302000DE07FF30DF3D4408C5005E0863
:10179000A03E86000230870045088100FF30DE074A
:1017A000FF30DF3D3030C5005E08A03E86000230CD
:1017B00087004508810020005E08A03EC50045085E
:1017C000B3005508B5005408B4004D089F310927EF
:1017D0003408BD003308BC0008002000B701003009
:1017E0009C31D8248B3120302100C0000330C1004F
:1017F0003F30C200A830C3000530DA005A0820008C
:10180000A30022003F089A316A228B312100DB00BD
:10181000DC01DB35DC0DDB35DC0DDB35DC0DD730F9
:10182000DD00A030DE005B085D07C4005C085E3DA3
:10183000C5009A31CC228B3120302000B700033014
:10184000B8009831D3208B31B701B70A00309C31F2
:10185000D8248B31013020007D052000A900AA0189
:101860000730AB000030AC009931F8218B312330C8
:101870002100DA00A830DB002000290821005A07E7
:101880002500D90020002A0821005B3D2500DA0050
:1018900020006A082100DA00DB015A082000A900B4
:1018A00021005B082000AA000730AB000030AC002C
:1018B0009931F8218B3100302100DC00A030DD00AF
:1018C0002000290821005C072500D00020002A08FC
:1018D00021005D3D2500D10020302100C0000330F3
:1018E000C1003130C200A830C30025005A082100D1
:1018F000C500250059082100C40025005108210019
:10190000C700250050082100C6009A31CC228B3137
:1019100020302000B7000330B8009831D3208B313D
:1019200038302100DA005A082000AC0040309D31E8
:101930004C258B312100DB005B082500D2000230F2
:101940002100DA005A082000B70000309C31D8246A
:101950008B31250052080F392100DA00DB015A08CB
:101960002000A90021005B082000AA000730AB007E
:101970000030AC009931F8218B3100302100DC00BF
:101980009830DD002000290821005C072500D900DF
:1019900020002A0821005D3D2500DA0020302100CA
:1019A000C0000330C1000030C200A830C3002000D6
:1019B0006C082100DA00DB015A08C4005B08C5008E
:1019C00020006B082100C600C701C61BC703250005
:1019D0005A082100C900250059082100C8009A3181
:1019E000CC228B3120302000B7000330B800983172
:1019F000D3208B3110302100DA005A082000AC00CF
:101A00006A309D314C258B312100DB005B082500BD
:101A1000D30013302100DA005A082000AC006A30ED
:101A20009D314C258B312100DB005B082500D50062
:101A300024302100DA005A082000AC006A309D31C1
:101A40004C258B312100DB005B082500D6002530BA
:101A50002100DA005A082000AC006A309D314C2584
:101A60008B312100DB005B082500D70012302100FC
:101A7000DA005A082000AC006A309D314C258B31C9
:101A80002100DB005B082500D40011302100DA00C2
:101A90005A082000AC006A309D314C258B31210062
:101AA000DB005B082500D80003302100DA005A086B
:101AB0002000B70000309C31D8248B312030210029
:101AC000C0000330C1008C30C200A030C30025002C
:101AD00053082100DA00DB015A08C4005B08C50086
:101AE000250054082100DC00DD015C08C6005D080B
:101AF000C700250055082100DE00DF015E08C80090
:101B00005F08C900250056082100E000E1016008D7
:101B1000CA006108CB00250057082100E200E3015C
:101B20006208CC006308CD00250058082100E400BD
:101B3000E5016408CE006508CF009A31CC228B31D4
:101B400020302000B7000330B8009831D3200800BF
:101B5000B7002000620886008701403FE400413F53
:101B6000E50064088400650885001200253A031D1D
:101B7000DB2F62088600870101308107413103189D
:101B8000810A2200A601A701AA01AB01FF30A8002B
:101B9000FF30A9002100B301B401EB2D22002A146B
:101BA0002000620886008701013081074131031857
:101BB000810AEB2D2200AA14D02D22002A15D02D47
:101BC0002200AA15D02D22002A16D02D0130210086
:101BD000B3000030B400210033083404031D162E76
:101BE0002000620886008701403FE400413FE50095
:101BF00064088400650885000008E600E7016708BE
:101C0000003A0319042EE62D6608203A0319E02D48
:101C1000033A0319E32D083A0319DD2D063A031997
:101C2000CE2D1D3A0319DA2DE62DEB2D22002A1CAC
:101C30001D2EFD30AA05FF30AB052000620886008E
:101C40008701403FE400413FE500640884006508E7
:101C5000850012002A3A031D4B2E62088600870178
:101C60000130810741310318810A6308860087012A
:101C700001088400850102308107003F2200A60090
:101C8000013FA700A71F902E2A14A609A709A60A9C
:101C90000319A70A902E620886008701403FAF0013
:101CA000413FB000923116228D3130082200A7004A
:101CB00020002F082200A600662E20006208860061
:101CC00087010130810741310318810A2000620831
:101CD00086008701403FE400413FE500640884003E
:101CE000650885000008D03EE600FF30031800308C
:101CF000E700003067020A30031966020318822EDB
:101D00000130832E0030E800E90168082100B500A9
:101D1000200069082100B60035083604031D5D2E39
:101D20002000620886008701403FE400413FE50053
:101D300064088400650885001200643A0319AF2E18
:101D4000620886008701403FE400413FE5006408E7
:101D50008400650885001200693A031DFB2E6208A5
:101D6000860087010130810741310318810A630829
:101D70008600870101088400850102308107003F49
:101D8000E400013FE50064082100A0002000650890
:101D90002100A100890D893B8909A200A300A400AC
:101DA000A500A600A70020082000BE0021002108F1
:101DB0002000BF00210022082000C00021002308CD
:101DC0002000C100210024082000C20021002508B5
:101DD0002000C300210026082000C400210027089D
:101DE0002000C50021003708893149213F08E30060
:101DF0003E08E2000800620886008701403FE400D8
:101E0000413FE50064088400650885001200733ACC
:101E1000031D2F2F620886008701013081074131A1
:101E20000318810A63088600870101088400850180
:101E300002308107003F2100B000013FB1003108AE
:101E40002000AC00210030082000AB002100370842
:101E5000873132272C08E3002B08E20008006208D3
:101E600086008701403FE400413FE50064088400AC
:101E7000650885001200783A03194D2F6208860024
:101E80008701403FE400413FE500640884006508A5
:101E900085001200583A031DA72F620886008701AB
:101EA000403FE400413FE500640884006508850088
:101EB0000008E60066082100B200200062088600E3
:101EC00087010130810741310318810A63088600C8
:101ED000870101088400850102308107003F21004D
:101EE000A800013FA900AA01AB01AC01AD01AE0100
:101EF000AF0128082000BC00210029082000BD00F7
:101F000021002A082000BE0021002B082000BF006D
:101F100021002C082000C00021002D082000C10055
:101F200021002E082000C20021002F082000C3003D
:101F3000210032082000E4006408C40021003708B2
:101F40008A3197223D08E3003C08E200080062085D
:101F500086008701403FE400413FE50064088400BB
:101F6000650885001200253A031DD02F62088600FF
:101F700087010130810741310318810A2530A30010
:101F80000030A400210037082000E4006408A50008
:101F90009E316E2601302000E2000030E300080090
:101FA0006208860087010130810741310318810AE8
:101FB000E201E3010800620886008701403FE40077
:101FC000413FE50064088400650885000008E600DC
:101FD000E7016608A3006708A40021003708200075
:101FE000E8006808A5009E316E268D312000620849
:101FF000860087010130810741310318810ACA2F09
:10200000B2003208B10031082200CA0020003008B6
:10201000B10031082200CB004A302000B100310865
:10202000AC000230AD000030AE006A309B31382386
:1020300008002000B2003208F0390838B00030083B
:10204000B50035080438B0003008B3003208B000DD
:102050000330B035FF3E031D29283035F0390838EC
:10206000B1003108B60036080438B0003008B400BA
:102070003330B0003008AC000130AD000030AE00AD
:1020800025309B3113239031000035302000B00003
:102090003008AC000130AD000030AE0025309B317F
:1020A00013239031000034302000B0003008AC0021
:1020B0000130AD000030AE0025309B31132390314C
:1020C000000036302000B0003008AC000130AD0018
:1020D0000030AE0025309B31132300000800823011
:1020E0002000B700DD30890B7328B70B732800324E
:1020F00030309B31D223903107302000B7007D3043
:10210000890B8028B70B802830309B31D223903147
:102110004230890B8928003230309B31D2239031F4
:102120002130890B9128000020309B31D22390313F
:102130002130890B992800002830903119209031E6
:102140002130890BA12800000C30903119209031EA
:102150002130890BA92800000130903119209031DD
:1021600007302000B7007D30890BB428B70BB428A6
:10217000063090311920903107302000B7007D30B3
:10218000890BC028B70BC0280800BD30B00030084C
:10219000AC000230AD000030AE006A309B31382315
:1021A00090310530A3000030A400A7311B279031E7
:1021B000ED30B0003008AC000230AD000030AE00B1
:1021C0006A309B3138239031BB30B0003008AC000E
:1021D0000230AD000030AE006A309B3138239031C0
:1021E0005430B0003008AC000230AD000030AE001A
:1021F0006A309B31382390315630B0003008AC0043
:102200000230AD000030AE006A309B31382390318F
:10221000B130B0003008AC000230AD000030AE008C
:102220006A309B31382390315030B0003008AC0018
:102230000230AD000030AE006A309B31382390315F
:102240004E30B0003008AC000230AD000030AE00BF
:102250006A309B31382322008D170800BC00BA1F5A
:102260006B290530BB003B082200CC0020003C0855
:10227000BB003B082200CD004C302000BB003B08D7
:10228000AC000230AD000030AE006A309B31382324
:1022900091310630BB003B082200CC0020003A08F8
:1022A000B600B701B61BB70399312D21913120003B
:1022B00036083C02BB003B082200CD004C30200019
:1022C000BB003B08AC000230AD000030AE006A300D
:1022D0009B31382308000530BB003B082200CC00AE
:1022E00020003A083C02BB003B082200CD004C30E5
:1022F0002000BB003B08AC000230AD000030AE0057
:102300006A309B31382391310630BB003B082200F4
:10231000CC0020003C08BB003B082200CD004C3024
:102320002000BB003B08AC000230AD000030AE0026
:102330006A309B31382308003008B3002F08B20000
:1023400032088400330885000008B10031082400F9
:10235000A50001302000B2070030B33D32088400F0
:102360003308850012002E3A031DC1297F30B100C9
:1023700031082300A00001302000B2070030B33D37
:10238000C629FF30B10031082300A0002000320828
:102390008400330885000008B10026308600023032
:1023A0008700310881000130B2070030B33D3208A8
:1023B00084003308850012002E3A031DEA29A1305B
:1023C0008600013087007F3081000130B207003085
:1023D000B33DF029A130860001308700FF30810035
:1023E00032088400330885000008B10027308600D9
:1023F00002308700310881000130B2070030B33D60
:10240000320884003308850012002E3A031D0F2A7B
:10241000A2308600013087007F3081000800A230A2
:10242000860001308700FF3081000800BC01BD013B
:10243000B501B601BB01BB0A2F0884003008850036
:102440001200203A0319362A2F088400300885002C
:102450000008F73EB100FF3003180030B200003032
:1024600032020530031931020318BB013B08B100E9
:10247000B2013108B7003208B80037083804031930
:102480004B2A0130AF070030B03D1A2A0130B500A9
:102490000030B6007D2A2F0884003008850000082F
:1024A000B100B2013208003A0319572A812A3108D3
:1024B0002B3A03197D2A063A0319462A812A2F0846
:1024C0008400300885000008B1003D08AA003C08DF
:1024D000A9000A30AB000030AC009931F8219231EC
:1024E0002A08B30031082902B200031CB3033208E2
:1024F000303EBC000030333DBD000130AF0700303E
:10250000B03D2F088400300885000008D03EB1009F
:10251000FF3003180030B200003032020A300319D5
:1025200031020318952A0130962A0030B300B40115
:102530003308B9003408BA0039083A04031D5F2A89
:1025400035083604031DB02A3C09B1003D09B2002C
:10255000B10A0319B20A3108AF003208B00008000E
:102560003D08B0003C08AF0008002100DB00093046
:102570005B020318C82AC0302000AF000230B00050
:102580006730B100A830B2009A31EF2292314C2B63
:10259000BB305B02031C142B02302000A300003070
:1025A000A40021005B08313E2000A500FF30031885
:1025B0000030A6009F315A27923123082100DA000B
:1025C0005A082200C000C0302100C0000230C10003
:1025D0008330C200A830C300220040082100C4009C
:1025E000C501C41BC5039A31CC229231CE305B06A3
:1025F000031DFF2A2D30DA005A082500C0002100F3
:102600005B1C0B2BC0302000BB000230BC005730DD
:10261000BD00A830482BC0302000BB000230BC00F9
:102620005B30BD00A830482B02302000A3000030F2
:10263000A40021005B08313E2000A500FF300318F4
:102640000030A6009F315A27923123082100DA007A
:102650005A082200C000C0302100C0000230C10072
:102660008730C200A830C300220040082100C40007
:10267000C501C41BC5039A31CC2292315B184C2B87
:10268000C0302000BB000230BC004C30BD00A83080
:10269000BE00A7312F279231C0302000AF0002309A
:1026A000B00091319C2108002100DB0009305B0261
:1026B0000318672BC0302000AF000230B0007B3021
:1026C000B100A830B2009A31EF229331EB2BBB302E
:1026D0005B02031CB32B02302000A3000030A400D7
:1026E00021005B08313E2000A500FF3003180030B8
:1026F000A6009F315A27933123082100DA005A0897
:102700002200C000C0302100C0000230C100833070
:10271000C200A830C300220040082100C400C50147
:10272000C41BC5039A31CC229331CE305B06031D06
:102730009E2B2D30DA005A082500C00021005B1CBA
:10274000AA2BC0302000BB000230BC005730BD00B7
:10275000A830E72BC0302000BB000230BC005B304B
:10276000BD00A830E72B02302000A3000030A400F9
:1027700021005B08313E2000A500FF300318003027
:10278000A6009F315A27933123082100DA005A0806
:102790002200C000C0302100C0000230C1008730DC
:1027A000C200A830C300220040082100C400C501B7
:1027B000C41BC5039A31CC2293315B18EB2BC0307C
:1027C0002000BB000230BC004C30BD00A830BE0071
:1027D000A7312F279331C0302000AF000230B00066
:1027E00091319C210800C930B0003008AC000230A3
:1027F000AD000030AE0040309B3138239331C33000
:10280000B0003008AC000230AD000030AE00403007
:102810009B3138239331C130B0003008AC00023016
:10282000AD000030AE0040309B3138239331C730CB
:10283000B0003008AC000230AD000030AE004030D7
:102840009B3138239331C530B0003008AC000230E2
:10285000AD000030AE0040309B3138239331BF30A3
:10286000B0003008AC000230AD000030AE004030A7
:102870009B31382393317D03031D402C6630412C5E
:102880006430B0003008AC000230AD000030AE0063
:1028900040309B3138239331CB30B0003008AC004E
:1028A0000230AD000030AE0040309B313823933110
:1028B000CD30B0003008AC000230AD000030AE00CA
:1028C00040309B3138239331D530B0003008AC0014
:1028D0000230AD000030AE0040309B3138239331E0
:1028E000D330B0003008AC000230AD000030AE0094
:1028F00040309B31382393316030B0003008AC0059
:102900000230AD000030AE0040309B3138239331AF
:102910005C30B0003008AC000230AD000030AE00DA
:1029200040309B31382393315830B0003008AC0030
:102930000230AD000030AE0040309B31382393317F
:10294000DB30B0003008AC000230AD000030AE002B
:1029500040309B3138230800E32C0C11C03020029A
:102960000318B42C0C14B52C0C1024002508983135
:10297000E820943123002005CC2C0C10C03021021B
:102980000318C42C8C14C52C8C10240026089831F4
:10299000E82094312300210520008E00F72C8C10B4
:1029A000C03020020318D62C0C15D72C0C11240093
:1029B00027089831E82094312300220520008E005A
:1029C0002200C301F72C4308C30AF500F60176087C
:1029D000003A0319EC2CE02C7508003A0319AD2CD1
:1029E000013A0319BD2C033A0319CF2CE02C9E3178
:1029F00024269431F5007508C1004108803A7F3ED5
:102A0000031C172DF8304902031C122D49084107F9
:102A1000F500EE3075020318222DFF30F500750821
:102A2000C900222D4108F5007508C907222D08307C
:102A300049020318122D49084107F50012307502AA
:102A40000318C901230803192A2D2308F500750866
:102A5000A0072B2DA00124080319332D2408F5000D
:102A60007508A107342DA101250803193C2D25085F
:102A7000F5007508A2073D2DA20120008C1D4D2DEB
:102A80002200420803194A2D4208F5007508C800C3
:102A9000C2010800AC01AD01080001302200AC0702
:102AA0000030AD3D00302D020B3003192C02031C09
:102AB0000800C201C20A01302D02F53003192C02B0
:102AC000031C08000230F5007508C2000800103031
:102AD000B3003308AC006A309D314C259531B40009
:102AE00034082200BA0013302000B3003308AC00D1
:102AF0006A309D314C259531B40034082200B8006D
:102B000024302000B3003308AC006A309D314C25DE
:102B10009531B40034082200B70025302000B300FE
:102B20003308AC006A309D314C259531B40034082F
:102B30002200B60012302000B3003308AC006A3027
:102B40009D314C259531B40034082200B900113074
:102B50002000B3003308AC006A309D314C2595311C
:102B6000B40034082200B50035082000B300B401D9
:102B7000220036082000B500B601220037082000E8
:102B8000B700B801220038082000B900BA012200BD
:102B90003A0839072000BB00BC01BC0D39083B07CF
:102BA000BD003A083C3DBE0037083D07BF0038086D
:102BB0003E3DC00035083F07C1003608403DC20019
:102BC00033084107C3003408423DC40023006C08A9
:102BD00020004406031DF02D23006B08200043064F
:102BE000031DF42D00300800220035082000B3003A
:102BF000B401220036082000B500B60122003708D3
:102C00002000B700B801220038082000B900BA013E
:102C100022003A0839072000BB00BC01BC0D39086E
:102C20003B07BD003A083C3DBE0037083D07BF00EA
:102C300038083E3DC00035083F07C1003608403D1A
:102C4000C200330841072300EB0020003408423D56
:102C50002300EC0001300800B5012B308600003065
:102C60008700473FB300B31F572E2000AB09AC09C4
:102C7000AD09AE09AF09B009B109B209AB0A031D2C
:102C8000542EAC0A031D542EAD0A031D542EAE0A59
:102C9000031D542EAF0A031D542EB00A031D542EDB
:102CA000B10A031D542EB20A2000B501B50A233023
:102CB000860000308700473F2000B300B31F7F2EFF
:102CC0002000A309A409A509A609A709A809A9091B
:102CD000AA09A30A031D7F2EA40A031D7F2EA50A9D
:102CE000031D7F2EA60A031D7F2EA70A031D7F2E1C
:102CF000A80A031D7F2EA90A031D7F2EAA0A200001
:102D000023082404250426042704280429042A046B
:102D10000319D72EB401B40AAA1B9B2EA335A40D08
:102D2000A50DA60DA70DA80DA90DAA0D0130B30084
:102D30003308B4078C2E2A083202031DB92E290845
:102D40003102031DB92E28083002031DB92E2708B1
:102D50002F02031DB92E26082E02031DB92E2508A9
:102D60002D02031DB92E24082C02031DB92E2308A1
:102D70002B02031CCB2E2308AB022408AC3B2508F6
:102D8000AD3B2608AE3B2708AF3B2808B03B2908DF
:102D9000B13B2A08B23BAA36A90CA80CA70CA60C7A
:102DA000A50CA40CA30C0130B402031D9B2E350806
:102DB0000319F82EAB09AC09AD09AE09AF09B0098A
:102DC000B109B209AB0A031DF82EAC0A031DF82E97
:102DD000AD0A031DF82EAE0A031DF82EAF0A031D1F
:102DE000F82EB00A031DF82EB10A031DF82EB20A00
:102DF00020002B08A3002C08A4002D08A5002E08F5
:102E0000A6002F08A7003008A8003108A900320842
:102E1000AA000800B5012330860000308700473F34
:102E2000B300B31F352F2000A309A409A509A609E3
:102E3000A709A809A909AA09A30A031D322FA40AF0
:102E4000031D322FA50A031D322FA60A031D322FA0
:102E5000A70A031D322FA80A031D322FA90A031D3A
:102E6000322FAA0A2000B501B50A2B3086000030A7
:102E70008700473F2000B300B31F622F2000AB093B
:102E8000AC09AD09AE09AF09B009B109B209AB0A85
:102E9000031D5D2FAC0A031D5D2FAD0A031D5D2FC1
:102EA000AE0A031D5D2FAF0A031D5D2FB00A031D7F
:102EB0005D2FB10A031D5D2FB20A01302000B3005F
:102EC0003308B50636308600003087000830200011
:102ED000B30000301E00B30B6A2F2308240425041E
:102EE00026042704280429042A040319CD2FB40139
:102EF000B40AAA1B882FA335A40DA50DA60DA70DF6
:102F0000A80DA90DAA0D0130B3003308B407792F1D
:102F1000B635B70DB80DB90DBA0DBB0DBC0DBD0D55
:102F20002A083202031DAE2F29083102031DAE2FDD
:102F300028083002031DAE2F27082F02031DAE2FD5
:102F400026082E02031DAE2F25082D02031DAE2FCD
:102F500024082C02031DAE2F23082B02031CC12FB3
:102F60002308AB022408AC3B2508AD3B2608AE3B4A
:102F70002708AF3B2808B03B2908B13B2A08B23BE1
:102F80003614AA36A90CA80CA70CA60CA50CA40CE8
:102F9000A30C0130B402031D882F35080319EE2F4E
:102FA000B609B709B809B909BA09BB09BC09BD090D
:102FB000B60A031DEE2FB70A031DEE2FB80A031D34
:102FC000EE2FB90A031DEE2FBA0A031DEE2FBB0A1E
:102FD000031DEE2FBC0A031DEE2FBD0A200036088C
:102FE000A3003708A4003808A5003908A6003A084D
:102FF000A7003B08A8003C08A9003D08AA0008005B
:1030000055344E344C344B340034003400342034C6
:10301000203438346B3400340034003420343134FC
:1030200031346B34003400340034203431343234E1
:103030006B340034003400342034313436346B3493
:103040000034003400342034323432346B340034F1
:10305000003400342034323434346B3400340034DF
:1030600000342034333432346B34003400340034D0
:10307000343434342E3431346B340034003420345E
:10308000343438346B340034003400342034363473
:1030900034346B34003400340034383438342E3453
:1030A00032346B34003400342034393436346B34E9
:1030B0000034003400343134323438346B3400346A
:1030C000003400343134373436346B340034003457
:1030D00000343134393432346B3400340034003449
:1030E000FF34F934FF34FF34FF349C34FF34FF34B1
:1030F000FF34FF34FF34FF34FF34BF347F34CF3428
:10310000C034F934A434B034993492348234F8346D
:1031100080349034F634B634FF34B734FF34FF349F
:10312000A03488348334C634A13486348E34C23417
:103130008934CF34E1348734C734C834AB34C03435
:103140008C34983488349234CE34C134C1348134D0
:1031500089349134E434C634FF34F034BC34F73469
:10316000DE34A0348334A734A13486348E349034D2
:103170008B34FB34F1348734C734C834AB34A334D4
:103180008C349834AF3492348734E334E33481346C
:1031900089349134E434FF34FF34FF34FE3400309A
:1031A0009931A921080037088600380887000108EE
:1031B00003190800370886003808870001089F3186
:1031C000AB27983101302000B7070030B83DD32835
:1031D000F20020307202031CF8282030F20272083C
:1031E000703E840098300318013E85000008F928DD
:1031F000FF30F0007008F100710808002408A700F3
:103200002308A6002308840024088500120003195F
:103210000E290130A3070030A43D0229260823020D
:10322000A3002708243BA400080020002308D03E68
:10323000A500FF30243DA600003026020A30031905
:10324000250203182529013026290030A700A801EE
:103250002708A3002808A40008003708803AB8000F
:1032600080303802031D3629013036020318080069
:1032700020003609B8003709B900B80A0319B90A9D
:103280003808B6003908B700080020002308BF3E00
:10329000A500FF30243DA600003026021A30031995
:1032A000250203185529013056290030A700A8012E
:1032B0002708A3002808A4000800200023089F3E38
:1032C000A500FF30243DA600003026021A30031965
:1032D000250203186D2901306E290030A700A801CE
:1032E0002708A3002808A40008007908023E8600E9
:1032F00087010108F0000030F1007908860087019D
:10330000403FF200413FF300A63162269931003080
:10331000F500F600F701A6316E26023008007908A4
:10332000023E860087010108F0000030F1007908B4
:1033300086008701403FF200413FF300A63162263C
:1033400099310030F500F600F701A6316E26023003
:103350000800A400A501A50A2400EA18C029EA145F
:103360002000A50124080319B9292400E801E80A6E
:10337000BE290230A30023082400E8008031022087
:10338000200025080800213408342134883404340E
:1033900005340334843401347234603422346034AC
:1033A0001134343400346C3411346B3422346B34C3
:1033B00011346F3400346F34083420009C01BD3068
:1033C0009A00DC30990011101A082200B100200088
:1033D00019082200B00021001114AC302000A30015
:1033E0001430A400A6314826013020009B000800BC
:1033F000AD01AE01291C002A2B08AD072C08AE3DFB
:103400000130AB35AC0D890B012A0130AA36A90C6D
:10341000890B062A29082A04031DFA292E08AA0066
:103420002D08A9000800A401A40A2400EA182C2AE7
:103430006A11FF302000A30023082400E300A53117
:10344000D7259A31A531DD259A31A531DA256908CC
:103450002000A3002308A400200024080800200066
:10346000A701A70A2030230624040319442A2308AD
:10347000F73EA500FF30243DA600003026020530AF
:10348000031925020318A7012708A500A60125088E
:10349000A3002608A4000800203020002304A50073
:1034A00000302404A60025089F3EA700FF30263DDB
:1034B000A800003028021A30031927020318622AD4
:1034C0000130632A0030A900AA012908A3002A08B4
:1034D000A40008002000A6000830A4002408A700CB
:1034E000A8012608A4000730A436890B742A2835C1
:1034F0002404A5002508A8000310A60D230828020F
:10350000031C842A2308A8020130A702031D712A84
:103510002808080000308B1B0130AC002A0831005D
:103520009200200029083100910020002B08310072
:103530009300151715158B1355309600AA30960079
:1035400095149518A12A151120002C0C031C8B131F
:1035500003188B17080029089F3EAB00FF302A3D57
:10356000AC0000302C021A3003192B020318BA2ABF
:103570000130BB2A0030AD00AE012D08AF002E088F
:10358000B0002F083004031908005F302905A90096
:1035900000302A05AA000800C430D0005008D3002B
:1035A0004108D5004008D400D601D701D801D9017F
:1035B0004308B9004208B800D330D0005008BA0020
:1035C000D4309C31A7240230D43E86008701403F8E
:1035D00040078400413F413D8500800108003208DA
:1035E000B8003108B7003008BA002F08B9003A080F
:1035F000B4003908B300B90A0319BA0A33088600BF
:10360000340887003808B6003708B500B70A031930
:10361000B80A35088400360885000008C03F8908CC
:1036200003190800F72AAF002F089D3193259B311D
:10363000003A0319142B2C08A3000030A4002E0814
:10364000A6002D08A500A731EB279B3100302000F4
:10365000A800A900AA01A6317A269B319831CF2073
:103660009B319A3113229B31013A031D0800312B03
:10367000AF002F089D3193259B31003A0319392B58
:103680002C08A3000130A4002E08A6002D08A500D8
:10369000A731EB279B3100302000A800A900AA0128
:1036A000A6317A269B319831CF209B319A31132253
:1036B0009B31013A031D0800562BB200B001B10145
:1036C00030083207AC002C08860002308700010861
:1036D000AD002D08AF002F08031908002F08AC001B
:1036E000AD012C08A3002D08A4002B08AE002E0865
:1036F000A5009E316E269B3101302000B0070030BE
:10370000B13D602BF4007008710403199A2B7435D5
:103710004D3E8600023087007008C03F7108C13FEF
:103720007208F3007408593E86000230870073085F
:103730008100080074354D3E860002308700BF309E
:10374000C03F2530C13F7408593E860002308700D3
:1037500081010800A700230824040319C22B273580
:103760004D3E8600023087002308C03F2408C13F39
:103770002508A6002708593E860002308700260843
:103780008100080027354D3E860002308700BF309B
:10379000C03F2530C13F2708593E860002308700D0
:1037A000810108002000B1003108F0390838B0006C
:1037B0003008B30033080438B0003008B2003230AB
:1037C000B0003008AC000130AD000030AE00253054
:1037D0009B3113239B31000033302000B0003008B0
:1037E000AC000130AD000030AE0025309B3113231A
:1037F00000000800A531D1259B3124006A1C0C2C47
:10380000A63119269B31003A03190C2C0F302000E9
:10381000A00020082400E80068082000A000A10102
:10382000A035A10D223020078400A130213D850064
:10383000013F8A00003F0A009C312000A2002208BC
:103840002400E800080024006A100230FA007A0818
:10385000E900302CA531F7250800A531FB2508002B
:103860005B08FA007A08F90004304D3E8600023009
:103870008700413F8A00403F0A009C31FB00FC0169
:103880007C08003A0319452C2D2C7B08023A0319B9
:103890002A2C013A03192A2C2D2C08002400EA15A1
:1038A0005B2CA531F7250800A531CE250330080093
:1038B000A531FB2508005908FA007A08F9004E08DE
:1038C0008A004D080A009C31FB00FC017C08003A8C
:1038D00003196B2C582C7B08013A0319582C033A16
:1038E0000319512C013A0319512C073A0319542C8E
:1038F000582C0800DD345C346034E734E5345F3440
:103900005F345F3400340434553402346634023496
:10391000623426344734263446342634453426343B
:103920004434263443342634423426344134263455
:1039300040340934803431341A3449340034483442
:1039400040344734CB344634CB344734D734BD00CD
:103950003908BF003808BE002300E901EA01210050
:103960003E0884003F08850012000319CF2CBE30AA
:10397000BB003B082000E20021003A08BC003C08E4
:103980002000E30021003D088D31A8259C3162080C
:103990002300E907200063082300EA3DAF2C230041
:1039A0006A082100B900230069082100B800080056
:1039B000BB00E82C3B08E42C3B08403EE42C3B08D1
:1039C000143EE42C3B08543EB8003808BA00FE2CE4
:1039D0003708B800B9013908003A0319F02CFE2C59
:1039E0003808003A0319DA2C013A0319DC2C033A9F
:1039F0000319DF2C013A0319E22CFE2C8030B800A9
:103A00003808BA073A08903119209C310330890BE5
:103A1000072D00000800A531CB259D31FA00640870
:103A20008600650887007A0881000130E4070030CD
:103A3000E53D0130E6020030E73B66086704031904
:103A4000252DA531E72505300800EA152D2DA631D5
:103A500007260800A631032608005908FA007A084C
:103A6000F9004E088A004D080A009D31FB00FC0158
:103A70007C08003A03193D2D2A2D7B08013A0319D1
:103A80002A2D033A0319272D013A0319272D073A46
:103A900003192A2D2A2D0800AE002A30AD002D086A
:103AA000B2000230B0000030B1002E089D319325E5
:103AB0009D31003A0319552D6D30A8002730A9001B
:103AC0003230AD002D08AA00A63186269D312C305B
:103AD000A3000030A4000130A5000030A600A731EB
:103AE000EB279D3100302000A800A900AA01A631D3
:103AF0007A269D319831CF209D319A3113229D3104
:103B0000AD002D08AF002F0303197D2D2F080319D9
:103B1000912DFF30B007FF30B13D30083104031D57
:103B2000552D32080800A600A701A70A24006A192B
:103B3000D82D20002608A50025082400E300EA105F
:103B40006A156A100E302000A50025082400E80040
:103B5000F430E1000130E200EA15BF30CD0025303D
:103B6000CE00D901BF30CF002530D000DA01BF3000
:103B7000D1002530D200DB01BF30D3002530D40086
:103B8000DC01C130D5002530D600DD01D430200065
:103B9000A3002530A400A63150269D31A531D7259C
:103BA0009D31A631BA269D31A531E0252000A7011F
:103BB000200027080800FF34FF34FF344634D73490
:103BC0003734073437340634373403343734013468
:103BD000373400346C34553411341F340434A53474
:103BE00003344434033404340134F23409340134EA
:103BF00000348034313405342734DB3426346034E7
:103C00002B34FE342E34083420340134313405345E
:103C10004934083460345534603444344734D13442
:103C20004634D1344034C0344034F334373405346E
:103C3000343401346C3433346C3422346C34003416
:103C40006B3455346B343334003020008C1A01301F
:103C5000F4007408F000F101F01BF10322004508A4
:103C60007006710403195F2E7408031D5F2E74081B
:103C7000F0007008C50020000C1A422EFF30F20040
:103C8000FF30452E0130F2000030F3007208F000E2
:103C90007008F4000530220044020318512E03106E
:103CA000F40D0C3044020318572E0310F40D143099
:103CB000440203185D2E0310F40DC4016C2E740829
:103CC000F0007008C500F4017F30440203186C2E28
:103CD0000130F0007008C407740808002508031DAF
:103CE0002508031D772E2308A531BE2508002508C9
:103CF000043E860087011600010403199B2E250847
:103D0000043E86008701403FA600413FA7002508EA
:103D1000023E86008701403FA800413FA9002908D4
:103D2000803AAA002708803A2A02031D992E260805
:103D300028020318080020002508023E860087019B
:103D4000250884008501403F0007A6000131413F5E
:103D5000003DA70026088600270887002308810069
:103D60002508023E86008701013081074131031892
:103D7000810A0800A63119269E31003A031DCA2E79
:103D8000ED2EA531EF250800A531F3250800A5315A
:103D9000FB2508005C08FA007A08F90006304D3E61
:103DA000860002308700413F8A00403F0A009E3172
:103DB000FB00FC017C08003A0319DF2EC72E7B08AC
:103DC000013A0319C72E033A0319C12E013A031908
:103DD000C42E073A0319C72EC72E6A106508FB00C8
:103DE0006408FA00E40A0319E50A7A0886007B08E9
:103DF00087000108A531EB259E310130E602003035
:103E0000E73B66086704031D072F063008000330F0
:103E10000800BB0022002A1C162F20003B08B60019
:103E20003608AB0033089B315D239F312000B51B62
:103E30001E2F3508BA003408B900202FB901BA0185
:103E4000B701B8013808803AB6003A08803A36021D
:103E5000031D2C2F390837020318402F2030200073
:103E6000A3000030A4003B08B6003608A5009E3130
:103E70006E269F3101302000B7070030B83D222F59
:103E800022002A184C2F20003B08B6003608AB0051
:103E900033089B315D239F3120003308A30002309B
:103EA000A4009831FE2039082307B3003A08243DC6
:103EB000B4000800A901A41F642FA309A409A30A40
:103EC0000319A40AA901A90AA61F6F2FA509A6090B
:103ED000A50A0319A60A0130A7002708A906AA0106
:103EE000AB012308240403199E2FA801A80AA41BD0
:103EF000832F0130A335A40D890B7A2F0130A70041
:103F00002708A807772F0130AA35AB0D890B842F1E
:103F100024082602031D8E2F23082502031C952F3B
:103F20002308A5022408A63B2A140130A436A30CBA
:103F3000890B962F0130A802031D832F290803192E
:103F4000A62FAA09AB09AA0A0319AB0A2B08A400D9
:103F50002A08A3000800B2003208F0390938B0007E
:103F60003008B50035080438B0003008B300320816
:103F7000B0000330B035FF3E031DBA2F3035F039A5
:103F80000938B1003108B60036080438B0003008EE
:103F9000B4003330B0003008AC000130AD00003068
:103FA000AE0025309B3113239F31000035302000B7
:103FB000B0003008AC000130AD000030AE0025305C
:103FC0009B3113239F31000034302000B0003008B3
:103FD000AC000130AD000030AE0025309B31132322
:103FE0009F31000036302000B0003008AC000130B6
:103FF000AD000030AE0025309B31132300000800D7
:10400000343448347A3420342034003400343834A2
:1040100048347A3420342034003400343134353498
:1040200048347A3420342034003433343034483443
:104030007A342034203400343534393448347A34F6
:1040400020342034003431343134383448347A3434
:104050002034003432343334353448347A34203424
:10406000003434343634333448347A342034003431
:104070004234593450342034203400340034203455
:1040800020343434003400340034003420342034FC
:1040900038340034003400340034203431343534C2
:1040A00000340034003400342034333430340034ED
:1040B00000340034003420343534393400340034D2
:1040C00000340034313431343834003400340034B6
:1040D00000343234333435340034003400340034A6
:1040E00034343634333400340034003400346F3424
:1040F00046344634003400340034003431346E34F5
:10410000703400340034003400344F347534743467
:1041100000340034003400345734413452343A34DB
:104120002534303432345834203425343034323469
:104130005834203425343034323458342034253443
:104140003034323458342034253430343234583416
:1041500025343034323458340034343434342E344A
:1041600031340034003400342034343438340034F2
:104170000034003400342034383438342E343234AF
:104180000034003420343934363400340034003400
:1041900000343134373436340034003400340034E1
:1041A0003134393432340034003400340034433490
:1041B0004F3441345834493441344C3400344F3452
:1041C000503454344934433441344C340034413451
:1041D00044344334203420342034203400344834F0
:1041E00044344D34493420342034203400344934AC
:1041F00032345334203420342034203400344334D7
:104200004F34413400340034003400344F345034DF
:1042100054340034003400340034413464344334C2
:104220000034003400340034483444344D34003415
:104230000034003400343134323453340034003428
:10424000003400340F3426343834263431342634E4
:10425000BA341E340B341D341F3426344E341C340F
:10426000EF342534F3342534F7342534FB34253446
:10427000FF342534033426340734263414342634EA
:1042800023341C344634693472346D3477346134E9
:10429000723465343A343134363420344F34633434
:0E42A00074342E34323430343234303400343E
:104B7C0008000130080005300800961508002400D4
:104B8C0096140800240016150800240011080800CB
:104B9C002000911508002000911108009B31FA2388
:104BAC000800200091110800240095120800210033
:104BBC009111080021009115080024009616161674
:104BCC0008002400961216160800F00070089100D8
:104BDC000800A531C52501300800A531C5250230D6
:104BEC000800A531C52501300800A531C8250030C5
:104BFC000800A531E72505300800A531E3250A306A
:104C0C000800A531E3250930080016302100970073
:104C1C0008002400EA10E9010E3008002400EA1014
:104C2C00E9010E3008002400160E890C890C01399C
:104C3C00080024006A10A531C32504300800640064
:104C4C0080010131890B262E0034FE0012001E005B
:104C5C00FE0B2C2E003424006A146335A531EB2591
:104C6C000330080024006A140314630DA531EB25EE
:104C7C0005300800320091019201930194019501D5
:104C8C009601080024082200AF002000230822000F
:104C9C00AE00080024082200B300200023082200E4
:104CAC00B2000800320099019B019D0106309F0063
:104CBC009E011C1808005F2EEA1D08007108E50013
:104CCC007008E4007308E7007208E600EA110800B7
:104CDC007608F1007508F0007708F8007808F20003
:104CEC0000309B31822308002908A4002808A30067
:104CFC002A08AB002B08A50002309B31AA23080020
:104D0C002908A4002808A3002A08AB002B08A5003A
:104D1C0000309B31AA230800013090311920A631B4
:104D2C0007302000B7007D30890B9A2EB70B9A2ED6
:104D3C000800023090311920A63107302000B7004E
:104D4C007D30890BA72EB70BA72E08002408310045
:104D5C009200200023083100910015171514000053
:104D6C0000003100130808002400951A0800940173
:104D7C00383095001F309600603097002730920035
:104D8C00951608000C3090311920A6310330200004
:104D9C00B7009730890BD02EB70BD02E00320800FD
:104DAC0020001B1DE02E1B1071089A007008990042
:104DBC001B14080071089A007008990008005F34F1
:104DCC005F345F3400340034003400340034003479
:104DDC0028346E3475346C346C3429340034A63178
:104DEC004026A6318731F727A63188310220A6311B
:104DFC00A6315826A631A6310B26A6319931DD21D4
:104E0C000800111022003108F1003008F000A63122
:104E1C00D626A73122002E082F04031908002F08CC
:104E2C008A002E080A00A731080001302000A302D6
:104E3C000030A43B230A0319240A031908000B3081
:104E4C002000A5006230890B292FA50B292F00000B
:104E5C001B2F3C08A4003B08A3009831FE20A7316F
:104E6C0023083B07AF0024083C3DB0003E08B200CD
:104E7C003D08B1009A31EF2208007908F000FF39A3
:104E8C00031D0030F1000230F2000030F300A631B7
:104E9C006226A7310030F500F600F701A6316E2628
:104EAC00043008007908F000FF39031D0030F100D0
:104EBC000130F2000030F300A6316226A731003039
:104ECC00F500F600F701A6316E26043008007908CB
:104EDC00F000FF39031D0030F1000130F20000300A
:104EEC00F300A6316226A7310030F500F600F70179
:104EFC00A6316E26023008007908F000FF39031D38
:104F0C000030F1000230F2000030F300A6316226CE
:104F1C00A7310030F500F600F701A6316E260230FD
:104F2C0008007908F000FF39031D0030F100023051
:104F3C00F2000030F300A6316226A7310030F500F4
:104F4C00F600F701A6316E26043008007908F0004F
:104F5C00FF39031D0030F1000130F2000030F30086
:104F6C00A6316226A7310030F500F600F701A63114
:104F7C006E26023008007908F000FF39031D00305E
:104F8C00F1000230F2000030F300A6316226A731A6
:104F9C000030F500F600F701A6316E26023008004D
:104FAC007908F000FF39031D0030F1000130F200E8
:104FBC000030F300A6316226A7310030F500F60070
:104FCC00F701A6316E26043008002400EA1D080003
:104FDC00200024082400E500200023082400E4001D
:104FEC00200026082400E700200025082400E60005
:104FFC00EA11080056344F344C343A3425343334E7
:10500C0064342034423441344C343A342534323410
:10501C00643420342534733400340034FF340034C9
:10502C0005340134003405340034003405340534BF
:10503C000034053400340034003449344E345034D8
:10504C0055345434203400344F34553454345034A3
:10505C005534543400344134553458343A342534AE
:10506C00733420344834503446343A342534733451
:10507C00003453344F3455345234433445343A3479
:10508C002534733400342034203420342E3400344E
:10509C002534303433346434003420342034203418
:1050AC0000342E343034203400342E343534203453
:1050BC00003448344C343034003453344F3443349B
:1050CC0000344F344634463400344834503446347B
:1050DC000034423441344C34003455344F344C3465
:1050EC00003431343234533400344C34413453347E
:1050FC00003453344534543400342534323464345D
:10510C00003425343334643400344634413464344C
:02511C0000345D
:020000040001F9
:08000E008C3FF23FFF1FFF3F92
:00000001FF
