:020000040000FA
:1000000080312528161408007E1480310B1F232808
:100010002100111C12282000111C1228A7315B2777
:100020008031232821009119200091191D282100D9
:10003000111D23282000111D2328220033088A00C7
:1000400032080A0080317E100900803127283930BB
:1000500084009A3085004F308600013087001A30C6
:10006000A6319C268031783084009E308500A030F7
:100070008600013087004B30A6319C268031CC3081
:1000800084009C30850020308600023087002E30AE
:10009000A6319C268031D2308400A6308500CB303A
:1000A0008600023087000930A6319C268031FD0190
:1000B000EA01EB01EC0120308400013085002F3093
:1000C000A631962680312300EB01EC01ED01EE0113
:1000D0004E308400023085001E30A63196268031D5
:1000E000A0308400023085002030A6319626803171
:1000F00020308400033085002930A63196267E10FA
:100100002000803183288731ED278031F430A3002F
:100110000130A400A7316F2780319A3153228031FA
:10012000883100208031210011140B178B178B1799
:100130000B1764302000A3000030A400A7316F2704
:1001400080311030A300F030A400A7312227803185
:100150005C3A031D032912302000A300F030A400F4
:10016000A731222780312100E60066082000EB003D
:100170001330A300F030A400A731222780312100E2
:10018000E60066082200C00014302000A300F03012
:10019000A400A731222780312100E6006608FD0077
:1001A00015302000A300F030A400A73122278031B1
:1001B0002100E60066082000EA001630A300F030B7
:1001C000A400A731222780312100E6006608220022
:1001D000BC0011302000A300F030A400A73122277A
:1001E00080312100E60066082200BF003C08031DA4
:1001F000FB283F08FD283C08BF002100E6006608F8
:100200002000EC00572911302000A900F030AA008E
:1002100092302200BF002000EC002100E6006608BA
:100220002000AB009B31002380311230A900F03058
:10023000AA00EB01AB019B31002380311330A900F0
:10024000F030AA0002302200C0002100E60066085B
:100250002000AB009B31002380311430A900F03026
:10026000AA00FD01AB019B31002380311530A900AC
:10027000F030AA00EA01AB019B3100238031163037
:10028000A900F030AA002200BC012000AB019B3184
:10029000002380311030A900F030AA00C5302100C1
:1002A000E60066082000AB009B31002380319431CA
:1002B000E92480319131252180319031CF20803166
:1002C000A7313E2780319831CF2080312030210066
:1002D000C0000330C1000030C200A830C3009B3111
:1002E0004223803120302000B7000330B80099311C
:1002F000302180312030A3000330A400A7316F27C4
:100300008031A7311527803120006C082100E600DC
:1003100066082200CA0020006B082100E60066087B
:100320002000BA006C0891318E21803153302100B9
:10033000E60066082000AC000230AD000030AE00E0
:100340006A309B318A23803151302100E6006608F3
:100350002000AC000230AD000030AE006A309B31AE
:100360008A2380314F302100E60066082000AC006F
:100370000230AD000030AE006A309B318A238031FC
:10038000220040088831362080312100ED01EE0145
:100390002200A301A401A5016E302000AF00A83007
:1003A000B0009131FC218031E830A3000330A4007B
:1003B000A7316F2780318B31ED2380316C08933169
:1003C000AB23803122004903031DC12A22004008CB
:1003D0002100E60066082200CA0072302000AF004B
:1003E000A830B0009131FC2180312200C9012030B9
:1003F0002000A3000330A400A7316F2780316230B2
:10040000AF00A830B0009131FC218031C830A3008A
:100410000030A400A7316F2780312200C9012330AA
:10042000860001308700413101302200A300C03F27
:100430002100E60025308600013087006608810033
:1004400022004908031D642A05302100E6006608E1
:100450002000A300220040089A31E02280312100D0
:10046000E700E80167082000A900210068082000D3
:10047000AA000730AB000030AC009A316E22803108
:10048000FF302100E900A030EA0020002908210007
:100490006907EB0020002A0821006A3DEC006B0888
:1004A0002000AF0021006C082000B0009131FC2139
:1004B00080318B31ED23803122004A082100E60093
:1004C00066082200C000202AC901B9302100E600D8
:1004D00066082000AC000230AD000030AE006A308B
:1004E0009B318A2380311030A900F030AA005C30A3
:1004F0002100E60066082000AB009B31002380311C
:100500001330A900F030AA0005302100E60066088B
:100510002000A300220040089A31E022803121000F
:10052000E70067082000AB009B31002380312200E8
:1005300040088831362080316C082100E6006608CA
:100540002200CA0020006C089331AB2380312200C6
:10055000A301A401A501CB302000AF000230B00000
:100560009131FC21803153302100E60066082000E3
:10057000AC000230AD000030AE006A309B318A23FF
:100580008031023022004906031D072E1030200062
:10059000A900F030AA005C302100E60066082000C7
:1005A000AB009B31002380316B08403E2100E60008
:1005B00066082200CA007E302000AF00A830B000DC
:1005C0009131FC2180318430A3000330A400A73195
:1005D0006F2780316230AF00A830B0009131FC212C
:1005E0008031C830A3000030A400A7316F278031CC
:1005F0002330860001308700413101302200A30002
:10060000C03F2100E60025308600013087006608E3
:1006100081002200C90122004908031D312B2C3022
:100620002100C0000230C1005D30C200A830C3000C
:1006300022004A08C03E2000EB002100C400C50192
:10064000C41BC5039B31422380312C302000AF00F6
:100650000230B0009131FC2180318B31ED238031AB
:100660000B2BC90112302000A900F030AA006B0842
:100670002100E60066082000AB009B31002380319A
:100680002200A301A401A5012C302100C0000230EA
:10069000C1005D30C200A830C30020006B082100FB
:1006A000C400C501C41BC5039B3142238031200017
:1006B0006B082100E60066082000BA006C08913142
:1006C0008E2180312C30AF000230B0009131FC21FE
:1006D00080317830A3000530A400A7316F27803126
:1006E0006230AF00A830B0009131FC218031203061
:1006F000A3000330A400A7316F2780316A082100CE
:10070000E60066082200CA007A302000AF00A83058
:10071000B0009131FC2180318430A3000330A4006B
:10072000A7316F2780316230AF00A830B00091311F
:10073000FC218031C830A3000030A400A7316F270E
:1007400080312330860001308700413101302200A2
:10075000A300C03F2100E60025308600013087005D
:10076000660881002200C90122004908031DFC2BF4
:1007700009302100E60066082000A30022004A0894
:100780009A31E02280312100E70067082000EA006A
:100790002C30AF000230B0006A082100E600E7010B
:1007A00066082000A900210067082000AA00073081
:1007B000AB000030AC009A316E2280313F30210016
:1007C000E800A030E9002000290821006807200087
:1007D000B1002A082100693D2000B20090310020BC
:1007E00080312C30AF000230B0009131FC218031DB
:1007F0008B31ED238031B42BC90115302000A900C5
:10080000F030AA006A082100E60066082000AB006C
:100810009B31002380312200A301A401A5010830EF
:1008200020006A06031D232CBF302100E600660865
:100830002000AC000230AD000030AE006A309B31C9
:100840008A2380313B2C57302100E60066082000C7
:10085000AC000230AD000030AE006A309B318A231C
:1008600080316A082100E60066082000B0002630CA
:100870009931D22180312C30AF000230B0006A08AB
:100880002100E600E70166082000A90021006708B2
:100890002000AA000730AB000030AC009A316E2275
:1008A00080313F302100E800A030E9002000290815
:1008B000210068072000B1002A082100693D2000BE
:1008C000B2009031002080312C30AF000230B000F7
:1008D0009131FC218031DC30A3000530A400A73128
:1008E0006F2780316230AF00A830B0009131FC2119
:1008F00080312030A3000330A400A7316F2780315E
:1009000022003C082100E60066082200CA0082306E
:100910002000AF00A830B0009131FC21803184303C
:10092000A3000330A400A7316F2780316230AF00ED
:10093000A830B0009131FC218031C830A3000030D4
:10094000A400A7316F278031233086000130870053
:10095000413101302200A300C03F2100E6002530D4
:10096000860001308700660881002200C90122004C
:100970004908031DC72C22004A082100E60066082A
:100980002200BC003C0894314A248031B72CC901B4
:1009900016302000A900F030AA0022003C082100F7
:1009A000E60066082000AB009B3100238031220066
:1009B000A301A401A50122003C080319EB2C2C3053
:1009C0002000AF000230B0008E30B100A830B2007D
:1009D0009031002080312C302000AF000230B00078
:1009E0009131FC2180312030A3000330A400A731D5
:1009F0006F2780316230AF00A830B0009131FC2108
:100A000080312030A3000330A400A7316F2780314C
:100A10007D082100E60066082200CA00863020001A
:100A2000AF00A830B0009131FC2180318430A300A8
:100A30000330A400A7316F2780316230AF00A830A7
:100A4000B0009131FC218031C830A3000030A400F7
:100A5000A7316F2780312330860001308700413174
:100A600001302200A300C03F2100E60025308600AF
:100A700001308700660881002200C9012200490870
:100A8000031D7E2D22004A0801392100E600660878
:100A9000FD002C302000AF000230B0007D082100A6
:100AA000E600E70166082000A90021006708200091
:100AB000AA000730AB000030AC009A316E228031C2
:100AC0007E302100E800A030E90020002908210044
:100AD00068072000B1002A082100693D2000B2000B
:100AE0009031002080312C30AF000230B0009131C5
:100AF000FC2180318B31ED2380313E2DC901143032
:100B00002000A900F030AA007D082100E600660858
:100B10002000AB009B31002380312200A301A401FF
:100B2000A5017D03031D962D6730972D65302100AB
:100B3000E60066082000AC000230AD000030AE00D8
:100B400040309B318A2380312C30AF000230B0001E
:100B50007D082100E600E70166082000A9002100C9
:100B600067082000AA000730AB000030AC009A31C3
:100B70006E2280317E302100E800A030E9002000A4
:100B80002908210068072000B1002A082100693DDA
:100B90002000B2009031002080312C30AF000230B4
:100BA000B0009131FC218031DC30A3000530A4007D
:100BB000A7316F2780316230AF00A830B00091318B
:100BC000FC2180312030A3000330A400A7316F271F
:100BD00080319A30AF00A830B0009131FC218031D3
:100BE000F430A3000130A400A7316F2780316C08D6
:100BF0002100E60066082200CA0020006C0893313C
:100C0000AB2380318B31ED2380312200C9012000DC
:100C10006C0822004A060319782E4A082100E600D3
:100C200066082000EC006C089331AB2380316B0820
:100C30002100E60066082000BA006C0891318E2180
:100C400080318B31ED238031CB30AF000230B000EA
:100C50009131FC218031782EBD30E60066082000FD
:100C6000AC000230AD000030AE006A309B318A2308
:100C700080316A082100E60066082000B0002630B6
:100C80009931D2218031992EBB30E60066082000D0
:100C9000AC000230AD000030AE006A309B318A23D8
:100CA00080316A082100E60066082000B000263086
:100CB0009931D2218031992E5530E6006608200006
:100CC000AC000230AD000030AE006A309B318A23A8
:100CD00080316A080319992E6A08FF3E2100E60058
:100CE00066082000B00026309931D2218031992E3B
:100CF00038302100E60066082000AC0040309D310D
:100D00009F2580310F392100E700E8016808003A8B
:100D100003198B2E992E6708083A03192C2E013AD5
:100D20000319442E023A03195C2E073A03195C2E6C
:100D3000992E2D302100E60066082000AC004030DE
:100D40009D319F258031923176228031003A0319FE
:100D5000C82E8B31ED23803151302100E60066082A
:100D60002000AC000230AD000030AE006A309B3194
:100D70008A2380314F302100E60066082000AC0055
:100D80000230AD000030AE006A309B318A238031E2
:100D900020006C0822003F060319E22921006E089A
:100DA000E7006D08E600ED0A0319EE0A033067025A
:100DB000853003196602031CE22920006C0821001B
:100DC000E60066082200BF0011302000A900F030C4
:100DD000AA0022003F082100E60066082000AB00C0
:100DE0009B31002380312100ED01EE01E229B501A4
:100DF0002330860000308700473FB300B31F222F07
:100E00002000A309A409A509A609A709A809A909F9
:100E1000AA09A30A031D1F2FA40A031D1F2FA50A39
:100E2000031D1F2FA60A031D1F2FA70A031D1F2F17
:100E3000A80A031D1F2FA90A031D1F2FAA0A20009D
:100E4000B501B50A2B30860000308700473F2000EF
:100E5000B300B31F4F2F2000AB09AC09AD09AE0999
:100E6000AF09B009B109B209AB0A031D4A2FAC0A98
:100E7000031D4A2FAD0A031D4A2FAE0A031D4A2F38
:100E8000AF0A031D4A2FB00A031D4A2FB10A031DE2
:100E90004A2FB20A01302000B3003308B5063630BD
:100EA00086000030870008302000B30000301E00AC
:100EB000B30B572F230824042504260427042804F1
:100EC00029042A040319BA2FB401B40AAA1B752FE6
:100ED000A335A40DA50DA60DA70DA80DA90DAA0D4E
:100EE0000130B3003308B407662FB635B70DB80D1F
:100EF000B90DBA0DBB0DBC0DBD0D2A083202031D84
:100F00009B2F29083102031D9B2F28083002031D47
:100F10009B2F27082F02031D9B2F26082E02031D3F
:100F20009B2F25082D02031D9B2F24082C02031D37
:100F30009B2F23082B02031CAE2F2308AB0224088F
:100F4000AC3B2508AD3B2608AE3B2708AF3B280845
:100F5000B03B2908B13B2A08B23B3614AA36A90C8B
:100F6000A80CA70CA60CA50CA40CA30C0130B40271
:100F7000031D752F35080319DB2FB609B709B8090A
:100F8000B909BA09BB09BC09BD09B60A031DDB2FA3
:100F9000B70A031DDB2FB80A031DDB2FB90A031D97
:100FA000DB2FBA0A031DDB2FBB0A031DDB2FBC0A94
:100FB000031DDB2FBD0A20003608A3003708A4005C
:100FC0003808A5003908A6003A08A7003B08A80081
:100FD0003C08A9003D08AA000800A631B1268731C7
:100FE000A631C9268731883102208731A631DB2618
:100FF0008731A631782687319A31532208000800BC
:101000001B14080022008C0180308D008E013830C6
:1010100021008C0070308D008E0123008E018D0127
:101020008C01F03024008D0038308C008E012500BA
:101030008C01D0308D008E01383026008C00F030CD
:101040008D00FF308E003F3027008C00F0308D0087
:10105000FF308E000E303C00A00018303D009E0096
:1010600019309C000C303C00A10008002000B300A7
:101070000A296330B0003008AC000230AD00003007
:10108000AE0040309B318A238831DF30B000300819
:10109000AC000230AD000030AE0040309B318A23FE
:1010A00088315B30B0003008AC000230AD00003059
:1010B000AE0040309B318A2388315F30B000300869
:1010C000AC000230AD000030AE0040309B318A23CE
:1010D00088312A296330B0003008AC000230AD00FE
:1010E0000030AE0040309B318A2388315D30B00043
:1010F0003008AC000230AD000030AE0040309B3113
:101100008A2388315B30B0003008AC000230AD007B
:101110000030AE0040309B318A2388315F30B00010
:101120003008AC000230AD000030AE0040309B31E2
:101130008A2388312A296130B0003008AC0002309F
:10114000AD000030AE0040309B318A2388315930E9
:10115000B0003008AC000230AD000030AE004030CE
:101160009B318A238831E330B0003008AC00023074
:10117000AD000030AE0040309B318A2388312A29EF
:10118000E930B0003008AC000230AD000030AE00F5
:1011900040309B318A238831D730B0003008AC0012
:1011A0000230AD000030AE0040309B318A238831E0
:1011B000E130B0003008AC000230AD000030AE00CD
:1011C00040309B318A2388312A29E730B00030082B
:1011D000AC000230AD000030AE0040309B318A23BD
:1011E0008831D530B0003008AC000230AD0000309E
:1011F000AE0040309B318A238831E530B0003008A2
:10120000AC000230AD000030AE0040309B318A238C
:1012100088312A290530B0003008A30033089A31FC
:10122000E0228831B100B2013208003A03191929CD
:101230002A293108003A03193928013A03196A2882
:10124000033A03199B28013A0319C028073A0319E6
:10125000E5282A290530A3000030A400A7316F2714
:1012600088315130B0003008AC000230AD000030A1
:10127000AE006A309B318A2388314F30B00030088D
:10128000AC000230AD000030AE006A309B318A23E2
:1012900008002000C9003E08D2003F08D3004008E3
:1012A000D4004108D5004208D6004308D7004408BE
:1012B000D8004508D9005230860000308700473FEB
:1012C000C600C61F65290130662900302000C7000E
:1012D000C8014708D0004808D1005008510403193C
:1012E0008F29D209D309D409D509D609D709D80934
:1012F000D909D20A031D8F29D30A031D8F29D40AC5
:10130000031D8F29D50A031D8F29D60A031D8F2996
:10131000D70A031D8F29D80A031D8F29D90A220055
:10132000A91B9629FD30AA05FF30AB052908803A94
:101330002000C60080304602031DA1290130220092
:1013400028020318A92901302000CC000030CD006C
:10135000B129220029082000CD0022002808200001
:10136000CC00220027082000CF0022002608200001
:10137000CE0050085104031DC02922002A1DC52992
:10138000FF302000CE07FF30CF3D1F302000DA00B5
:101390000030DB002500BF01592A20005208530409
:1013A000540455045604570458045904031DF229E3
:1013B0004D08803AC60080304602031DE129013005
:1013C0004C020318F22920004F08803AC6008030F2
:1013D0004602031DED2901304E02031C652A22003E
:1013E000AA1C652AFF302000DA07FF30DB3D0A30F7
:1013F000A300A401A501A601A701A801A901AA01B2
:101400005208AB005308AC005408AD005508AE00BC
:101410005608AF005708B0005808B1005908B2008C
:101420009731222789312408B7002308B600993163
:101430008A21893120003608303EC6005A08A03E75
:1014400086000230870046088100FF30CC07FF305D
:10145000CD3DFF30CE07FF30CF3D0A30A300A401C1
:10146000A501A601A701A801A901AA015208AB0084
:101470005308AC005408AD005508AE005608AF0044
:101480005708B0005808B1005908B2008631F72655
:1014900089312308D2002408D3002508D400260867
:1014A000D5002708D6002808D7002908D8002A0820
:1014B000D90020005B08803AC60080304602031D38
:1014C000632A01305A020318CD2920005008510424
:1014D000031D6D2A22002A1D852AFF302000DA070D
:1014E000FF30DB3D50085104031D782A2B30792A48
:1014F0002D30CA000030CB004A08C6005A08A03E72
:101500008600023087004608810020005A08A03E6D
:10151000C6004608B3004F08B5004E08B40049089D
:101520009F315E273408BF003308BE00080020004A
:10153000CD002200A91BA02AFD30AA05FF30AB0573
:101540002908803A2000C50080304502031DAB2ADF
:101550000130220028020318B32A01302000D200F3
:101560000030D300BB2A220029082000D30022002B
:1015700028082000D200220027082000D5002200E1
:1015800026082000D40022002A1ECB2AFE3020008C
:10159000D407FF30D53D20003C08D6003D08D700D9
:1015A0003E08D8003F08D9004008DA004108DB00B7
:1015B0004208DC004308DD001F30DE000030DF00A1
:1015C0002500BF018C2BFF302000DE07FF30DF3D00
:1015D0000F305605E00000305705E1006108803A01
:1015E000C50080304502031DF72A0A306002031C43
:1015F000FD2A20006008573E002B20006008303E86
:10160000E0000030613DE1004408BF3EC500FF300E
:1016100003180030C600003046021A300319450294
:101620000318142B0130152B0030C700C8014708E0
:10163000CE004808CF004E084F0403194A2B203033
:101640006004C50000306104C60045089F3EC70025
:10165000FF30463DC800003048021A3003194702E7
:101660000318342B0130352B0030C900CA0149085A
:10167000D0004A08D1005008510403194A2B6108D0
:10168000AA006008A9009B3121238A312A08E100C1
:101690002908E0006008C5005E08A03E8600023010
:1016A000870045088100FF30D207FF30D33DFF306F
:1016B000D407FF30D53D5630860000308700403FCC
:1016C000C500413FC600423FC700433FC800443FFA
:1016D000C900453FCA00463FCB00473FCC0004301D
:1016E0002000CC36CB0CCA0CC90CC80CC70CC60CDD
:1016F000C50C890B702B20004C08DD004B08DC006A
:101700004A08DB004908DA004808D9004708D80031
:101710004608D7004508D60020005F08803AC5007B
:1017200080304502031D962B02305E02031CBD2B48
:10173000200056085704580459045A045B045C04FA
:101740005D04031DE32A5308803AC500803045023A
:10175000031DAC2B013052020318E32A2000550868
:10176000803AC50080304502031DB82B0130540279
:10177000031CBD2B2200AA18E32A22002A1EDB2B01
:10178000FF302000DE07FF30DF3D4408C5005E0863
:10179000A03E86000230870045088100FF30DE074A
:1017A000FF30DF3D3030C5005E08A03E86000230CD
:1017B00087004508810020005E08A03EC50045085E
:1017C000B3005508B5005408B4004D089F315E279A
:1017D0003408BD003308BC0008002000B701003009
:1017E0009D312B258B3120302100C0000330C100FA
:1017F0005330C200A830C3000530DA005A08200078
:10180000A300220040089A31E0228B312100DB0046
:10181000DC01DB35DC0DDB35DC0DDB35DC0DD730F9
:10182000DD00A030DE005B085D07C4005C085E3DA3
:10183000C5009B3142238B3120302000B70003309C
:10184000B800993130218B31B701B70A00309D3192
:101850002B258B31013020007D052000A900AA0135
:101860000730AB000030AC009A316E228B3137303C
:101870002100DA00A830DB002000290821005A07E7
:101880002500C90020002A0821005B3D2500CA0070
:1018900020006A082100DA00DB015A082000A900B4
:1018A00021005B082000AA000730AB000030AC002C
:1018B0009A316E228B3100302100DC00A030DD0037
:1018C0002000290821005C072500C00020002A080C
:1018D00021005D3D2500C10020302100C000033003
:1018E000C1004530C200A830C30025004A082100CD
:1018F000C500250049082100C40025004108210039
:10190000C700250040082100C6009B3142238B31CF
:1019100020302000B7000330B800993130218B31DE
:1019200038302100DA005A082000AC0040309D31E8
:101930009F258B312100DB005B082500C2000230AF
:101940002100DA005A082000B70000309D312B2515
:101950008B31250042080F392100DA00DB015A08DB
:101960002000A90021005B082000AA000730AB007E
:101970000030AC009A316E228B3100302100DC0047
:101980009830DD002000290821005C072500C900EF
:1019900020002A0821005D3D2500CA0020302100DA
:1019A000C0000330C1001430C200A830C3002000C2
:1019B0006C082100DA00DB015A08C4005B08C5008E
:1019C00020006B082100C600C701C61BC703250005
:1019D0004A082100C900250049082100C8009B31A0
:1019E00042238B3120302000B7000330B8009931FA
:1019F00030218B3110302100DA005A082000AC0071
:101A00006A309D319F258B312100DB005B0825006A
:101A1000C30013302100DA005A082000AC006A30FD
:101A20009D319F258B312100DB005B082500C5001F
:101A300024302100DA005A082000AC006A309D31C1
:101A40009F258B312100DB005B082500C600253077
:101A50002100DA005A082000AC006A309D319F2531
:101A60008B312100DB005B082500C700123021000C
:101A7000DA005A082000AC006A309D319F258B3176
:101A80002100DB005B082500C40011302100DA00D2
:101A90005A082000AC006A309D319F258B3121000F
:101AA000DB005B082500C80003302100DA005A087B
:101AB0002000B70000309D312B258B3120302100D4
:101AC000C0000330C1008C30C200A030C30025002C
:101AD00043082100DA00DB015A08C4005B08C50096
:101AE000250044082100DC00DD015C08C6005D081B
:101AF000C700250045082100DE00DF015E08C800A0
:101B00005F08C900250046082100E000E1016008E7
:101B1000CA006108CB00250047082100E200E3016C
:101B20006208CC006308CD00250048082100E400CD
:101B3000E5016408CE006508CF009B3142238B315C
:101B400020302000B7000330B80099313021080060
:101B5000B7002000620886008701403FE400413F53
:101B6000E50064088400650885001200253A031D1D
:101B7000DB2F62088600870101308107413103189D
:101B8000810A2200A601A701AA01AB01FF30A8002B
:101B9000FF30A9002100B301B401EB2D22002A146B
:101BA0002000620886008701013081074131031857
:101BB000810AEB2D2200AA14D02D22002A15D02D47
:101BC0002200AA15D02D22002A16D02D0130210086
:101BD000B3000030B400210033083404031D162E76
:101BE0002000620886008701403FE400413FE50095
:101BF00064088400650885000008E600E7016708BE
:101C0000003A0319042EE62D6608203A0319E02D48
:101C1000033A0319E32D083A0319DD2D063A031997
:101C2000CE2D1D3A0319DA2DE62DEB2D22002A1CAC
:101C30001D2EFD30AA05FF30AB052000620886008E
:101C40008701403FE400413FE500640884006508E7
:101C5000850012002A3A031D4B2E62088600870178
:101C60000130810741310318810A6308860087012A
:101C700001088400850102308107003F2200A60090
:101C8000013FA700A71F902E2A14A609A709A60A9C
:101C90000319A70A902E620886008701403FAF0013
:101CA000413FB00093310C238D3130082200A70052
:101CB00020002F082200A600662E20006208860061
:101CC00087010130810741310318810A2000620831
:101CD00086008701403FE400413FE500640884003E
:101CE000650885000008D03EE600FF30031800308C
:101CF000E700003067020A30031966020318822EDB
:101D00000130832E0030E800E90168082100B500A9
:101D1000200069082100B60035083604031D5D2E39
:101D20002000620886008701403FE400413FE50053
:101D300064088400650885001200643A0319AF2E18
:101D4000620886008701403FE400413FE5006408E7
:101D50008400650885001200693A031DFB2E6208A5
:101D6000860087010130810741310318810A630829
:101D70008600870101088400850102308107003F49
:101D8000E400013FE50064082100A0002000650890
:101D90002100A100890D893B8909A200A300A400AC
:101DA000A500A600A70020082000BE0021002108F1
:101DB0002000BF00210022082000C00021002308CD
:101DC0002000C100210024082000C20021002508B5
:101DD0002000C300210026082000C400210027089D
:101DE0002000C50021003708893149213F08E30060
:101DF0003E08E2000800620886008701403FE400D8
:101E0000413FE50064088400650885001200733ACC
:101E1000031D2F2F620886008701013081074131A1
:101E20000318810A63088600870101088400850180
:101E300002308107003F2100B000013FB1003108AE
:101E40002000AC00210030082000AB002100370842
:101E500096315D262C08E3002B08E200080062089A
:101E600086008701403FE400413FE50064088400AC
:101E7000650885001200783A03194D2F6208860024
:101E80008701403FE400413FE500640884006508A5
:101E900085001200583A031DA72F620886008701AB
:101EA000403FE400413FE500640884006508850088
:101EB0000008E60066082100B200200062088600E3
:101EC00087010130810741310318810A63088600C8
:101ED000870101088400850102308107003F21004D
:101EE000A800013FA900AA01AB01AC01AD01AE0100
:101EF000AF0128082000BC00210029082000BD00F7
:101F000021002A082000BE0021002B082000BF006D
:101F100021002C082000C00021002D082000C10055
:101F200021002E082000C20021002F082000C3003D
:101F3000210032082000E4006408C40021003708B2
:101F40008A3197223D08E3003C08E200080062085D
:101F500086008701403FE400413FE50064088400BB
:101F6000650885001200253A031DD02F62088600FF
:101F700087010130810741310318810A2530A30010
:101F80000030A400210037082000E4006408A50008
:101F90009E31C32601302000E2000030E30008003B
:101FA0006208860087010130810741310318810AE8
:101FB000E201E3010800620886008701403FE40077
:101FC000413FE50064088400650885000008E600DC
:101FD000E7016608A3006708A40021003708200075
:101FE000E8006808A5009E31C3268D3120006208F4
:101FF000860087010130810741310318810ACA2F09
:102000003208B8003108B7003008BA002F08B9000C
:102010003A08B4003908B300B90A0319BA0A3308F8
:102020008600340887003808B6003708B500B70ABC
:102030000319B80A35088400360885000008C03F37
:102040008908031908000828B2003208F039093855
:10205000B0003008B50035080438B0003008B300CF
:102060003208B0000330B035FF3E031D3328303551
:10207000F0390938B1003108B60036080438B0002C
:102080003008B4003330B0003008AC000130AD008F
:102090000030AE0025309B31652390310000353093
:1020A0002000B0003008AC000130AD000030AE00C0
:1020B00025309B3165239031000034302000B00082
:1020C0003008AC000130AD000030AE0025309B314F
:1020D00065239031000036302000B0003008AC009D
:1020E0000130AD000030AE0025309B31652300008B
:1020F00008002000B2003208F0390838B00030087B
:10210000B50035080438B0003008B3003208B0001C
:102110000330B035FF3E031D89283035F0390838CB
:10212000B1003108B60036080438B0003008B400F9
:102130003330B0003008AC000130AD000030AE00EC
:1021400025309B3165239031000035302000B000F0
:102150003008AC000130AD000030AE0025309B31BE
:1021600065239031000034302000B0003008AC000E
:102170000130AD000030AE0025309B316523903139
:10218000000036302000B0003008AC000130AD0057
:102190000030AE0025309B316523000008008230FE
:1021A0002000B700DD30890BD328B70BD3280032CD
:1021B00030309C312424903107302000B7007D302E
:1021C000890BE028B70BE02830309C312424903173
:1021D0004230890BE928003230309C312424903180
:1021E0002130890BF128000020309C3124249031CB
:1021F0002130890BF9280000283090317920903166
:102200002130890B012900000C3090317920903168
:102210002130890B0929000001309031792090315B
:1022200007302000B7007D30890B1429B70B142923
:10223000063090317920903107302000B7007D3092
:10224000890B2029B70B20290800C330B0003008C3
:10225000AC000230AD000030AE006A309B318A2302
:1022600091310530A3000030A400A7316F279131D0
:10227000ED30B0003008AC000230AD000030AE00F0
:102280006A309B318A239131C130B0003008AC00F4
:102290000230AD000030AE006A309B318A239131AC
:1022A0005530B0003008AC000230AD000030AE0058
:1022B0006A309B318A2391315730B0003008AC002E
:1022C0000230AD000030AE006A309B318A2391317C
:1022D000B730B0003008AC000230AD000030AE00C6
:1022E0006A309B318A2391315130B0003008AC0004
:1022F0000230AD000030AE006A309B318A2391314C
:102300004F30B0003008AC000230AD000030AE00FD
:102310006A309B318A2322008D170800BC00BA1F47
:10232000CB290530BB003B082200CD0020003C0833
:10233000BB003B082200CE004D302000BB003B0814
:10234000AC000230AD000030AE006A309B318A2311
:1023500091310630BB003B082200CD0020003A0836
:10236000B600B701B61BB70399318A21913120001D
:1023700036083C02BB003B082200CE004D30200056
:10238000BB003B08AC000230AD000030AE006A304C
:102390009B318A2308000530BB003B082200CD009A
:1023A00020003A083C02BB003B082200CE004D3022
:1023B0002000BB003B08AC000230AD000030AE0096
:1023C0006A309B318A2391310630BB003B082200E2
:1023D000CD0020003C08BB003B082200CE004D3061
:1023E0002000BB003B08AC000230AD000030AE0066
:1023F0006A309B318A2308003008B3002F08B200EE
:1024000032088400330885000008B1003108240038
:10241000AC0001302000B2070030B33D3208840028
:102420003308850012002E3A031D212A7F30B100A7
:1024300031082300A00001302000B2070030B33D76
:10244000262AFF30B10031082300A0002000320806
:102450008400330885000008B1002D30860002306A
:102460008700310881000130B2070030B33D3208E7
:1024700084003308850012002E3A031D4A2AA13039
:102480008600013087007F3081000130B2070030C4
:10249000B33D502AA130860001308700FF30810013
:1024A00032088400330885000008B1002E30860011
:1024B00002308700310881000130B2070030B33D9F
:1024C000320884003308850012002E3A031D6F2A5B
:1024D000A2308600013087007F3081000800A230E2
:1024E000860001308700FF30810008001030B30003
:1024F0003308AC006A309D319F259231B400340816
:102500002200BA0013302000B3003308AC006A3058
:102510009D319F259231B40034082200B800243048
:102520002000B3003308AC006A309D319F25923102
:10253000B40034082200B70025302000B30033086F
:10254000AC006A309D319F259231B40034082200DE
:10255000B60012302000B3003308AC006A309D3161
:102560009F259231B40034082200B90011302000B8
:10257000B3003308AC006A309D319F259231B4001E
:1025800034082200B50035082000B300B401220051
:1025900036082000B500B601220037082000B70039
:1025A000B801220038082000B900BA0122003A0818
:1025B00039072000BB00BC01BC0D39083B07BD003A
:1025C0003A083C3DBE0037083D07BF0038083E3D95
:1025D000C00035083F07C1003608403DC20033083F
:1025E0004107C3003408423DC40022003B082000DC
:1025F00043064404031DFE2A0030080022003A0866
:10260000390738073707360735072000B300330886
:102610002200BB0001300800BC01BD01B501B601BC
:10262000BB01BB0A2F088400300885001200203A45
:1026300003192C2B2F088400300885000008F73E72
:10264000B100FF3003180030B20000303202053014
:10265000031931020318BB013B08B100B201310874
:10266000B7003208B800370838040319412B01308D
:10267000AF070030B03D102B0130B5000030B60080
:10268000732B2F088400300885000008B100B201C8
:102690003208003A03194D2B772B31082B3A0319D6
:1026A000732B063A03193C2B772B2F088400300834
:1026B00085000008B1003D08AA003C08A9000A30C6
:1026C000AB000030AC009A316E2293312A08B3007F
:1026D00031082902B200031CB3033208303EBC00AB
:1026E0000030333DBD000130AF070030B03D2F0852
:1026F0008400300885000008D03EB100FF30031888
:102700000030B200003032020A30031931020318DF
:102710008B2B01308C2B0030B300B4013308B9008F
:102720003408BA0039083A04031D552B350836041D
:10273000031DA62B3C09B1003D09B200B10A0319E3
:10274000B20A3108AF003208B00008003D08B000FE
:102750003C08AF0008002100DB0009305B020318D1
:10276000BE2BCB302000AF000230B0007630B1007D
:10277000A830B200903100209331422CBB305B0274
:10278000031C0A2C02302000A3000030A40021000A
:102790005B08313E2000A500FF3003180030A60082
:1027A0009F31AF27933123082100DA005A08220015
:1027B000C100CB302100C0000230C1009230C20005
:1027C000A830C300220041082100C400C501C41B79
:1027D000C5039B3142239331CE305B06031DF52B9D
:1027E0002D30DA005A082500CB0021005B1C012C9B
:1027F000CB302000BB000230BC006630BD00A830EA
:102800003E2CCB302000BB000230BC006A30BD0043
:10281000A8303E2C02302000A3000030A40021008C
:102820005B08313E2000A500FF3003180030A600F1
:102830009F31AF27933123082100DA005A08220084
:10284000C100CB302100C0000230C1009630C20070
:10285000A830C300220041082100C400C501C41BE8
:10286000C5039B31422393315B18422CCB302000AF
:10287000BB000230BC009E30BD00A830BE00A731B6
:1028800083279331CB302000AF000230B00091316C
:10289000FC2108002100DB0009305B0203185D2CDD
:1028A000CB302000AF000230B0008A30B100A83039
:1028B000B200903100209431E12CBB305B02031C4C
:1028C000A92C02302000A3000030A40021005B08E6
:1028D000313E2000A500FF3003180030A6009F31D4
:1028E000AF27943123082100DA005A082200C100E2
:1028F000CB302100C0000230C1009230C200A830AD
:10290000C300220041082100C400C501C41BC50347
:102910009B3142239431CE305B06031D942C2D3025
:10292000DA005A082500CB0021005B1CA02CCB301C
:102930002000BB000230BC006630BD00A830DD2C9A
:10294000CB302000BB000230BC006A30BD00A83094
:10295000DD2C02302000A3000030A40021005B0821
:10296000313E2000A500FF3003180030A6009F3143
:10297000AF27943123082100DA005A082200C10051
:10298000CB302100C0000230C1009630C200A83018
:10299000C300220041082100C400C501C41BC503B7
:1029A0009B31422394315B18E12CCB302000BB00DB
:1029B0000230BC009E30BD00A830BE00A731832786
:1029C0009431CB302000AF000230B0009131FC21B7
:1029D0000800CF30B0003008AC000230AD0000304D
:1029E000AE0040309B318A239431C930B0003008AA
:1029F000AC000230AD000030AE0040309B318A2385
:102A00009431C730B0003008AC000230AD00003067
:102A1000AE0040309B318A239431CD30B000300875
:102A2000AC000230AD000030AE0040309B318A2354
:102A30009431CB30B0003008AC000230AD00003033
:102A4000AE0040309B318A239431C530B00030084D
:102A5000AC000230AD000030AE0040309B318A2324
:102A600094317D03031D362D6730372D6530B0005E
:102A70003008AC000230AD000030AE0040309B3179
:102A80008A239431D130B0003008AC000230AD0060
:102A90000030AE0040309B318A239431D330B000F7
:102AA0003008AC000230AD000030AE0040309B3149
:102AB0008A239431DB30B0003008AC000230AD0026
:102AC0000030AE0040309B318A239431D930B000C1
:102AD0003008AC000230AD000030AE0040309B3119
:102AE0008A2394316130B0003008AC000230AD0070
:102AF0000030AE0040309B318A2394315D30B0000D
:102B00003008AC000230AD000030AE0040309B31E8
:102B10008A2394315930B0003008AC000230AD0047
:102B20000030AE0040309B318A239431DD30B0005C
:102B30003008AC000230AD000030AE0040309B31B8
:102B40008A230800D92D0C11C03020020318AA2DA9
:102B50000C14AB2D0C1024002C0899314521953113
:102B600023002005C22D0C10C03021020318BA2DFD
:102B70008C14BB2D8C1024002D08993145219531E2
:102B80002300210520008E00ED2D8C10C030200286
:102B90000318CC2D0C15CD2D0C1124002E089931C5
:102BA000452195312300220520008E002200C4011A
:102BB000ED2D4408C40AF500F6017608003A031921
:102BC000E22DD62D7508003A0319A32D013A0319F9
:102BD000B32D033A0319C52DD62D9E312E269531DE
:102BE000F5007508C2004208803A7F3E031C0D2E96
:102BF000F8304A02031C082E4A084207F500EE305E
:102C000075020318182EFF30F5007508CA00182E3B
:102C10004208F5007508CA07182E08304A02031842
:102C2000082E4A084207F500123075020318CA013F
:102C300023080319202E2308F5007508A007212E6C
:102C4000A00124080319292E2408F5007508A107FE
:102C50002A2EA10125080319322E2508F500750832
:102C6000A207332EA20120008C1D432E2200430810
:102C70000319402E4308F5007508C900C301080078
:102C8000AC01AD01080001302200AC070030AD3DC1
:102C900000302D020B3003192C02031C0800C30165
:102CA000C30A01302D02F53003192C02031C080061
:102CB0000230F5007508C30008002000BB0020307A
:102CC00086000230870030308400003085000730F5
:102CD000AD0016001A00AD0B692E2C08BD002B08A4
:102CE000BC003C083D04031D792E3030BC00003090
:102CF000BD003D08A4003C08A30099315B2196313A
:102D00002408C1002308C000220029082000BF00B9
:102D1000220028082000BE00BF1B9F2E3F08803ADB
:102D2000AD004108803A2D02031D982E40083E0256
:102D300003189F2E20003F08C1003E08C00020005D
:102D40004108BF004008BE00220027082000BA004A
:102D5000220026082000B90022002A1CC12ECE2EF7
:102D600020302000A3000030A4003B08AD002D0857
:102D7000A5009E31C326963101302000C0070030E7
:102D8000C13D20004108803AAD003A08803A2D024A
:102D9000031DCC2E39084002031CB02E2000B701C1
:102DA000B8013808803AAD003F08803A2D02031D73
:102DB000DB2E3E0837020318FA2E20003C08840060
:102DC0003D0885000008AD00AE012D08A3002E08C7
:102DD000A4003B08AF002F08A5009E31C326963102
:102DE00001302000BC070030BD3D0130B707003086
:102DF000B83DD12E22002A180F2F1C2F2030200082
:102E0000A3000030A4003B08AD002D08A5009E31B2
:102E1000C326963101302000C0070030C13D20009C
:102E20004108803AAD003A08803A2D02031D1A2F5E
:102E300039084002031CFE2E20004108AC00400867
:102E4000AB000800B5012B30860000308700473FFB
:102E5000B300B31F4D2F2000AB09AC09AD09AE097B
:102E6000AF09B009B109B209AB0A031D4A2FAC0A78
:102E7000031D4A2FAD0A031D4A2FAE0A031D4A2F18
:102E8000AF0A031D4A2FB00A031D4A2FB10A031DC2
:102E90004A2FB20A2000B501B50A2330860000305F
:102EA0008700473F2000B300B31F752F2000A30900
:102EB000A409A509A609A709A809A909AA09A30A95
:102EC000031D752FA40A031D752FA50A031D752F59
:102ED000A60A031D752FA70A031D752FA80A031D37
:102EE000752FA90A031D752FAA0A200023082404A0
:102EF000250426042704280429042A040319CD2FB5
:102F0000B401B40AAA1B912FA335A40DA50DA60DDB
:102F1000A70DA80DA90DAA0D0130B3003308B40701
:102F2000822F2A083202031DAF2F29083102031D08
:102F3000AF2F28083002031DAF2F27082F02031DD3
:102F4000AF2F26082E02031DAF2F25082D02031DCB
:102F5000AF2F24082C02031DAF2F23082B02031CC4
:102F6000C12F2308AB022408AC3B2508AD3B260843
:102F7000AE3B2708AF3B2808B03B2908B13B2A08E5
:102F8000B23BAA36A90CA80CA70CA60CA50CA40C45
:102F9000A30C0130B402031D912F35080319EE2F45
:102FA000AB09AC09AD09AE09AF09B009B109B20965
:102FB000AB0A031DEE2FAC0A031DEE2FAD0A031D55
:102FC000EE2FAE0A031DEE2FAF0A031DEE2FB00A3F
:102FD000031DEE2FB10A031DEE2FB20A20002B08AD
:102FE000A3002C08A4002D08A5002E08A6002F0879
:102FF000A7003008A8003108A9003208AA0008007C
:1030000055344E344C344B340034003400342034C6
:10301000203438346B3400340034003420343134FC
:1030200031346B34003400340034203431343234E1
:103030006B340034003400342034313436346B3493
:103040000034003400342034323432346B340034F1
:10305000003400342034323434346B3400340034DF
:1030600000342034333432346B34003400340034D0
:10307000343434342E3431346B340034003420345E
:10308000343438346B340034003400342034363473
:1030900034346B34003400340034383438342E3453
:1030A00032346B34003400342034393436346B34E9
:1030B0000034003400343134323438346B3400346A
:1030C000003400343134373436346B340034003457
:1030D00000343134393432346B3400340034003449
:1030E000FF34F934FF34FF34FF349C34FF34FF34B1
:1030F000FF34FF34FF34FF34FF34BF347F34CF3428
:10310000C034F934A434B034993492348234F8346D
:1031100080349034F634B634FF34B734FF34FF349F
:10312000A03488348334C634A13486348E34C23417
:103130008934CF34E1348734C734C834AB34C03435
:103140008C34983488349234CE34C134C1348134D0
:1031500089349134E434C634FF34F034BC34F73469
:10316000DE34A0348334A734A13486348E349034D2
:103170008B34FB34F1348734C734C834AB34A334D4
:103180008C349834AF3492348734E334E33481346C
:1031900089349134E434FF34FF34FF34FE34023098
:1031A00090317920983107302000B7007D30890BAD
:1031B000D728B70BD72808007908F000FF39031D7E
:1031C0000030F1000130F2000030F300A631E526B6
:1031D00098310030F500F600F701A631F1260230F3
:1031E00008007908F000FF39031D0030F1000230BB
:1031F000F2000030F300A631E52698310030F500EA
:10320000F600F701A631F126023008007908F00037
:10321000FF39031D0030F1000130F2000030F300EF
:10322000A631E52699310030F500F600F701A63108
:10323000F126043008002400EB1D080020002408BB
:103240002400E600200023082400E50020002608D2
:103250002400E800200025082400E700EB11080006
:103260003708860038088700010803190800370866
:1032700086003808870001089031242099310130F8
:103280002000B7070030B83D3029F200203072022C
:10329000031C55292030F2027208703E84009830D9
:1032A0000318013E850000085629FF30F000700821
:1032B000F100710808002408A7002308A6002308CD
:1032C000840024088500120003196B290130A3072C
:1032D0000030A43D5F2926082302A3002708243BD1
:1032E000A400080020002308D03EA500FF30243DA4
:1032F000A600003026020A3003192502031882298D
:10330000013083290030A700A8012708A30028085E
:10331000A40008003708803AB80080303802031D46
:103320009329013036020318080020003609B8003E
:103330003709B900B80A0319B90A3808B6003908BC
:10334000B700080020002308BF3EA500FF30243D41
:10335000A600003026021A30031925020318B229EC
:103360000130B3290030A700A8012708A3002808CE
:10337000A4000800200023089F3EA500FF30243D44
:10338000A600003026021A30031925020318CA29A4
:103390000130CB290030A700A8012708A300280886
:1033A000A4000800B2003208B10031082200CB00AE
:1033B00020003008B10031082200CC004B30200042
:1033C000B1003108AC000230AD000030AE006A3010
:1033D0009B318A2308007908023E86008701010894
:1033E000F0000030F100790886008701403FF200CC
:1033F000413FF300A631E52699310030F500F60093
:10340000F701A631F126023008007908023E860055
:1034100087010108F0000030F1007908860087017B
:10342000403FF200413FF300A631E5269A310030DB
:10343000F500F600F701A631F12602300800A400DD
:10344000A501A50A2400EB18362AEB142000A501DB
:10345000240803192F2A2400E901E90A342A02303A
:10346000A30023082400E900803102202000250861
:1034700008002134083421348834043405340334FA
:10348000843401347234603422346034113434347E
:1034900000346C3411346B3422346B3411346F3497
:1034A00000346F34083420009C01BD309A00DC30B9
:1034B000990011101A082200B100200019082200FA
:1034C000B00021001114A2302000A3001530A40088
:1034D000A631B926013020009B000800AD01AE01E5
:1034E000291C762A2B08AD072C08AE3D0130AB35E0
:1034F000AC0D890B772A0130AA36A90C890B7C2ADE
:1035000029082A04031D702A2E08AA002D08A900E4
:103510000800A401A40A2400EB18A22A6B11FF30B2
:103520002000A30023082400E400A63144269A3199
:10353000A6314A269A31A63147266A082000A30000
:103540002308A4002000240808002000A701A70ADF
:103550002030230624040319BA2A2308F73EA500C5
:10356000FF30243DA6000030260205300319250255
:103570000318A7012708A500A6012508A30026080F
:10358000A4000800203020002304A50000302404FB
:10359000A60025089F3EA700FF30263DA80000306A
:1035A00028021A30031927020318D82A0130D92A11
:1035B0000030A900AA012908A3002A08A4000800D5
:1035C0002000A6000830A4002408A700A8012608AF
:1035D000A4000730A436890BEA2A28352404A50064
:1035E0002508A8000310A60D23082802031CFA2AA8
:1035F0002308A8020130A702031DE72A28080800B3
:1036000000308B1B0130AC002A08310092002000F2
:1036100029083100910020002B0831009300151774
:1036200015158B1355309600AA30960095149518F1
:10363000172B151120002C0C031C8B1303188B1750
:10364000080029089F3EAB00FF302A3DAC00003047
:103650002C021A3003192B020318302B0130312BA6
:103660000030AD00AE012D08AF002E08B0002F08CD
:103670003004031908005F302905A90000302A052D
:10368000AA000800C430D0005008D3004108D5007B
:103690004008D400D601D701D801D9014308B900A8
:1036A0004208B800D330D0005008BA00D4309C3162
:1036B000FA240230D43E86008701403F4007840050
:1036C000413F413D850080010800AF002F089D313A
:1036D000E6259B31003A0319662B2C08A300003025
:1036E000A4002E08A6002D08A50099311B219B31AE
:1036F00000302000A800A900AA01A631FD269B31B8
:10370000A6317C269B319A3189229B31013A031DD7
:103710000800832BAF002F089D31E6259B31003A2E
:1037200003198B2B2C08A3000130A4002E08A6003F
:103730002D08A50099311B219B3100302000A800E5
:10374000A900AA01A631FD269B31A6317C269B311A
:103750009A3189229B31013A031D0800A82BB2003F
:10376000B001B10130083207AC002C0886000230ED
:1037700087000108AD002D08AF002F0803190800CD
:103780002F08AC00AD012C08A3002D08A4002B08C5
:10379000AE002E08A5009E31C3269B3101302000CB
:1037A000B0070030B13DB22BF4007008710403196A
:1037B000EC2B74354E3E8600023087007008C03F07
:1037C0007108C13F7208F30074085A3E8600023047
:1037D000870073088100080074354E3E8600023071
:1037E00087002C30C03F2630C13F74085A3E860007
:1037F0000230870081010800A70023082404031970
:10380000142C27354E3E8600023087002308C03F27
:103810002408C13F2508A60027085A3E860002302A
:10382000870026088100080027354E3E86000230BA
:1038300087002C30C03F2630C13F27085A3E860003
:1038400002308700810108002000B1003108F03902
:103850000838B0003008B30033080438B00030082E
:10386000B2003230B0003008AC000130AD000030A2
:10387000AE0025309B3165239C31000033302000A1
:10388000B0003008AC000130AD000030AE00253093
:103890009B31652300000800A6313E269C312400A0
:1038A0006B1C5E2CA6318A269C31003A03195E2CD3
:1038B0000F302000A00020082400E9006908200043
:1038C000A000A101A035A10D223020078400A13065
:1038D000213D8500013F8A00003F0A009C31200005
:1038E000A20022082400E900080024006B10023026
:1038F000FA007A08EA00822CA63164260800A63174
:10390000682608005C08FA007A08F90004304E3E88
:10391000860002308700413F8A00403F0A009C3108
:10392000FB00FC017C08003A0319972C7F2C7B08D4
:10393000023A03197C2C013A03197C2C7F2C0800D5
:103940002400EB15AD2CA63164260800A6313B26D9
:1039500003300800A631682608005A08FA007A08E1
:10396000F9004F088A004E080A009C31FB00FC0158
:103970007C08003A0319BD2CAA2C7B08013A0319D4
:10398000AA2C033A0319A32C013A0319A32C073AD2
:103990000319A62CAA2C080028346E3475346C3414
:1039A0006C3429340034DF345D346134E934E73475
:1039B0005F345F345F340034043455340234663489
:1039C00002346234263447342634463426344534AF
:1039D00026344434263443342634423426344134A5
:1039E000263440340934803431341A3449340034B4
:1039F00048344034BD003908BF003808BE002300F9
:103A0000EB01EC0121003E0884003F088500120014
:103A10000319222DBE30BB003B082000E20021002C
:103A20003A08BC003C082000E30021003D088D312D
:103A3000A8259C3162082300EB07200063082300BF
:103A4000EC3D022D23006C082100B90023006B0817
:103A50002100B8000800BB003B2D3B08372D3B0878
:103A6000403E372D3B08143E372D3B08543EB800EE
:103A70003808BA00512D3708B800B9013908003AA2
:103A80000319432D512D3808003A03192D2D013A01
:103A900003192F2D033A0319322D013A0319352D3D
:103AA000512D8030B8003808BA073A089031792093
:103AB0009D310330890B5A2D00000800A6313826AD
:103AC0009D31FA0065088600660887007A08810043
:103AD0000130E5070030E63D0130E7020030E83B09
:103AE000670868040319782DA631542605300800AC
:103AF000EB15802DA63174260800A631702608002B
:103B00005A08FA007A08F9004F088A004E080A009D
:103B10009D31FB00FC017C08003A0319902D7D2D9E
:103B20007B08013A03197D2D033A03197A2D013AD6
:103B300003197A2D073A03197D2D7D2D0800AE005B
:103B40002A30AD002D08B2000230B0000030B100C4
:103B50002E089D31E6259D31003A0319A82DC1306C
:103B6000A8002730A9003230AD002D08AA00A731E7
:103B700009279D312C30A3000030A4000130A5009E
:103B80000030A60099311B219D3100302000A80093
:103B9000A900AA01A631FD269D31A6317C269D31C2
:103BA0009A3189229D31AD002D08AF002F030319F2
:103BB000D02D2F080319E42DFF30B007FF30B13DA1
:103BC00030083104031DA82D32080800A600A70103
:103BD000A70A24006B192B2E20002608A500250813
:103BE0002400E400EB106B156B100E302000A500D4
:103BF00025082400E900F430E2000130E300EB1571
:103C00002C30CE002630CF00DA012C30D000263008
:103C1000D100DB012C30D2002630D300DC012C3067
:103C2000D4002630D500DD012E30D6002630D70056
:103C3000DE0141302000A3002630A400A631C126B9
:103C40009D31A63144269D31A73130279D31A631C3
:103C50004D262000A7012000270808000030200082
:103C60008C1A0130F4007408F000F101F01BF1032C
:103C700022004608700671040319692E7408031D9A
:103C8000692E7408F0007008C60020000C1A4C2E33
:103C9000FF30F200FF304F2E0130F2000030F30011
:103CA0007208F0007008F400053022004502031885
:103CB0005B2E0310F40D0C3045020318612E031027
:103CC000F40D143045020318672E0310F40DC501DE
:103CD000762E7408F0007008C600F4017F304502AB
:103CE0000318762E0130F0007008C507740808002C
:103CF000FF34FF34FF344734CB344634CB344734BD
:103D0000D7344634D734373407343734063437346D
:103D1000033437340134373400346C3455341134BF
:103D20001F340434A53403344434033404340134DC
:103D3000F23409340134003480343134053427340A
:103D4000DB34263460342B34FE342E3408342034F3
:103D50000134313405344934083460345534603426
:103D600044344734D1344634D134373405343434D0
:103D700001346C3433346C3422346C3400346B349E
:103D800055346B3433342508031D2508031DCC2E10
:103D900023088731FF2708002508043E8600870195
:103DA000160001040319F02E2508043E8600870141
:103DB000403FA600413FA7002508023E860087013C
:103DC000403FA800413FA9002908803AAA002708DF
:103DD000803A2A02031DEE2E260828020318080046
:103DE00020002508023E8600870125088400850101
:103DF000403F0007A6000131413F003DA7002608D3
:103E0000860027088700230881002508023E8600D7
:103E100087010130810741310318810A0800A6316A
:103E20008A269F31003A031D1F2F422FA6315C26A0
:103E30000800A63160260800A631682608005D0843
:103E4000FA007A08F90006304E3E860002308700FC
:103E5000413F8A00403F0A009F31FB00FC017C0883
:103E6000003A0319342F1C2F7B08013A03191C2F29
:103E7000033A0319162F013A0319192F073A0319A8
:103E80001C2F1C2F6B106608FB006508FA00E50A62
:103E90000319E60A7A0886007B0887000108A63124
:103EA00058269F310130E7020030E83B670868047C
:103EB000031D5C2F0630080003300800BB00220001
:103EC0002A1C6B2F20003B08B6003608AB003308D5
:103ED0009B31AF239F312000B51B732F3508BA00EB
:103EE0003408B900752FB901BA01B701B801380813
:103EF000803AB6003A08803A3602031D812F39080D
:103F000037020318952F20302000A3000030A400B2
:103F10003B08B6003608A5009E31C3269F3101300C
:103F20002000B7070030B83D772F22002A18A12FB4
:103F300020003B08B6003608AB0033089B31AF23A6
:103F40009F3120003308A3000230A40099315B2187
:103F500039082307B3003A08243DB4000800A9013A
:103F6000A41FB92FA309A409A30A0319A40AA9012C
:103F7000A90AA61FC42FA509A609A50A0319A60AFE
:103F80000130A7002708A906AA01AB0123082404D1
:103F90000319F32FA801A80AA41BD82F0130A335B9
:103FA000A40D890BCF2F0130A7002708A807CC2F1D
:103FB0000130AA35AB0D890BD92F24082602031D29
:103FC000E32F23082502031CEA2F2308A502240857
:103FD000A63B2A140130A436A30C890BEB2F013029
:103FE000A802031DD82F29080319FB2FAA09AB0922
:103FF000AA0A0319AB0A2B08A4002A08A300080088
:10400000343448347A3420342034003400343834A2
:1040100048347A3420342034003400343134353498
:1040200048347A3420342034003433343034483443
:104030007A342034203400343534393448347A34F6
:1040400020342034003431343134383448347A3434
:104050002034003432343334353448347A34203424
:10406000003434343634333448347A342034003431
:104070004234593450342034203400340034203455
:1040800020343434003400340034003420342034FC
:1040900038340034003400340034203431343534C2
:1040A00000340034003400342034333430340034ED
:1040B00000340034003420343534393400340034D2
:1040C00000340034313431343834003400340034B6
:1040D00000343234333435340034003400340034A6
:1040E00034343634333400340034003400346F3424
:1040F00046344634003400340034003431346E34F5
:10410000703400340034003400344F347534743467
:1041100000340034003400345734413452343A34DB
:104120002534303432345834203425343034323469
:104130005834203425343034323458342034253443
:104140003034323458342034253430343234583416
:1041500025343034323458340034343434342E344A
:1041600031340034003400342034343438340034F2
:104170000034003400342034383438342E343234AF
:104180000034003420343934363400340034003400
:1041900000343134373436340034003400340034E1
:1041A0003134393432340034003400340034433490
:1041B0004F3441345834493441344C3400344F3452
:1041C000503454344934433441344C340034413451
:1041D00044344334203420342034203400344834F0
:1041E00044344D34493420342034203400344934AC
:1041F00032345334203420342034203400344334D7
:104200004F34413400340034003400344F345034DF
:1042100054340034003400340034413464344334C2
:104220000034003400340034483444344D34003415
:104230000034003400343134323453340034003428
:104240000034003480342634A9342634A234263491
:104250000F341F345E341D3490342634A0341C34A3
:104260005C3426346034263464342634683426348E
:104270006C34263470342634743426348534263431
:0442800075341C3441
:104C58000130080005300800961508002400961455
:104C68000800240016150800240011080800200078
:104C7800911508002000911108009C314C2408006F
:104C880020009111080024009512080021009111BC
:104C98000800210091150800240096161616080031
:104CA8002400961216160800F000700891000800FB
:104CB800A631322601300800A6313226023008001B
:104CC800A631322601300800A6313526003008000A
:104CD800A631542605300800A63150260A300800AF
:104CE800A631502609300800163021009700080028
:104CF80000309A311F2208002400EB10EA010E3020
:104D080008002400EB10EA010E3008002400160EFB
:104D1800890C890C0139080024006B10A631302653
:104D280004300800640080010131890B972E00349B
:104D3800FE0012001E00FE0B9D2E003424006B1492
:104D48006435A63158260330080024006B14031478
:104D5800640DA631582605300800320091019201F1
:104D68009301940195019601080024082200AF00E0
:104D7800200023082200AE00080024082200B30007
:104D8800200023082200B200080024009401083003
:104D9800950096014F309200951208005F345F34F9
:104DA8005F340034003400340034003400343200FE
:104DB80099019B019D0106309F009E011C18080067
:104DC800E22EEB1D08007108E6007008E500730884
:104DD800E8007208E700EB1108007608F100750892
:104DE800F0007708F8007808F20000309B31D423EF
:104DF80008002908A4002808A3002A08AB002B08EB
:104E0800A50002309B31FC2308002908A4002808CB
:104E1800A3002A08AB002B08A50000309B31FC2317
:104E28000800013090317920A73107302000B70001
:104E38007D30890B1D2FB70B1D2F0800240831006A
:104E48009200200023083100910015171514000066
:104E580000003100130808002400951A0800940186
:104E6800383095001F309600603097002730920048
:104E7800951608000C3090317920A73103302000B6
:104E8800B7009730890B462FB70B462F0032080022
:104E980020001B1D562F1B1071089A0070089900DE
:104EA8001B14080071089A00700899000800111076
:104EB80022003108F1003008F000A7314C27A73153
:104EC80022002E082F04031908002F088A002E0834
:104ED8000A00A731080001302000A3020030A43BDB
:104EE800230A0319240A031908000B302000A5001F
:104EF8006230890B7D2FA50B7D2F00006F2F3C089A
:104F0800A4003B08A30099315B21A73123083B0784
:104F1800AF0024083C3DB0003E08B2003D08B10097
:104F28009031002008007908F000FF39031D003097
:104F3800F1000230F2000030F300A631E526A73177
:104F48000030F500F600F701A631F126043008001C
:104F58007908F000FF39031D0030F1000130F2003C
:104F68000030F300A631E526A7310030F500F60041
:104F7800F701A631F126043008007908F000FF395E
:104F8800031D0030F1000130F2000030F300A631BB
:104F9800E526A7310030F500F600F701A631F12625
:104FA800023008007908F000FF39031D0030F100D5
:104FB8000230F2000030F300A631E526A7310030B8
:104FC800F500F600F701A631F1260230080079084D
:104FD800F000FF39031D0030F1000230F20000300C
:104FE800F300A631E526A7310030F500F600F701F9
:104FF800A631F126043008004634693472346D3421
:1050080077346134723465343A342034323430348D
:10501800323430344F34433454343134313400343E
:1050280056344F344C343A342534333464342034D1
:10503800423441344C343A342534323464342034E4
:105048002534733400340034FF340034053401341B
:105058000034053400340034053405340034053494
:1050680000340034003449344E3450345534543408
:10507800203400344F345534543450345534543477
:1050880000344134553458343A3425347334203498
:105098004834503446343A34253473340034533465
:1050A8004F3455345234433445343A342534733408
:1050B800003425343034333464340034203420341C
:1050C800203400342E343034203400342E34353437
:1050D8002034003448344C343034003453344F34A2
:1050E800433400344F344634463400344834503462
:1050F80046340034423441344C34003455344F344F
:105108004C34003431343234533400344C34413468
:105118005334003453344534543400342534323451
:105128006434003425343334643400344634413430
:08513800643400342E3400340D
:020000040001F9
:08000E008C3FF23FFF1FFF3F92
:00000001FF
