:020000040000FA
:10000000803125281B1408007E1480310B1F232803
:100010002100111C12282000111C12289B3184235E
:100020008031232821009119200091191D282100D9
:10003000111D23282000111D2328220033088A00C7
:1000400032080A0080317E100900803127281B30D9
:1000500084009E30850048308600013087002030C3
:100060009A31AF2280312E30840090308500A0304C
:100070008600013087002F309A31AF228031A830BE
:1000800084009230850020308600023087004D3099
:100090009A31AF228031FD01EA01EB01EC01210030
:1000A000E601E701E801E901203084000130850024
:1000B00028309A31A9228031CF3084000130850068
:1000C00020309A31A9228031A0308400023085008E
:1000D00049309A31A9227E10200080316F289B314F
:1000E00072238031F430A3000130A4009B319823A7
:1000F00080319D316D258031803102208031210099
:1001000011140B178B178B170B1764302000A300EB
:100110000030A4009B31982380310030A300A4005C
:100120009B3139238031003A0319CB28103020004D
:10013000A9000030AA009230EC002200E800680814
:100140002000AB009E313B2680311130A9000030E9
:10015000AA002100E7012000AB019E313B2680313F
:100160001230A9000030AA0002302100E80022006D
:10017000E80068082000AB009E313B268031133038
:10018000A9000030AA002100E6012000AB019E3149
:100190003B268031FE2810302000A3000030A40050
:1001A0009B31392380312200E80068082000EC00F0
:1001B0001130A3000030A4009B313923803122008C
:1001C000E80068082100E70012302000A30000309A
:1001D000A4009B31392380312200E8006808210007
:1001E000E80013302000A3000030A4009B31392325
:1001F00080312200E80068082100E600973144279A
:1002000080319431992480319431432480319B3161
:10021000552380319B312C238031A0302100C00038
:100220000230C1009530C200A030C3009E317D264F
:100230008031A0302000B7000230B8009C317D240E
:1002400080312030A3000330A4009B3198238031FB
:100250009B311F23803120006C082200E8006808D1
:100260002100E900210067082200E800680820005A
:10027000BA006C089531022580314C302200E8002C
:1002800068082000AC000230AD000030AE006A30DB
:100290009E31E92680314A302200E80068082000BB
:1002A000AC000230AD000030AE006A309E31E9266D
:1002B000803148302200E80068082000AC0002309D
:1002C000AD000030AE006A309E31E9268031210059
:1002D00068088631E92680312200A301A401A50126
:1002E00024302000AF00A130B000883102208031DE
:1002F000E830A3000330A4009B31982380318E3175
:100300006D268031210069082200E800680820007D
:10031000EC006C089631A526803122004503031DB0
:10032000662A210068082200E80068082100E90028
:100330000C302000AF00A130B000883102208031A5
:100340002200C50120302000A3000330A4009B310F
:1003500098238031E830AF00A030B000883102200F
:100360008031C830A3000030A4009B319823803135
:100370002200C50123308600013087004131013061
:100380002200A300C03F2200E80025308600013093
:1003900087006808810022004508031D0F2A0530E8
:1003A0002200E80068082000A300210068089D31B1
:1003B000FB2580312200E900EA0169082000A9003C
:1003C00022006A082000AA000730AB000030AC0011
:1003D0009D318825803152302200EB00A030EC00A6
:1003E0002000290822006B07ED0020002A082200C7
:1003F0006C3DEE006D082000AF0022006E0820006A
:10040000B0008831022080318E316D26803121008C
:1004100069082200E80068082100E800CB29C5012E
:10042000A5302200E80068082000AC000230AD00D2
:100430000030AE006A309E31E92680310030A900DC
:10044000AA00AB019E313B2680311230A90000305A
:10045000AA0005302200E80068082000A30021005F
:1004600068089D31FB2580312200E90069082000E1
:10047000AB009E313B268031210068088631E92699
:1004800080316C082200E80068082100E9002000A3
:100490006C089631A52680312200A301A401A50194
:1004A00020302000AF000230B000883102208031BF
:1004B0004C302200E80068082000AC000230AD009B
:1004C0000030AE006A309E31E926803102302200D1
:1004D0004506031DF62B00302000A900AA00AB0141
:1004E0009E313B26803121006708403E2200E80013
:1004F00068082100E90014302000AF00A130B000EE
:100500008831022080312030A3000330A4009B31C9
:1005100098238031E830AF00A030B000883102204D
:100520008031C830A3000030A4009B319823803173
:100530002330860001308700413101302200A300C2
:10054000C03F2200E800253086000130870068089F
:1005500081002200C50122004508031DD02A353044
:100560002100C0000230C100FF30C200A030C30033
:1005700021006908C03E2100E700C400C501C41B7A
:10058000C5039E317D26803135302000AF0002301A
:10059000B0008831022080318E316D268031AB2A47
:1005A000C50111302000A9000030AA002100670811
:1005B0002200E80068082000AB009E313B26803115
:1005C0002200A301A401A50135302100C0000230A2
:1005D000C100FF30C200A030C3006708C400C501DD
:1005E000C41BC5039E317D26803167082200E800C8
:1005F00068082000BA006C0895310225803135303A
:10060000AF000230B0008831022080317830A30082
:100610000530A4009B319823803121006608220018
:10062000E80068082100E90018302000AF00A13080
:10063000B0008831022080312030A3000330A400B4
:100640009B3198238031E830AF00A030B000883172
:1006500002208031C830A3000030A4009B319823D1
:100660008031233086000130870041310130220083
:10067000A300C03F2200E80025308600013087003B
:10068000680881002200C50122004508031D862B51
:100690002100690801392200E80068082100E6000D
:1006A00035302000AF000230B00021006608220083
:1006B000E800E90168082000A9002200690820007C
:1006C000AA000730AB000030AC009D318825803196
:1006D000CF302200EA009830EB00200029082200E9
:1006E0006A072000B1002A0822006B3D2000B200FA
:1006F0009E31A02680313530AF000230B000883105
:10070000022080318E316D268031442BC50113309B
:100710002000A9000030AA00210066082200E8009D
:1007200068082000AB009E313B2680312200A301E7
:10073000A401A50121006603031DA02B6630A12B97
:1007400064302200E80068082000AC000230AD00F0
:100750000030AE0040309E31E92680313530AF00A8
:100760000230B000210066082200E800E9016808B4
:100770002000A900220069082000AA000730AB0071
:100780000030AC009D3188258031CF302200EA0056
:100790009830EB002000290822006A072000B100F1
:1007A0002A0822006B3D2000B2009E31A026803135
:1007B0003530AF000230B00088310220803178300F
:1007C000A3000530A4009B31982380316C082200DF
:1007D000E80068082100E90020006C089631A52691
:1007E00080318E316D2680312200C50120006C08D9
:1007F000210069060319462C69082200E8006808F0
:100800002000EC006C089631A52680312100670895
:100810002200E80068082000BA006C089531022523
:1008200080318E316D2680312030AF000230B00033
:10083000883102208031462CA930E8006808200069
:10084000AC000230AD000030AE006A309E31E926C7
:100850008031642CA730E80068082000AC0002302A
:10086000AD000030AE006A309E31E9268031642C44
:100870004E30E80068082000AC000230AD000030C7
:10088000AE006A309E31E9268031642C3830220077
:10089000E80068082000AC004030913137218031F9
:1008A0000F392200E900EA016A08003A0319592CBD
:1008B000642C6908083A03191C2C013A03192A2CE4
:1008C000053A0319382C642C2D302200E800680802
:1008D0002000AC00403091313721803195317025B6
:1008E0008031003A03198D298E316D2680314A30CE
:1008F0002200E80068082000AC000230AD000030A3
:10090000AE006A309E31E926803148302200E8008E
:1009100068082000AC000230AD000030AE006A3044
:100920009E31E92680318D29B700200062088600BB
:100930008701403FE400413FE5006408840065080A
:1009400085001200253A031DC42E62088600870127
:100950000130810741310318810A2200A801A90151
:100960002000EA01EB01FF302200AA00FF30AB00BB
:100970002100B301B401D32C6A14620886008701F8
:100980000130810741310318810AD32CEA14BD2CB0
:100990006A15BD2CEA15BD2C6A16BD2C013021004C
:1009A000B3000030B400210033083404031DFE2CD2
:1009B0002000620886008701403FE400413FE500D7
:1009C00064088400650885000008E600E701670800
:1009D000003A0319EC2CCE2C6608203A0319CA2CD5
:1009E000033A0319CC2C083A0319C82C063A031908
:1009F000BC2C1D3A0319C62CCE2CD32C20006A1C0B
:100A0000052DFD30EA05FF30EB0562088600870101
:100A1000403FE400413FE50064088400650885002C
:100A200012002A3A031D342D620886008701013026
:100A3000810741310318810A630886008701010894
:100A40008400850102308107003F2200A800013F99
:100A5000A900A91F792D20006A142200A809A9095C
:100A6000A80A0319A90A792D620886008701403F68
:100A7000AF00413FB0009631062684313008220095
:100A8000A90020002F082200A8004F2D2000620896
:100A9000860087010130810741310318810A200057
:100AA000620886008701403FE400413FE50064089A
:100AB0008400650885000008D03EE600FF3003187A
:100AC0000030E700003067020A300319660203189D
:100AD0006B2D01306C2D0030E800E9016808210021
:100AE000B500200069082100B60035083604031D52
:100AF000462D2000620886008701403FE400413F08
:100B0000E50064088400650885001200643A031952
:100B1000982D620886008701403FE400413FE500D0
:100B200064088400650885001200693A031DE42DFD
:100B30006208860087010130810741310318810A6C
:100B4000630886008701010884008501023081075F
:100B5000003FE400013FE50064082100A000200000
:100B600065082100A100890D893B8909A200A30025
:100B7000A400A500A600A70020082000BE002100B8
:100B800021082000BF00210022082000C000210011
:100B900023082000C100210024082000C2002100F9
:100BA00025082000C300210026082000C4002100E1
:100BB00027082000C500210037088B31D0233F08CB
:100BC000E3003E08E2000800620886008701403F1B
:100BD000E400413FE50064088400650885001200D8
:100BE000733A031D182E62088600870101308107C1
:100BF00041310318810A63088600870101088400D7
:100C0000850102308107003F2100B000013FB100A3
:100C100031082000AC00210030082000AB0021008A
:100C2000370889313A212C08E3002B08E20008003C
:100C3000620886008701403FE400413FE500640808
:100C40008400650885001200783A0319362E620880
:100C500086008701403FE400413FE50064088400CE
:100C6000650885001200583A031D902E6208860020
:100C70008701403FE400413FE500640884006508C7
:100C800085000008E60066082100B2002000620826
:100C9000860087010130810741310318810A63080A
:100CA0008600870101088400850102308107003F2A
:100CB0002100A800013FA900AA01AB01AC01AD01D0
:100CC000AE01AF0128082000BC0021002908200047
:100CD000BD0021002A082000BE0021002B082000B2
:100CE000BF0021002C082000C00021002D0820009A
:100CF000C10021002E082000C20021002F08200082
:100D0000C300210032082000E4006408C400210070
:100D100037088D311A253D08E3003C08E200080041
:100D2000620886008701403FE400413FE500640817
:100D30008400650885001200253A031DB92E62085B
:100D4000860087010130810741310318810A25306F
:100D5000A3000030A400210037082000E40064084C
:100D6000A5009231102201302000E2000030E300A3
:100D700008006208860087010130810741310318AD
:100D8000810AE201E3010800620886008701403F12
:100D9000E400413FE5006408840065088500000820
:100DA000E600E7016608A3006708A40021003708F1
:100DB0002000E8006808A50092311022843120004C
:100DC0006208860087010130810741310318810ADA
:100DD000B32E2000B300BD2F6230B0003008AC004D
:100DE0000230AD000030AE0040309E31E926863141
:100DF000CB30B0003008AC000230AD000030AE00A7
:100E000040309E31E92686315230B0003008AC00C7
:100E10000230AD000030AE0040309E31E926863110
:100E20005830B0003008AC000230AD000030AE00E9
:100E300040309E31E9268631DD2F6230B000300827
:100E4000AC000230AD000030AE0040309E31E926EB
:100E500086315430B0003008AC000230AD000030B4
:100E6000AE0040309E31E92686315230B000300865
:100E7000AC000230AD000030AE0040309E31E926BB
:100E800086315830B0003008AC000230AD00003080
:100E9000AE0040309E31E9268631DD2F6030B00053
:100EA0003008AC000230AD000030AE0040309E3162
:100EB000E92686315030B0003008AC000230AD0079
:100EC0000030AE0040309E31E92686315630B00009
:100ED0003008AC000230AD000030AE0040309E3132
:100EE000E9268631DD2F5E30B0003008AC000230DC
:100EF000AD000030AE0040309E31E9268631C3306F
:100F0000B0003008AC000230AD000030AE00403020
:100F10009E31E9268631CD30B0003008AC00023079
:100F2000AD000030AE0040309E31E9268631DD2F25
:100F30005C30B0003008AC000230AD000030AE00D4
:100F400040309E31E9268631C130B0003008AC0017
:100F50000230AD000030AE0040309E31E9268631CF
:100F60005A30B0003008AC000230AD000030AE00A6
:100F700040309E31E9268631DD2F0530B000300843
:100F8000A30033089D31FB258631B100B201320840
:100F9000003A0319CC2FDD2F3108003A0319EC2E4B
:100FA000013A03191D2F033A03194E2F013A031971
:100FB000732F073A0319982FDD2F0530A300003057
:100FC000A4009B31982386314A30B0003008AC0031
:100FD0000230AD000030AE006A309E31E926863125
:100FE0004830B0003008AC000230AD000030AE0038
:100FF0006A309E31E926080000309D3153250800F3
:10100000053008003008B3002F08B2003208840011
:10101000330885000008B10031082400B500013014
:101020002000B2070030B33D320884003308850049
:1010300012002E3A031D27287F30B100310823000B
:10104000A00001302000B2070030B33D2C28FF3053
:10105000B10031082300A0002000320884003308CA
:1010600085000008B1003630860002308700310864
:1010700081000130B2070030B33D320884003308EC
:10108000850012002E3A031D5028A1308600013041
:1010900087007F3081000130B2070030B33D562811
:1010A000A130860001308700FF30810032088400C3
:1010B000330885000008B100373086000230870011
:1010C000310881000130B2070030B33D320884009E
:1010D0003308850012002E3A031D7528A2308600C1
:1010E000013087007F3081000800A2308600013087
:1010F0008700FF3081000800B3280C11C0302002A7
:10110000031884280C1485280C10240035089C3101
:1011100092248831230020059C280C10C030210225
:10112000031894288C1495288C10240036089C31C0
:10113000922488312300210520008E00C7288C10BE
:10114000C03020020318A6280C15A7280C11240073
:1011500037089C31922488312300220520008E001C
:101160002200C001C7284008C00AF500F601760831
:10117000003A0319BC28B0287508003A03197D28E5
:10118000013A03198D28033A03199F28B028913199
:10119000C6218831F5007508FD007D08803A7F3E44
:1011A000031CE828F83021006902031CE3286908C1
:1011B0007D07F500EE3075020318F428FF30F500C6
:1011C0007508E900F4287D08F5007508E907F4289A
:1011D0000830210069020318E32869087D07F5003B
:1011E000123075020318E901220023080319FD28B3
:1011F0002308F5007508A007FE28A001240803199C
:1012000006292408F5007508A1070729A10125086A
:1012100003190F292508F5007508A2071029A20156
:1012200020008C1D202922003F0803191D293F089A
:10123000F5007508C500BF010800AC01AD0108004C
:1012400001302200AC070030AD3D00302D020B30E4
:1012500003192C02031C0800BF01BF0A01302D0234
:10126000F53003192C02031C08000230F500750844
:10127000BF0008002000BB00293086000230870034
:1012800030308400003085000730AD0016001A00B1
:10129000AD0B46292C08BD002B08BC003C083D04C2
:1012A000031D56293030BC000030BD003D08A400AD
:1012B0003C08A3009C31A82489312408C1002308DC
:1012C000C00022002B082000BF0022002A082000B6
:1012D000BE00BF1B7C293F08803AAD004108803A20
:1012E0002D02031D752940083E0203187C292000A9
:1012F0003F08C1003E08C00020004108BF00400870
:10130000BE00220029082000BA0022002808200080
:10131000B9006A1C9D29A92920302000A3000030B3
:10132000A4003B08AD002D08A500923110228931A0
:1013300001302000C0070030C13D4108803AAD00B7
:101340003A08803A2D02031DA72939084002031CE0
:101350008C292000B701B8013808803AAD003F0859
:10136000803A2D02031DB6293E0837020318D529FD
:1013700020003C0884003D0885000008AD00AE0157
:101380002D08A3002E08A4003B08AF002F08A500DD
:1013900092311022893101302000BC070030BD3D60
:1013A0000130B7070030B83DAC2920006A18EA299F
:1013B000F62920302000A3000030A4003B08AD0037
:1013C0002D08A50092311022893101302000C0077C
:1013D0000030C13D4108803AAD003A08803A2D0204
:1013E000031DF42939084002031CD92920004108B3
:1013F000AC004008AB000800B5012B30860000307F
:101400008700473FB300B31F272A2000AB09AC0970
:10141000AD09AE09AF09B009B109B209AB0A031DA4
:10142000242AAC0A031D242AAD0A031D242AAE0A6D
:10143000031D242AAF0A031D242AB00A031D242AEF
:10144000B10A031D242AB20A2000B501B50A2330CF
:10145000860000308700473F2000B300B31F4F2AAB
:101460002000A309A409A509A609A709A809A90993
:10147000AA09A30A031D4F2AA40A031D4F2AA50A7D
:10148000031D4F2AA60A031D4F2AA70A031D4F2A30
:10149000A80A031D4F2AA90A031D4F2AAA0A2000E1
:1014A00023082404250426042704280429042A04E4
:1014B0000319A72AB401B40AAA1B6B2AA335A40DE9
:1014C000A50DA60DA70DA80DA90DAA0D0130B300FD
:1014D0003308B4075C2A2A083202031D892A290826
:1014E0003102031D892A28083002031D892A270892
:1014F0002F02031D892A26082E02031D892A25088A
:101500002D02031D892A24082C02031D892A230881
:101510002B02031C9B2A2308AB022408AC3B2508A2
:10152000AD3B2608AE3B2708AF3B2808B03B290857
:10153000B13B2A08B23BAA36A90CA80CA70CA60CF2
:10154000A50CA40CA30C0130B402031D6B2A3508B2
:101550000319C82AAB09AC09AD09AE09AF09B00936
:10156000B109B209AB0A031DC82AAC0A031DC82A77
:10157000AD0A031DC82AAE0A031DC82AAF0A031DFF
:10158000C82AB00A031DC82AB10A031DC82AB20A14
:1015900020002B08A3002C08A4002D08A5002E086D
:1015A000A6002F08A7003008A8003108A9003208BB
:1015B000AA000800B5012330860000308700473FAD
:1015C000B300B31F052B2000A309A409A509A60990
:1015D000A709A809A909AA09A30A031D022BA40A9D
:1015E000031D022BA50A031D022BA60A031D022BB5
:1015F000A70A031D022BA80A031D022BA90A031D1B
:10160000022BAA0A2000B501B50A2B308600003053
:101610008700473F2000B300B31F322B2000AB09E7
:10162000AC09AD09AE09AF09B009B109B209AB0AFD
:10163000031D2D2BAC0A031D2D2BAD0A031D2D2BD5
:10164000AE0A031D2D2BAF0A031D2D2BB00A031D5F
:101650002D2BB10A031D2D2BB20A01302000B3003F
:101660003308B50636308600003087000830200089
:10167000B30000301E00B30B3A2B230824042504CA
:1016800026042704280429042A0403199D2BB401E5
:10169000B40AAA1B582BA335A40DA50DA60DA70DA2
:1016A000A80DA90DAA0D0130B3003308B407492BCA
:1016B000B635B70DB80DB90DBA0DBB0DBC0DBD0DCE
:1016C0002A083202031D7E2B29083102031D7E2BBE
:1016D00028083002031D7E2B27082F02031D7E2BB6
:1016E00026082E02031D7E2B25082D02031D7E2BAE
:1016F00024082C02031D7E2B23082B02031C912B94
:101700002308AB022408AC3B2508AD3B2608AE3BC2
:101710002708AF3B2808B03B2908B13B2A08B23B59
:101720003614AA36A90CA80CA70CA60CA50CA40C60
:10173000A30C0130B402031D582B35080319BE2B2E
:10174000B609B709B809B909BA09BB09BC09BD0985
:10175000B60A031DBE2BB70A031DBE2BB80A031D14
:10176000BE2BB90A031DBE2BBA0A031DBE2BBB0A32
:10177000031DBE2BBC0A031DBE2BBD0A200036086C
:10178000A3003708A4003808A5003908A6003A08C5
:10179000A7003B08A8003C08A9003D08AA000800D3
:1017A0002000C9003E08D2003F08D3004008D40002
:1017B0004108D5004208D6004308D7004408D800A5
:1017C0004508D9005230860000308700473FC600E8
:1017D000C61FEC2B0130ED2B00302000C700C801E4
:1017E0004708D0004808D100500851040319162CAE
:1017F000D209D309D409D509D609D709D809D909F5
:10180000D20A031D162CD30A031D162CD40A031D5D
:10181000162CD50A031D162CD60A031D162CD70A22
:10182000031D162CD80A031D162CD90A2200AB1B47
:101830001E2CFD302000EA05FF30EB0522002B08AE
:10184000803A2000C60080304602031D2A2C013059
:1018500022002A020318322C01302000CC00003074
:10186000CD003A2C22002B082000CD0022002A08AF
:101870002000CC00220029082000CF0022002808E8
:101880002000CE0050085104031D482C6A1D4C2C2A
:10189000FF30CE07FF30CF3D1F30DA000030DB00D5
:1018A0002500E801DF2C200052085304540455049D
:1018B0005604570458045904031D782C4D08803AE7
:1018C000C60080304602031D672C01304C0203180D
:1018D000782C20004F08803AC60080304602031D55
:1018E000732C01304E02031CEB2C2000EA1CEB2C65
:1018F000FF302000DA07FF30DB3D0A30A300A401EF
:10190000A501A601A701A801A901AA015208AB00DF
:101910005308AC005408AD005508AE005608AF009F
:101920005708B0005808B1005908B2008931FC21AD
:101930008B312408B7002308B6009C31D7248B31A3
:1019400020003608303EC6005A08C93E86000230E4
:10195000870046088100FF30CC07FF30CD3DFF30C7
:10196000CE07FF30CF3D0A30A300A401A501A60198
:10197000A701A801A901AA015208AB005308AC00B5
:101980005408AD005508AE005608AF005708B00027
:101990005808B1005908B2008A31DA228B31230885
:1019A000D2002408D3002508D4002608D500270833
:1019B000D6002808D7002908D8002A08D900200016
:1019C0005B08803AC60080304602031DE92C0130D6
:1019D0005A020318532C200050085104031DF22C06
:1019E0006A1D092DFF30DA07FF30DB3D5008510436
:1019F000031DFC2C2B30FD2C2D30CA000030CB00F9
:101A00004A08C6005A08C93E8600023087004608C8
:101A100081005A08C93EC6004608B3004F08B50009
:101A20004E08B400490892315C223408BF003308E4
:101A3000BE0008002000CD002200AB1B242DFD308D
:101A40002000EA05FF30EB0522002B08803A200039
:101A5000C50080304502031D302D013022002A02CE
:101A60000318382D01302000D2000030D300402D63
:101A700022002B082000D30022002A082000D200D8
:101A8000220029082000D500220028082000D400C8
:101A90006A1E4E2DFE30D407FF30D53D3C08D600DF
:101AA0003D08D7003E08D8003F08D9004008DA00BA
:101AB0004108DB004208DC004308DD001F30DE0087
:101AC0000030DF002500E8010E2EFF302000DE0789
:101AD000FF30DF3D0F305605E00000305705E100D4
:101AE0006108803AC50080304502031D792D0A3017
:101AF0006002031C7F2D20006008573E822D2000CD
:101B00006008303EE0000030613DE1004408BF3E27
:101B1000C500FF3003180030C600003046021A30FE
:101B2000031945020318962D0130972D0030C70088
:101B3000C8014708CE004808CF004E084F040319DB
:101B4000CC2D20306004C50000306104C60045087B
:101B50009F3EC700FF30463DC800003048021A30A3
:101B6000031947020318B62D0130B72D0030C90004
:101B7000CA014908D0004A08D1005008510403198D
:101B8000CC2D6108AA006008A9009E315C268D3129
:101B90002A08E1002908E0006008C5005E08C93E87
:101BA00086000230870045088100FF30D207FF30F1
:101BB000D33DFF30D407FF30D53D5630860000308E
:101BC0008700403FC500413FC600423FC700433F3A
:101BD000C800443FC900453FCA00463FCB00473FCD
:101BE000CC0004302000CC36CB0CCA0CC90CC80C7D
:101BF000C70CC60CC50C890BF22D20004C08DD006B
:101C00004B08DC004A08DB004908DA004808D90024
:101C10004708D8004608D7004508D60020005F08CE
:101C2000803AC50080304502031D182E02305E0246
:101C3000031C3F2E200056085704580459045A0428
:101C40005B045C045D04031D652D5308803AC500E8
:101C500080304502031D2E2E013052020318652DDF
:101C600020005508803AC50080304502031D3A2EF9
:101C700001305402031C3F2E2000EA18652D20007D
:101C80006A1E5C2EFF30DE07FF30DF3D4408C500D2
:101C90005E08C93E86000230870045088100FF309B
:101CA000DE07FF30DF3D3030C5005E08C93E8600EC
:101CB00002308700450881005E08C93EC50045081E
:101CC000B3005508B5005408B4004D0892315C22A9
:101CD0003408BD003308BC0008002000B701003004
:101CE00090318E208E31A0302100C0000230C10022
:101CF000F530C200A030C3000530DA005A082000D9
:101D0000A300210068089D31FB258E312100DB00F6
:101D1000DC01DB35DC0DDB35DC0DDB35DC0D2A30A1
:101D2000DD00A030DE005B085D07C4005C085E3D9E
:101D3000C5009E317D268E31A0302000B7000230D4
:101D4000B8009C317D248E31B701B70A0030903144
:101D50008E208E310130210066052000A900AA01E5
:101D60000730AB000030AC009D3188258E31CC307F
:101D70002100DA00A030DB002000290821005A07EA
:101D80002600A70020002A0821005B3D2600A800AD
:101D9000A0302100C0000230C100DA30C200A03003
:101DA000C300260028082100C500260027082100BE
:101DB000C400CC30C600A030C7009E317D268E31D5
:101DC000A0302000B7000230B8009C317D248E3155
:101DD00038302100DA005A082000AC004030913140
:101DE00037218E312100DB005B082600A000023085
:101DF0002100DA005A082000B700003090318E2010
:101E00008E31260020080F392100DA00DB015A0844
:101E10002000A90021005B082000AA000730AB00C9
:101E20000030AC009D3188258E3100302100DC006F
:101E30009830DD002000290821005C072600A7005B
:101E400020002A0821005D3D2600A800A0302100C6
:101E5000C0000230C100A930C200A030C300200081
:101E60006C082100DA00DB015A08C4005B08C500D9
:101E7000210067082100C600C701C61BC703260052
:101E800028082100C900260027082100C8009E312B
:101E90007D268E31A0302000B7000230B8009C3182
:101EA0007D248E3110302100DA005A082000AC0069
:101EB0006A30913137218E312100DB005B0826002A
:101EC000A10013302100DA005A082000AC006A306B
:101ED000913137218E312100DB005B082600A30001
:101EE00024302100DA005A082000AC006A30913119
:101EF00037218E312100DB005B082600A40025304D
:101F00002100DA005A082000AC006A3091313721F4
:101F10008E312100DB005B082600A5001230210075
:101F2000DA005A082000AC006A30913137218E3136
:101F30002100DB005B082600A20011302100DA003E
:101F40005A082000AC006A30913137218E312100CF
:101F5000DB005B082600A60003302100DA005A08E7
:101F60002000B700003090318E208E31A03021004B
:101F7000C0000230C100DD30C2009830C30026002E
:101F800021082100DA00DB015A08C4005B08C50003
:101F9000260022082100DC00DD015C08C6005D0887
:101FA000C700260023082100DE00DF015E08C8000C
:101FB0005F08C900260024082100E000E101600854
:101FC000CA006108CB00260025082100E200E301D9
:101FD0006208CC006308CD00260026082100E4003A
:101FE000E5016408CE006508CF009E317D268E3164
:101FF000A0302000B7000230B8009C317D240800DA
:10200000013008002300EC150F289A3176220800D1
:102010009A314E22033008009A317A2208005B0878
:10202000FA007A08F90050088A004F080A00903137
:10203000FB00FC017C08003A03191F280C287B08D0
:10204000013A03190C28033A03190528013A031928
:102050000528073A031908280C280800FF34FF3424
:10206000FF3411341F340434A534033444340334AE
:10207000043401347234093401340034803431348E
:1020800005342734DB34263460342B34FE342E34CC
:102090000834203401343134053449340834603490
:1020A0005534603444344734D1344634D134373431
:1020B0000534343401346C343334BD003908BF0086
:1020C0003808BE002200A601A70121003E088400B6
:1020D0003F088500120003198528BE30BB003B086D
:1020E0002000E20021003A08BC003C082000E30088
:1020F00021003D0884319424903162082200A60713
:10210000200063082200A73D65282200270821003F
:10211000B900220026082100B8000800BB009E2854
:102120003B089A283B08403E9A283B08143E9A28D0
:102130003B08543EB8003808BA00B4283708B80045
:10214000B9013908003A0319A628B4283808003A1A
:1021500003199028013A03199228033A0319952884
:10216000013A03199828B4288030B8003808BA0713
:102170003A089331ED2390310330890BBD280000DC
:10218000080022008C0180308D008E013830210043
:102190008C0070308D008E0123008E018D018C012A
:1021A000F03024008D0038308C008E0125008C0129
:1021B000D0308D008E01383026008C00F0308D003C
:1021C000FF308E003F3027008C00F0308D00FF3054
:1021D0008E000E303C00A00018303D009E001930EB
:1021E0009C000C303C00A10008009A314B22903139
:1021F000FA00230066088600670887007A088100D5
:102200000130E6070030E73D0130E8020030E93BED
:1022100068086904031910299A316A2205300800F8
:10222000EC1518299A31862208009A31822208007A
:102230005B08FA007A08F90050088A004F080A0083
:102240009131FB00FC017C08003A0319282915296B
:102250007B08013A03191529033A03191229013A97
:1022600003191229073A0319152915290800AE0088
:102270002A30AD002D08B2000230B0000030B100AD
:102280002E0891317E219131003A03194029EA301C
:10229000A8001B30A9003230AD002D08AA009B31E8
:1022A000132391312C30A3000030A4000130A5008D
:1022B0000030A6009C316824913100302000A80035
:1022C000A900AA019B31072391318731FC27913165
:1022D0009D31A3259131AD002D08AF002F030319C7
:1022E00068292F0803197C29FF30B007FF30B13D62
:1022F00030083104031D402932080800A600A70158
:10230000A70A23006C19C32920002608A500250868
:102310002300E500EC106C156C100E302000A500B9
:1023200025082300EA00F430E3000130E400EC1556
:102330000030CF001030D000DB010030D100103071
:10234000D200DC010030D3001030D400DD010030B9
:10235000D5001030D600DE010030D7000830D8009C
:10236000DF0154302000A3001A30A4009A31D42297
:1023700091319A31572291319B31472391319A31D2
:1023800063222000A7012000270808000030200059
:102390008C1A0130F4007408F000F101F01BF10315
:1023A00022004208700671040319012A7408031DF3
:1023B000012A7408F0007008C20020000C1AE429F9
:1023C000FF30F200FF30E7290130F2000030F30067
:1023D0007208F0007008F400053022004102031872
:1023E000F3290310F40D0C3041020318F9290310EE
:1023F000F40D143041020318FF290310F40DC1013C
:102400000E2A7408F0007008C200F4017F30410207
:1024100003180E2A0130F0007008C1077408080084
:102420002508031D2508031D192A23089A31412276
:1024300008002508043E86008701160001040319E0
:102440003D2A2508043E86008701403FA600413F03
:10245000A7002508023E86008701403FA800413FB3
:10246000A9002908803AAA002708803A2A02031DF9
:102470003B2A260828020318080020002508023EEF
:1024800086008701250884008501403F0007A600DB
:102490000131413F003DA70026088600270887003C
:1024A000230881002508023E86008701013081074C
:1024B00041310318810A0800BB006A1C672A3B08E7
:1024C000B6003608AB0033089F310E279231B51B9A
:1024D0006E2A3508BA003408B900702AB901BA0169
:1024E000B701B8013808803AB6003A08803A360297
:1024F000031D7C2A390837020318902A2030200057
:10250000A3000030A4003B08B6003608A5009231B5
:102510001022923101302000B7070030B83D722AF6
:1025200020006A189B2A3B08B6003608AB00330827
:102530009F310E2792313308A3000230A4009C3152
:10254000A82439082307B3003A08243DB400080042
:102550005F345F345F3400340034003400340034BE
:10256000003428346E3475346C346C3429340034BF
:10257000CB34543460345E345C345F345F345F3465
:102580000034043455340234663402346234263460
:1025900047342634463426344534263444342634ED
:1025A0004334263442342634413426344034013412
:1025B000F2340934803431341A3449340034483424
:1025C00040344734CB344634CB344734D7344634A4
:1025D000D734373407343734063437340334373498
:1025E0000134373400346C345534A901A41FFF2A58
:1025F000A309A409A30A0319A40AA901A90AA61FE9
:102600000A2BA509A609A50A0319A60A0130A700E5
:102610002708A906AA01AB01230824040319392BB2
:10262000A801A80AA41B1E2B0130A335A40D890BF9
:10263000152B0130A7002708A807122B0130AA3557
:10264000AB0D890B1F2B24082602031D292B230801
:102650002502031C302B2308A5022408A63B2A14BC
:102660000130A436A30C890B312B0130A802031DC5
:102670001E2B29080319412BAA09AB09AA0A031921
:10268000AB0A2B08A4002A08A30008009A319D2257
:102690009331003A031D562B7A2B9A316E22080093
:1026A0009A31722208009A317A22080023005E08CB
:1026B000FA007A08F9000630CF3E86000130870024
:1026C000413F8A00403F0A009331FB00FC017C0837
:1026D000003A03196C2B532B7B08013A0319532B37
:1026E000033A03194D2B013A0319502B073A0319EA
:1026F000532B532B23006C106708FB006608FA006D
:10270000E60A0319E70A7A0886007B0887000108B1
:102710009A318E22933101302300E8020030E93BE8
:1027200068086904031D962B063008000330080072
:10273000B2003208F0390938B0003008B500350869
:102740000438B0003008B3003208B0000330B035B0
:10275000FF3E031DA72B3035F0390938B100310891
:10276000B60036080438B0003008B4003330B0008A
:102770003008AC000130AD000030AE0025309E3195
:10278000C4269331000035302000B0003008AC0082
:102790000130AD000030AE0025309E31C4269331AB
:1027A000000034302000B0003008AC000130AD0033
:1027B0000030AE0025309E31C42693310000363003
:1027C0002000B0003008AC000130AD000030AE0099
:1027D00025309E31C426000008002000B2003208D7
:1027E000F0390838B0003008B50035080438B000BA
:1027F0003008B3003208B0000330B035FF3E031D8F
:10280000FD2B3035F0390838B1003108B6003608F4
:102810000438B0003008B4003330B0003008AC00E9
:102820000130AD000030AE0025309E31C42693311A
:10283000000035302000B0003008AC000130AD00A1
:102840000030AE0025309E31C42693310000343074
:102850002000B0003008AC000130AD000030AE0008
:1028600025309E31C4269331000036302000B00060
:102870003008AC000130AD000030AE0025309E3194
:10288000C4260000080082302000B700DD30890B2C
:10289000472CB70B472C003230309F3183279431BF
:1028A00007302000B7007D30890B542CB70B542C17
:1028B00030309F31832794314230890B5D2C0032B8
:1028C00030309F31832794312130890B652C0000F3
:1028D00020309F31832794312130890B6D2C0000EB
:1028E00028309331ED2394312130890B752C000071
:1028F0000C309331ED2394312130890B7D2C000075
:1029000001309331ED23943107302000B7007D3042
:10291000890B882CB70B882C06309331ED2394312A
:1029200007302000B7007D30890B942CB70B942C16
:102930000800AF30B0003008AC000230AD0000300D
:10294000AE006A309E31E92694310530A300003094
:10295000A4009B3198239431ED30B0003008AC00D6
:102960000230AD000030AE006A309E31E92694316D
:10297000AD30B0003008AC000230AD000030AE0029
:102980006A309E31E92694314E30B0003008AC00F8
:102990000230AD000030AE006A309E31E92694313D
:1029A000AB30B0003008AC000230AD000030AE00FB
:1029B0006A309E31E9269431A330B0003008AC0073
:1029C0000230AD000030AE006A309E31E92694310D
:1029D0004A30B0003008AC000230AD000030AE002C
:1029E0006A309E31E92694314830B0003008AC009E
:1029F0000230AD000030AE006A309E31E926220080
:102A00008D170800BC00BA1F3F2D0530BB003B08E6
:102A10002200C60020003C08BB003B082200C70083
:102A200046302000BB003B08AC000230AD00003057
:102A3000AE006A309E31E92695310630BB003B0876
:102A40002200C60020003A08B600B701B61BB70343
:102A50009C31D7249531200036083C02BB003B084E
:102A60002200C70046302000BB003B08AC0002300B
:102A7000AD000030AE006A309E31E9260800053016
:102A8000BB003B082200C60020003A083C02BB0005
:102A90003B082200C70046302000BB003B08AC00CA
:102AA0000230AD000030AE006A309E31E92695312B
:102AB0000630BB003B082200C60020003C08BB00DB
:102AC0003B082200C70046302000BB003B08AC009A
:102AD0000230AD000030AE006A309E31E9260800B9
:102AE0001030B3003308AC006A3091313721953192
:102AF000B40034082200BA0013302000B3003308B9
:102B0000AC006A30913137219531B400340822008D
:102B1000B80024302000B3003308AC006A30913193
:102B200037219531B40034082200B7002530200049
:102B3000B3003308AC006A30913137219531B400CD
:102B400034082200B60012302000B3003308AC0075
:102B50006A30913137219531B40034082200B90030
:102B600011302000B3003308AC006A3091313721B6
:102B70009531B40034082200B50035082000B300B8
:102B8000B401220036082000B500B6012200370843
:102B90002000B700B801220038082000B900BA01AF
:102BA00022003A0839072000BB00BC01BC0D3908DF
:102BB0003B07BD003A083C3DBE0037083D07BF005B
:102BC00038083E3DC00035083F07C1003608403D8B
:102BD000C20033084107C3003408423DC40022004C
:102BE0003B08200043064404031DF82D0030080074
:102BF00022003A083907380737073607350720001B
:102C0000B30033082200BB0001300800BC01BD0145
:102C1000B501B601BB01BB0A2F088400300885004E
:102C20001200203A0319262E2F0884003008850050
:102C30000008F73EB100FF3003180030B20000304A
:102C400032020530031931020318BB013B08B10001
:102C5000B2013108B7003208B80037083804031948
:102C60003B2E0130AF070030B03D0A2E0130B500D9
:102C70000030B6006D2E2F08840030088500000853
:102C8000B100B2013208003A0319472E712E310803
:102C90002B3A03196D2E063A0319362E712E2F0882
:102CA0008400300885000008B1003D08AA003C08F7
:102CB000A9000A30AB000030AC009D318825963168
:102CC0002A08B30031082902B200031CB3033208FA
:102CD000303EBC000030333DBD000130AF07003056
:102CE000B03D2F088400300885000008D03EB100B8
:102CF000FF3003180030B200003032020A300319EE
:102D000031020318852E0130862E0030B300B40145
:102D10003308B9003408BA0039083A04031D4F2EAD
:102D200035083604031DA02E3C09B1003D09B20050
:102D3000B10A0319B20A3108AF003208B000080026
:102D40003D08B0003C08AF0008002100DB0009305E
:102D50005B020318B82E20302000AF000230B00014
:102D60001030B100A130B2009E31A02696313C2F28
:102D7000BB305B02031C042F02302000A300003094
:102D8000A40021005B08313E2000A500FF3003189D
:102D90000030A6009231F522963123082100DA0096
:102DA0005A082200BE0020302100C0000230C100BD
:102DB0001C30C200A130C30022003E082100C40024
:102DC000C501C41BC5039E317D269631CE305B06FE
:102DD000031DEF2E2D30DA005A082400A000210038
:102DE0005B1CFB2E20302000BB000230BC000430F6
:102DF000BD00A130382F20302000BB000230BC00C5
:102E00000830BD00A130382F02302000A300003070
:102E1000A40021005B08313E2000A500FF3003180C
:102E20000030A6009231F522963123082100DA0005
:102E30005A082200BE0020302100C0000230C1002C
:102E40002030C200A130C30022003E082100C4008F
:102E5000C501C41BC5039E317D2696315B183C2FEE
:102E600020302000BB000230BC002830BD00A13063
:102E7000BE009B31AC23963120302000AF000230E1
:102E8000B000883102200800BB302000B0003008BC
:102E9000AC000230AD000030AE0040309E31E9267B
:102EA0009731B530B0003008AC000230AD000030D2
:102EB000AE0040309E31E9269731B330B000300883
:102EC000AC000230AD000030AE0040309E31E9264B
:102ED0009731B930B0003008AC000230AD0000309E
:102EE000AE0040309E31E9269731B730B00030084F
:102EF000AC000230AD000030AE0040309E31E9261B
:102F00009731B130B0003008AC000230AD00003075
:102F1000AE0040309E31E926973121006603031D43
:102F2000932F6630942F64302000B0003008AC003E
:102F30000230AD000030AE0040309E31E9269731BE
:102F4000BD30B0003008AC000230AD000030AE0043
:102F500040309E31E9269731BF30B0003008AC00D8
:102F60000230AD000030AE0040309E31E92697318E
:102F7000C730B0003008AC000230AD000030AE0009
:102F800040309E31E9269731C530B0003008AC00A2
:102F90000230AD000030AE0040309E31E92697315E
:102FA0006030B0003008AC000230AD000030AE0040
:102FB00040309E31E92697315430B0003008AC00E3
:102FC0000230AD000030AE0040309E31E92697312E
:102FD0005030B0003008AC000230AD000030AE0020
:102FE00040309E31E9269731C930B0003008AC003E
:102FF0000230AD000030AE0040309E31E9260800BE
:1030000055344E344C344B340034003400342034C6
:10301000203438346B3400340034003420343134FC
:1030200031346B34003400340034203431343234E1
:103030006B340034003400342034313436346B3493
:103040000034003400342034323432346B340034F1
:10305000003400342034323434346B3400340034DF
:1030600000342034333432346B34003400340034D0
:10307000343434342E3431346B340034003420345E
:10308000343438346B340034003400342034363473
:1030900034346B34003400340034383438342E3453
:1030A00032346B34003400342034393436346B34E9
:1030B0000034003400343134323438346B3400346A
:1030C000003400343134373436346B340034003457
:1030D00000343134393432346B3400340034003449
:1030E000FF34F934FF34FF34FF349C34FF34FF34B1
:1030F000FF34FF34FF34FF34FF34BF347F34CF3428
:10310000C034F934A434B034993492348234F8346D
:1031100080349034F634B634FF34B734FF34FF349F
:10312000A03488348334C634A13486348E34C23417
:103130008934CF34E1348734C734C834AB34C03435
:103140008C34983488349234CE34C134C1348134D0
:1031500089349134E434C634FF34F034BC34F73469
:10316000DE34A0348334A734A13486348E349034D2
:103170008B34FB34F1348734C734C834AB34A334D4
:103180008C349834AF3492348734E334E33481346C
:1031900089349134E434FF34FF34FF34FE34313465
:1031A0006E34703400340034003400344F347534DD
:1031B0007434003400340034003457344134523411
:1031C0003A342534303432345834203425343034D1
:1031D00032345834203425343034323458342034A6
:1031E00025343034323458342034253430343234B9
:0C31F00058342534303432345834003464
:1034820008002400961408002400161508002400E1
:103492009615080024001108080020009115080064
:1034A2002000911108009F31AB27080020009111E4
:1034B2000800240095120800210091110800240040
:1034C20016140800210091150800240096161616FD
:1034D200080024009612161608009A314222013082
:1034E20008009A314222023008009A314222013009
:1034F20008009A314522003008009A316A220530CC
:1035020008009A3166220A3008009A316622093090
:1035120008001630210097000800F000700824000F
:10352200910008002300EC10EB010E30080023008C
:10353200EC10EB010E3008002400160E890C890CE9
:103542000139080023006C109A3148220430080027
:10355200640080010131890BAA2A0034FE001200A6
:103562001E00FE0BB02A003423006C1465359A311C
:103572008E220330080023006C140314650D9A3167
:103582008E220530080032009101920193019401CC
:1035920095019601080024082200AF0020002308AC
:1035A2002200AE00080024082200B30020002308F5
:1035B2002200B20008002400940108309500960110
:1035C2004F30920095120800320099019B019D0133
:1035D20006309F009E011C180800EC2AEC1D080012
:1035E2007108E7007008E6007308E9007208E80055
:1035F200EC1108007608F1007508F0007708F80071
:103602007808F20000309F31332708002908A4000F
:103612002808A3002A08AB002B08A50002309F311E
:103622005B2708002908A4002808A3002A08AB0089
:103632002B08A50000309F315B2708000130933131
:10364200ED239B3107302000B7007D30890B272BFB
:10365200B70B272B080002309331ED239B31073043
:103662002000B7007D30890B342BB70B342B0800B8
:103672002408310092002000230831009100151720
:103682001514000000003100130808002400951AE8
:1036920008009401383095001F3096006030970082
:1036A20027309200951608000C309331ED239B31A0
:1036B20003302000B7009730890B5D2BB70B5D2BD1
:1036C2000032080020001B1D6D2B1B1071089A0090
:1036D200700899001B14080071089A00700899007C
:1036E20008009A31C4229B319A31DC229B319031FD
:1036F200C1209B319A31E5229B319A318A229B313A
:103702009D316D250800111022003108F1003008AA
:10371200F0009B3163239B3122002E082F040319F2
:1037220008002F088A002E080A009B310800013089
:103732002000A3020030A43B230A0319240A031920
:1037420008000B302000A5006230890BA62BA50BC8
:10375200A62B0000982B3C08A4003B08A3009C3138
:10376200A8249B3123083B07AF0024083C3DB0004E
:103772003E08B2003D08B1009E31A026080079083B
:10378200F000FF39031D0030F1000230F20000307A
:10379200F3009A31EF229B310030F500F600F70179
:1037A2009A31FB22043008007908F000FF39031D2A
:1037B2000030F1000130F2000030F3009A31EF22C4
:1037C2009B310030F500F600F7019A31FB220430FC
:1037D20008007908F000FF39031D0030F1000130C4
:1037E200F2000030F3009A31EF229B310030F500F5
:1037F200F600F7019A31FB22023008007908F00046
:10380200FF39031D0030F1000230F2000030F300F6
:103812009A31EF229B310030F500F600F7019A3120
:10382200FB22023008007908F000FF39031D003046
:10383200F1000230F2000030F3009A31EF229C31A5
:103842000030F500F600F7019A31FB22043008003F
:103852007908F000FF39031D0030F1000130F20059
:103862000030F3009A31EF229C310030F500F6006F
:10387200F7019A31FB22023008007908F000FF3983
:10388200031D0030F1000230F2000030F3009A31E3
:10389200EF229C310030F500F600F7019A31FB224D
:1038A200023008007908F000FF39031D0030F100F2
:1038B2000130F2000030F3009A31EF229C310030E7
:1038C200F500F600F7019A31FB22043008002300CC
:1038D200EC1D0800200024082300E7002000230834
:1038E2002300E600200026082300E9002000250826
:1038F2002300E800EC11080037088600380887002A
:1039020001080319080037088600380887000108F3
:10391200933198239C3101302000B7070030B83D25
:103922007D2CF20020307202031CA22C2030F20205
:103932007208703E840098300318013E850000082A
:10394200A32CFF30F0007008F10071080800240871
:10395200A7002308A600230884002408850012007B
:103962000319B82C0130A3070030A43DAC2C260863
:103972002302A3002708243BA400080020002308F8
:10398200D03EA500FF30243DA600003026020A30BA
:10399200031925020318CF2C0130D02C0030A700C8
:1039A200A8012708A3002808A40008003708803AC5
:1039B200B80080303802031DE02C013036020318B3
:1039C200080020003609B8003709B900B80A0319FF
:1039D200B90A3808B6003908B700080020002308E1
:1039E200BF3EA500FF30243DA600003026021A305B
:1039F200031925020318FF2C0130002D0030A70007
:103A0200A8012708A3002808A40008002000230812
:103A12009F3EA500FF30243DA600003026021A304A
:103A2200031925020318172D0130182D0030A700A5
:103A3200A8012708A3002808A40008007908023E6C
:103A4200860087010108F0000030F1007908860045
:103A52008701403FF200413FF3009A31EF229D314E
:103A62000030F500F600F7019A31FB22023008001F
:103A72007908023E860087010108F0000030F1005B
:103A8200790886008701403FF200413FF3009A31F6
:103A9200EF229D310030F500F600F7019A31FB224A
:103AA20002300800A400A501A50A2300EC186A2D23
:103AB200EC142000A50124080319632D2300EA0158
:103AC200EA0A682D0230A30023082300EA009A3193
:103AD200602220002508080020009C01BD309A00C9
:103AE200DC30990011101A082200B10020001908D8
:103AF2002200B000210011147C302000A300083005
:103B0200A4009A31CC22013020009B000800AD01B4
:103B1200AE01291C902D2B08AD072C08AE3D0130BB
:103B2200AB35AC0D890B912D0130AA36A90C890B4E
:103B3200962D29082A04031D8A2D2E08AA002D0875
:103B4200A9000800A401A40A2300EC18BD2D6C11E1
:103B5200FF302000A30023082300E5009A315722FA
:103B62009D319A315D229D319A315A2223006B0890
:103B72002000A3002308A40020002408080020003D
:103B8200A701A70A2030230624040319D52D2308F0
:103B9200F73EA500FF30243DA60000302602053086
:103BA200031925020318A7012708A500A601250865
:103BB200A3002608A4000800203020002304A5004A
:103BC20000302404A60025089F3EA700FF30263DB2
:103BD200A800003028021A30031927020318F32D17
:103BE2000130F42D0030A900AA012908A3002A08F7
:103BF200A40008002000A6000830A4002408A700A2
:103C0200A8012608A4000730A436890B052E283502
:103C12002404A5002508A8000310A60D23082802E5
:103C2200031C152E2308A8020130A702031D022E31
:103C32002808080021340834213488340434053437
:103C42000334843460342234603411343434003424
:103C52006C3422346C3411346C3400346B3455348B
:103C62006B3433346B3422346B3411346F3400349C
:103C72006F34083400308B1B0130AC002A0831004D
:103C82009200200029083100910020002B08310009
:103C92009300151715158B1355309600AA30960010
:103CA20095149518522E151120002C0C031C8B1301
:103CB20003188B17080029089F3EAB00FF302A3DEE
:103CC200AC0000302C021A3003192B0203186B2EA1
:103CD20001306C2E0030AD00AE012D08AF002E0871
:103CE200B0002F083004031908005F302905A9002D
:103CF20000302A05AA000800C430D0005008D300C2
:103D02004108D5004008D400D601D701D801D90115
:103D12004308B9004208B800D330D0005008BA00B6
:103D2200D43090315D200230D43E86008701403F7E
:103D320040078400413F413D850080010800320870
:103D4200B8003108B7003008BA002F08B9003A08A5
:103D5200B4003908B300B90A0319BA0A3308860055
:103D6200340887003808B6003708B500B70A0319C7
:103D7200B80A35088400360885000008C03F890863
:103D820003190800A82EAF002F0891317E219E3121
:103D9200003A0319C52E2C08A3000030A4002E08F7
:103DA200A6002D08A5009C3168249E310030200019
:103DB200A800A900AA019B3107239E318731FC2765
:103DC2009E319D31A3259E31013A031D0800E22E4A
:103DD200AF002F0891317E219E31003A0319EA2E5D
:103DE2002C08A3000130A4002E08A6002D08A5006F
:103DF2009C3168249E3100302000A800A900AA014D
:103E02009B3107239E318731FC279E319D31A325AB
:103E12009E31013A031D0800072FB200B001B10123
:103E220030083207AC002C088600023087000108F7
:103E3200AD002D08AF002F08031908002F08AC00B1
:103E4200AD012C08A3002D08A4002B08AE002E08FB
:103E5200A500923110229F3101302000B0070030BE
:103E6200B13D112FF4007008710403194B2F743502
:103E7200CF3E8600013087007008C03F7108C13F05
:103E82007208F3007408DB3E860001308700730875
:103E9200810008007435CF3E860001308700003073
:103EA200C03F1030C13F7408DB3E860001308700FE
:103EB20081010800A700230824040319732F273562
:103EC200CF3E8600013087002308C03F2408C13F4F
:103ED2002508A6002708DB3E860001308700260859
:103EE200810008002735CF3E860001308700003070
:103EF200C03F1030C13F2708DB3E860001308700FB
:103F0200810108002000B1003108F0390838B00002
:103F12003008B30033080438B0003008B200323041
:103F2200B0003008AC000130AD000030AE002530EA
:103F32009E31C4269F31000033302000B00030088B
:103F4200AC000130AD000030AE0025309E31C426F9
:103F5200000008009A3151229F3123006C1CBD2FB2
:103F62009A319D229F31003A0319BD2F0F30200054
:103F7200A00020082300EA0023006A082000A00015
:103F8200A101A035A10D753020078400A030213D8C
:103F92008500013F8A00003F0A009F312000A200F5
:103FA20022082300EA00080023006C100230FA0005
:103FB2007A08EB00E22F9A31762208009A317A22AF
:103FC20008005D08FA007A08F9000430CF3E860046
:103FD20001308700413F8A00403F0A009F31FB00C9
:103FE200FC017C08003A0319F72FDF2F7B08023A05
:103FF2000319DC2F013A0319DC2FDF2F08003434B8
:1040020034342E3431340034003400342034343427
:104012003834003400340034003420343834383436
:104022002E343234003400342034393436340034FF
:104032000034003400343134373436340034003440
:104042000034003431343934323400340034003432
:10405200003443344F3441345834493441344C34BD
:1040620000344F34503454344934433441344C34A2
:104072000034413444344334203420342034203456
:104082000034483444344D3449342034203420340C
:104092000034493432345334203420342034203430
:1040A200003443344F34413400340034003400349B
:1040B2004F3450345434003400340034003441342A
:1040C200643443340034003400340034483444341B
:1040D2004D3400340034003400343134323453343B
:1040E200003400340034003493341A34BC341A34AB
:1040F200B5341A3446341334F5341034A3341A3434
:10410200023410346E341A3472341A3476341A3457
:104112007A341A347E341A3482341A3486341A3495
:1041220098341A34D5341F344634693472346D34B9
:1041320077346134723465343A3420343234303472
:10414200323430344F344334543431343134003423
:1041520056344F344C343A342534333464342034B6
:10416200423441344C343A342534323464342034C9
:104172002534733400340034FF3400340534013400
:104182000034053400340034053405340034053479
:1041920000340034003449344E34503455345434ED
:1041A200203400344F34553454345034553454345C
:1041B20000344134553458343A342534733420347D
:1041C2004834503446343A342534733400341B3482
:1041D2002434423421342134213421342134213411
:1041E2001B3428344234003453344F34553452345F
:1041F200433445343A34253473340034253430346E
:104202003334643400342E343034203400342E34C9
:1042120035342034003453344F34433400344F3473
:10422200463446340034423441344C340034313460
:104232003234533400342534323464340034253477
:1042420033346434003446344134643400342E341C
:02425200003436
:020000040001F9
:08000E008C3FF23FFF1FFF3F92
:00000001FF
