:020000040000FA
:1000000080312528181408007E1480310B1F232806
:100010002100111C12282000111C12289B31BB2327
:100020008031232821009219200092191D282100D7
:10003000911D23282000911D232822002F088A00CB
:100040002E080A0080317E10090080312728F53003
:1000500084009E30850044308600013087002430C3
:100060009B31102380318A30840090308500A0308D
:100070008600013087002F309B3110238031EE3015
:10008000840091308500203086000230870049309E
:100090009B3110238031FD01EA01EB01EC012100CD
:1000A000E601E701E801E901203084000130850024
:1000B00024309B310A238031CF3084000130850009
:1000C00020309B310A238031A0308400023085002B
:1000D00049309B310A237E10200080316F288831FF
:1000E00004208031F430A3000130A4009B31CF23E1
:1000F00080319D31BE258031803102208031210048
:1001000011140B178B178B170B1764302000A300EB
:100110000030A4009B31CF23803100309B31772306
:100120008031003A0319BD2892302000EC002200F3
:10013000E80068082000A90010309E316C2680314C
:100140002100E7012000A90111309E316C26803189
:1001500002302100E8002200E80068082000A90021
:1001600012309E316C2680312100E6012000A90169
:1001700013309E316C268031E12810309B3177237B
:1001800080312200E80068082000EC0011309B312B
:10019000772380312200E80068082100E700123050
:1001A0009B31772380312200E80068082100E800B5
:1001B00013309B31772380312200E800680821004A
:1001C000E6009731442780319431BD248031943149
:1001D000672480319B319E2380319B319123803174
:1001E000A0302100C0000230C1008530C20099302B
:1001F000C3009E31AE268031A0302000B70002300F
:10020000B8009C31B42480312030A3000330A40016
:100210009B31CF2380319B318423803120006C08B7
:100220002200E80068082100E90021006708220098
:10023000E80068082000BA006C0895312625803156
:1002400048302200E80068082000AC000230AD0011
:100250000030AE006A309F313E27803146302200A8
:10026000E80068082000AC000230AD000030AE00AD
:100270006A309F313E27803144302200E800680810
:100280002000AC000230AD000030AE006A309F317B
:100290003E278031210068088C31072480312200FC
:1002A000A301A401A50122302000AF009A30B000C4
:1002B000953194258031E830A3000330A4009B31B0
:1002C000CF2380318E316D268031210069082200D4
:1002D000E80068082000EC006C08883113208031A9
:1002E00022004103031D442A210068082200E8007F
:1002F00068082100E9000A302000AF009A30B00001
:100300009531942580312200C10120302000A300C6
:100310000330A4009B31CF238031E630AF00993009
:10032000B000953194258031C830A3000030A4007E
:100330009B31CF2380312200C10123308600013060
:100340008700413101302200A300C03F2200E800B5
:1003500025308600013087006808810022004108AE
:10036000031DF22905302200E80068082000A300E0
:10037000210068089E314C2680312200E900EA0104
:1003800069082000A90022006A082000AA0007309E
:10039000AB000030AC009D31D925803121302200E6
:1003A000EB009930EC002000290822006B07ED00DB
:1003B00020002A0822006C3DEE006D082000AF00EE
:1003C00022006E082000B0009531942580318E31D6
:1003D0006D268031210069082200E80068082100AC
:1003E000E800AE29C101A9302200E8006808200019
:1003F000AC000230AD000030AE006A309F313E27C5
:100400008031A90100309E316C26803105302200F8
:10041000E80068082000A300210068089E314C26EF
:1004200080312200E90069082000A90012309E31C5
:100430006C268031210068088C31072480316C08DB
:100440002200E80068082100E90020006C088831DB
:10045000132080312200A301A401A5012030200037
:10046000AF000230B0009531942580314830220031
:10047000E80068082000AC000230AD000030AE009B
:100480006A309F313E278031023022004106031D31
:10049000CA2B2000A90100309E316C26803121003A
:1004A0006708403E2200E80068082100E900123099
:1004B0002000AF009A30B000953194258031203073
:1004C000A3000330A4009B31CF238031E630AF007E
:1004D0009930B000953194258031C830A3000030A8
:1004E000A4009B31CF238031233086000130870068
:1004F000413101302200A300C03F2200E800253036
:10050000860001308700680881002200C1012200B6
:100510004108031DAC2A35302100C0000230C10063
:10052000FD30C2009930C30021006908C03E21009F
:10053000E700C400C501C41BC5039E31AE2680314F
:1005400035302000AF000230B00095319425803165
:100550008E316D268031872AC10121006708220073
:10056000E80068082000A90011309E316C26803117
:100570002200A301A401A50135302100C0000230F2
:10058000C100FD30C2009930C3006708C400C50136
:10059000C41BC5039E31AE26803167082200E800E7
:1005A00068082000BA006C08953126258031353066
:1005B000AF000230B0009531942580317830A3002F
:1005C0000530A4009B31CF23803121006608220032
:1005D000E80068082100E90016302000AF009A30DA
:1005E000B0009531942580312030A3000330A40061
:1005F0009B31CF238031E630AF009930B000953188
:1006000094258031C830A3000030A4009B31CF2353
:1006100080312330860001308700413101302200D3
:10062000A300C03F2200E80025308600013087008B
:10063000680881002200C10122004108031D5E2BD1
:100640002100690801392200E80068082100E6005D
:1006500035302000AF000230B000210066082200D3
:10066000E800E90168082000A900220069082000CC
:10067000AA000730AB000030AC009D31D925803195
:10068000CA302200EA009930EB002000290822003D
:100690006A072000B1002A0822006B3D2000B2004A
:1006A0009E31D12680313530AF000230B000953117
:1006B000942580318E316D2680311C2BC1012100A3
:1006C00066082200E80068082000A90013309E3167
:1006D0006C2680312200A301A401A501210066033C
:1006E000031D742B6630752B64302200E800680807
:1006F0002000AC000230AD000030AE0040309F3131
:100700003E2780313530AF000230B000210066084E
:100710002200E800E90168082000A9002200690819
:100720002000AA000730AB000030AC009D31D92575
:100730008031CA302200EA009930EB0020002908FD
:1007400022006A072000B1002A0822006B3D200029
:10075000B2009E31D12680313530AF000230B0007A
:100760009531942580317830A3000530A4009B3169
:10077000CF2380316C082200E80068082100E900DE
:1007800020006C088831132080318E316D26803135
:100790002200C10120006C082100690603191A2CEF
:1007A00069082200E80068082000EC006C08883125
:1007B00013208031210067082200E800680820002B
:1007C000BA006C089531262580318E316D26803136
:1007D0002030AF000230B0009531942580311A2CC2
:1007E000AD30E80068082000AC000230AD000030F9
:1007F000AE006A309F313E278031382CAB30E800A4
:1008000068082000AC000230AD000030AE006A3055
:100810009F313E278031382C4A30E800680820009C
:10082000AC000230AD000030AE006A309F313E2790
:100830008031382C38302200E80068082000AC00F5
:10084000403091315F2180310F392200E900EA0107
:100850006A08003A03192D2C382C6908083A031944
:10086000F02B013A0319FE2B053A03190C2C382CF6
:1008700096310E268031003A031970298E316D268B
:10088000803146302200E80068082000AC000230C9
:10089000AD000030AE006A309F313E2780314430D9
:1008A0002200E80068082000AC000230AD000030F3
:1008B000AE006A309F313E2780317029B70020009A
:1008C000620886008701403FE400413FE50064087C
:1008D0008400650885001200253A031D8E2E6208EB
:1008E000860087010130810741310318810A220007
:1008F000A801A9012000EA01EB01FF302200AA00B3
:10090000FF30AB002100B301B4019D2C6A146208D2
:10091000860087010130810741310318810A9D2C2F
:10092000EA14872C6A15872CEA15872C6A16872CFF
:1009300001302100B3000030B4002100330834043A
:10094000031DC82C2000620886008701403FE40098
:10095000413FE50064088400650885000008E60062
:10096000E7016708003A0319B62C982C6608203A6C
:100970000319942C033A0319962C083A0319922C64
:10098000063A0319862C1D3A0319902C982C9D2C9D
:1009900020006A1CCF2CFD30EA05FF30EB05620811
:1009A00086008701403FE400413FE5006408840081
:1009B0006508850012002A3A031DFE2C6208860095
:1009C00087010130810741310318810A63088600DD
:1009D000870101088400850102308107003F220061
:1009E000A800013FA900A91F432D20006A1422007E
:1009F000A809A909A80A0319A90A432D62088600B3
:100A00008701403FAF00413FB0009631A5268431B9
:100A100030082200A90020002F082200A800192D6C
:100A200020006208860087010130810741310318E8
:100A3000810A2000620886008701403FE400413FB0
:100A4000E50064088400650885000008D03EE600E3
:100A5000FF3003180030E700003067020A30031946
:100A600066020318352D0130362D0030E800E9010B
:100A700068082100B500200069082100B60035088B
:100A80003604031D102D2000620886008701403FB8
:100A9000E400413FE5006408840065088500120019
:100AA000643A0319622D620886008701403FE40022
:100AB000413FE50064088400650885001200693A3A
:100AC000031DAE2D62088600870101308107413188
:100AD0000318810A630886008701010884008501E4
:100AE00002308107003FE400013FE5006408210077
:100AF000A000200065082100A100890D893B89091B
:100B0000A200A300A400A500A600A70020082000C2
:100B1000BE00210021082000BF0021002208200083
:100B2000C000210023082000C1002100240820006B
:100B3000C200210025082000C30021002608200053
:100B4000C400210027082000C50021003708863195
:100B5000B3263F08E3003E08E20008006208860072
:100B60008701403FE400413FE500640884006508D8
:100B700085001200733A031DE22D6208860087018A
:100B80000130810741310318810A6308860087011B
:100B900001088400850102308107003F2100B00078
:100BA000013FB10031082000AC00210030082000D6
:100BB000AB0021003708893171212C08E3002B0894
:100BC000E2000800620886008701403FE400413FE0
:100BD000E50064088400650885001200783A03196E
:100BE000002E620886008701403FE400413FE50097
:100BF00064088400650885001200583A031D5A2EC7
:100C0000620886008701403FE400413FE500640838
:100C10008400650885000008E60066082100B2002F
:100C200020006208860087010130810741310318E6
:100C3000810A63088600870101088400850102306B
:100C40008107003F2100A800013FA900AA01AB01D4
:100C5000AC01AD01AE01AF0128082000BC002100AD
:100C600029082000BD0021002A082000BE00210024
:100C70002B082000BF0021002C082000C00021000C
:100C80002D082000C10021002E082000C2002100F4
:100C90002F082000C300210032082000E40064086F
:100CA000C400210037088D311A253D08E3003C08B7
:100CB000E2000800620886008701403FE400413FEF
:100CC000E50064088400650885001200253A031DCC
:100CD000832E6208860087010130810741310318A5
:100CE000810A2530A3000030A4002100370820002D
:100CF000E4006408A5009231812201302000E20066
:100D00000030E30008006208860087010130810797
:100D100041310318810AE201E301080062088600FC
:100D20008701403FE400413FE50064088400650816
:100D300085000008E600E7016608A3006708A40034
:100D4000210037082000E8006808A50092318122C0
:100D5000843120006208860087010130810741311B
:100D60000318810A7D2E2000C9003E08D2003F08EA
:100D7000D3004008D4004108D5004208D6004308FB
:100D8000D7004408D8004508D9005230860000300A
:100D90008700473FC600C61FCF2E0130D02E00303F
:100DA0002000C700C8014708D0004808D1005008FB
:100DB00051040319F92ED209D309D409D509D6094A
:100DC000D709D809D909D20A031DF92ED30A031D60
:100DD000F92ED40A031DF92ED50A031DF92ED60AC1
:100DE000031DF92ED70A031DF92ED80A031DF92E6B
:100DF000D90A2200AB1B012FFD302000EA05FF308D
:100E0000EB0522002B08803A2000C6008030460205
:100E1000031D0D2F013022002A020318152F013067
:100E20002000CC000030CD001D2F22002B08200018
:100E3000CD0022002A082000CC0022002908200032
:100E4000CF00220028082000CE0050085104031DC6
:100E50002B2F6A1D2F2FFF30CE07FF30CF3D1F30C5
:100E6000DA000030DB002500E801C22F2000520824
:100E70005304540455045604570458045904031DDC
:100E80005B2F4D08803AC60080304602031D4A2F72
:100E900001304C0203185B2F20004F08803AC60037
:100EA00080304602031D562F01304E02031CCE2F08
:100EB0002000EA1CCE2FFF302000DA07FF30DB3D98
:100EC0000A30A300A401A501A601A701A801A90158
:100ED000AA015208AB005308AC005408AD005508F5
:100EE000AE005608AF005708B0005808B1005908C6
:100EF000B2008A31332286312408B7002308B600B5
:100F00009D310E25863120003608303EC6005A0835
:100F1000C93E86000230870046088100FF30CC07BA
:100F2000FF30CD3DFF30CE07FF30CF3D0A30A3006C
:100F3000A401A501A601A701A801A901AA015208BF
:100F4000AB005308AC005408AD005508AE0056087D
:100F5000AF005708B0005808B1005908B2008B31F3
:100F6000112386312308D2002408D3002508D40099
:100F70002608D5002708D6002808D7002908D80059
:100F80002A08D90020005B08803AC600803046025B
:100F9000031DCC2F01305A020318362F20005008B1
:100FA0005104031DD52F6A1DEC2FFF30DA07FF30E7
:100FB000DB3D50085104031DDF2F2B30E02F2D3077
:100FC000CA000030CB004A08C6005A08C93E860055
:100FD00002308700460881005A08C93EC60046080C
:100FE000B3004F08B5004E08B40049089231CD2235
:100FF0003408BF003308BE00080021009115080026
:1010000000309D31A42508009031002088319D31A9
:101010008A2588319B311D2388319A31EB22883112
:101020009D31BE2508002100DB0009305B0203185A
:10103000262820302000AF000230B0000E30B10072
:101040009A30B2009E31D1268831AA28BB305B028B
:10105000031C722802302000A3000030A4002100ED
:101060005B08313E2000A500FF3003180030A600C9
:1010700093311923883123082100DA005A0822000D
:10108000BA0020302100C0000230C1001A30C20076
:101090009A30C30022003A082100C400C501C41BD5
:1010A000C5039E31AE268831CE305B06031D5D2818
:1010B0002D30DA005A082400A00021005B1C6928AA
:1010C00020302000BB000230BC000230BD009A304E
:1010D000A62820302000BB000230BC000630BD0036
:1010E0009A30A62802302000A3000030A40021007E
:1010F0005B08313E2000A500FF3003180030A60039
:1011000093311923883123082100DA005A0822007C
:10111000BA0020302100C0000230C1001E30C200E1
:101120009A30C30022003A082100C400C501C41B44
:10113000C5039E31AE2688315B18AA2820302000D6
:10114000BB000230BC002630BD009A30BE009B318F
:10115000E323883120302000AF000230B000953109
:1011600094250800E9280C11C03020020318BA2881
:101170000C14BB280C10240035089C31C92488317C
:1011800023002005D2280C10C03021020318CA28E1
:101190008C14CB288C10240036089C31C92488314B
:1011A0002300210520008E00FE288C10C030200274
:1011B0000318DC280C15DD280C11240037089C319D
:1011C000C92488312300220520008E002200BC01A2
:1011D000FE2822003C08BC0AF500F6017608003A19
:1011E0000319F328E6287508003A0319B328013AD1
:1011F0000319C328033A0319D528E6289231372268
:101200008831F5007508FD007D08803A7F3E031C9B
:101210001F29F83021006902031C1A2969087D077B
:10122000F500EE30750203182B29FF30F500750824
:10123000E9002B297D08F5007508E9072B290830FE
:101240002100690203181A2969087D07F500123088
:1012500075020318E9012200230803193429230821
:10126000F5007508A0073529A001240803193D29B8
:101270002408F5007508A1073E29A10125080319D6
:1012800046292508F5007508A2074729A201200074
:101290008C1D572922003B08031954293B08F500EF
:1012A0007508C100BB010800AC01AD0108000130A8
:1012B0002200AC070030AD3D00302D020B30031989
:1012C0002C02031C0800BB01BB0A01302D02F530C3
:1012D00003192C02031C08000230F5007508BB003E
:1012E00008002000BB002930860002308700303023
:1012F0008400003085000730AD0016001A00AD0BE9
:101300007D292C08BD002B08BC003C083D04031DB2
:101310008D293030BC000030BD003D08A4003C08E1
:10132000A3009C31DF2489312408C1002308C000B8
:1013300022002B082000BF0022002A082000BE0047
:10134000BF1BB3293F08803AAD004108803A2D0207
:10135000031DAC2940083E020318B32920003F08B2
:10136000C1003E08C00020004108BF004008BE0088
:10137000220029082000BA00220028082000B90015
:101380006A1CD429E02920302000A3000030A400EA
:101390003B08AD002D08A500923181228931013032
:1013A0002000C0070030C13D4108803AAD003A0836
:1013B000803A2D02031DDE2939084002031CC3298F
:1013C0002000B701B8013808803AAD003F08803AE4
:1013D0002D02031DED293E08370203180C2A2000B8
:1013E0003C0884003D0885000008AD00AE012D08D2
:1013F000A3002E08A4003B08AF002F08A5009231DF
:101400008122893101302000BC070030BD3D013010
:10141000B7070030B83DE32920006A18212A2D2A99
:1014200020302000A3000030A4003B08AD002D08B0
:10143000A50092318122893101302000C00700309F
:10144000C13D4108803AAD003A08803A2D02031DA3
:101450002B2A39084002031C102A20004108AC0046
:101460004008AB000800B5012B3086000030870033
:10147000473FB300B31F5E2A2000AB09AC09AD099A
:10148000AE09AF09B009B109B209AB0A031D5B2A65
:10149000AC0A031D5B2AAD0A031D5B2AAE0A031DBD
:1014A0005B2AAF0A031D5B2AB00A031D5B2AB10A3F
:1014B000031D5B2AB20A2000B501B50A233086005D
:1014C00000308700473F2000B300B31F862A20006A
:1014D000A309A409A509A609A709A809A909AA0990
:1014E000A30A031D862AA40A031D862AA50A031D32
:1014F000862AA60A031D862AA70A031D862AA80A89
:10150000031D862AA90A031D862AAA0A2000230889
:101510002404250426042704280429042A04031982
:10152000DE2AB401B40AAA1BA22AA335A40DA50D74
:10153000A60DA70DA80DA90DAA0D0130B300330803
:10154000B407932A2A083202031DC02A290831024F
:10155000031DC02A28083002031DC02A27082F02B5
:10156000031DC02A26082E02031DC02A25082D02AD
:10157000031DC02A24082C02031DC02A23082B02A5
:10158000031CD22A2308AB022408AC3B2508AD3B40
:101590002608AE3B2708AF3B2808B03B2908B13BE3
:1015A0002A08B23BAA36A90CA80CA70CA60CA50CBD
:1015B000A40CA30C0130B402031DA22A35080319A0
:1015C000FF2AAB09AC09AD09AE09AF09B009B109F1
:1015D000B209AB0A031DFF2AAC0A031DFF2AAD0A9C
:1015E000031DFF2AAE0A031DFF2AAF0A031DFF2AAF
:1015F000B00A031DFF2AB10A031DFF2AB20A200008
:101600002B08A3002C08A4002D08A5002E08A60076
:101610002F08A7003008A8003108A9003208AA0046
:101620000800B5012330860000308700473FB30033
:10163000B31F3C2B2000A309A409A509A609A709EB
:10164000A809A909AA09A30A031D392BA40A031D85
:10165000392BA50A031D392BA60A031D392BA70A0E
:10166000031D392BA80A031D392BA90A031D392B89
:10167000AA0A2000B501B50A2B3086000030870089
:10168000473F2000B300B31F692B2000AB09AC0912
:10169000AD09AE09AF09B009B109B209AB0A031D22
:1016A000642BAC0A031D642BAD0A031D642BAE0A28
:1016B000031D642BAF0A031D642BB00A031D642BAA
:1016C000B10A031D642BB20A01302000B3003308B5
:1016D000B506363086000030870008302000B300A1
:1016E00000301E00B30B712B2308240425042604AC
:1016F0002704280429042A040319D42BB401B40AAA
:10170000AA1B8F2BA335A40DA50DA60DA70DA80D03
:10171000A90DAA0D0130B3003308B407802BB635EC
:10172000B70DB80DB90DBA0DBB0DBC0DBD0D2A0816
:101730003202031DB52B29083102031DB52B2808E1
:101740003002031DB52B27082F02031DB52B2608D9
:101750002E02031DB52B25082D02031DB52B2408D1
:101760002C02031DB52B23082B02031CC82B2308B6
:10177000AB022408AC3B2508AD3B2608AE3B27084E
:10178000AF3B2808B03B2908B13B2A08B23B3614CE
:10179000AA36A90CA80CA70CA60CA50CA40CA30C8B
:1017A0000130B402031D8F2B35080319F52BB60940
:1017B000B709B809B909BA09BB09BC09BD09B60A14
:1017C000031DF52BB70A031DF52BB80A031DF52BD6
:1017D000B90A031DF52BBA0A031DF52BBB0A031D1D
:1017E000F52BBC0A031DF52BBD0A20003608A3000B
:1017F0003708A4003808A5003908A6003A08A70051
:101800003B08A8003C08A9003D08AA0008002000E9
:10181000B300DB2C6230B0003008AC000230AD0009
:101820000030AE0040309F313E278C315030B00048
:101830003008AC000230AD000030AE0040309F31C7
:101840003E278C314E30B0003008AC000230AD0085
:101850000030AE0040309F313E278C315830B00010
:101860003008AC000230AD000030AE0040309F3197
:101870003E278C31FB2C6230B0003008AC000230C7
:10188000AD000030AE0040309F313E278C315230E9
:10189000B0003008AC000230AD000030AE00403087
:1018A0009F313E278C314E30B0003008AC00023002
:1018B000AD000030AE0040309F313E278C315830B3
:1018C000B0003008AC000230AD000030AE00403057
:1018D0009F313E278C31FB2C6030B0003008AC00CB
:1018E0000230AD000030AE0040309F313E278C31D9
:1018F0004C30B0003008AC000230AD000030AE001B
:1019000040309F313E278C315630B0003008AC005B
:101910000230AD000030AE0040309F313E278C31A8
:10192000FB2C5E30B0003008AC000230AD0000305F
:10193000AE0040309F313E278C31C730B0003008B8
:10194000AC000230AD000030AE0040309F313E2789
:101950008C315430B0003008AC000230AD000030A3
:10196000AE0040309F313E278C31FB2C5C30B00004
:101970003008AC000230AD000030AE0040309F3186
:101980003E278C31C530B0003008AC000230AD00CD
:101990000030AE0040309F313E278C315A30B000CD
:1019A0003008AC000230AD000030AE0040309F3156
:1019B0003E278C31FB2C0530B0003008A3003308E3
:1019C0009E314C268C31B100B2013208003A031925
:1019D000EA2CFB2C3108003A03190A2C013A0319AE
:1019E0003B2C033A03196C2C013A0319912C073A4A
:1019F0000319B62CFB2C0530A3000030A4009B314A
:101A0000CF238C314630B0003008AC000230AD003E
:101A10000030AE006A309F313E278C314430B00038
:101A20003008AC000230AD000030AE006A309F31AB
:101A30003E2708002000CD002200AB1B242DFD30E6
:101A40002000EA05FF30EB0522002B08803A200039
:101A5000C50080304502031D302D013022002A02CE
:101A60000318382D01302000D2000030D300402D63
:101A700022002B082000D30022002A082000D200D8
:101A8000220029082000D500220028082000D400C8
:101A90006A1E4E2DFE30D407FF30D53D3C08D600DF
:101AA0003D08D7003E08D8003F08D9004008DA00BA
:101AB0004108DB004208DC004308DD001F30DE0087
:101AC0000030DF002500E8010E2EFF302000DE0789
:101AD000FF30DF3D0F305605E00000305705E100D4
:101AE0006108803AC50080304502031D792D0A3017
:101AF0006002031C7F2D20006008573E822D2000CD
:101B00006008303EE0000030613DE1004408BF3E27
:101B1000C500FF3003180030C600003046021A30FE
:101B2000031945020318962D0130972D0030C70088
:101B3000C8014708CE004808CF004E084F040319DB
:101B4000CC2D20306004C50000306104C60045087B
:101B50009F3EC700FF30463DC800003048021A30A3
:101B6000031947020318B62D0130B72D0030C90004
:101B7000CA014908D0004A08D1005008510403198D
:101B8000CC2D6108AA006008A9009E318D268D31F8
:101B90002A08E1002908E0006008C5005E08C93E87
:101BA00086000230870045088100FF30D207FF30F1
:101BB000D33DFF30D407FF30D53D5630860000308E
:101BC0008700403FC500413FC600423FC700433F3A
:101BD000C800443FC900453FCA00463FCB00473FCD
:101BE000CC0004302000CC36CB0CCA0CC90CC80C7D
:101BF000C70CC60CC50C890BF22D20004C08DD006B
:101C00004B08DC004A08DB004908DA004808D90024
:101C10004708D8004608D7004508D60020005F08CE
:101C2000803AC50080304502031D182E02305E0246
:101C3000031C3F2E200056085704580459045A0428
:101C40005B045C045D04031D652D5308803AC500E8
:101C500080304502031D2E2E013052020318652DDF
:101C600020005508803AC50080304502031D3A2EF9
:101C700001305402031C3F2E2000EA18652D20007D
:101C80006A1E5C2EFF30DE07FF30DF3D4408C500D2
:101C90005E08C93E86000230870045088100FF309B
:101CA000DE07FF30DF3D3030C5005E08C93E8600EC
:101CB00002308700450881005E08C93EC50045081E
:101CC000B3005508B5005408B4004D089231CD2238
:101CD0003408BD003308BC0008002000B701003004
:101CE0009031EA208E31A0302100C0000230C100C6
:101CF000F330C2009930C3000530DA005A082000E2
:101D0000A300210068089E314C268E312100DB00A3
:101D1000DC01DB35DC0DDB35DC0DDB35DC0DF930D2
:101D2000DD009830DE005B085D07C4005C085E3DA6
:101D3000C5009E31AE268E31A0302000B7000230A3
:101D4000B8009C31B4248E31B701B70A003090310D
:101D5000EA208E310130210066052000A900AA0189
:101D60000730AB000030AC009D31D9258E31BC303E
:101D70002100DA009930DB002000290821005A07F1
:101D80002600A70020002A0821005B3D2600A800AD
:101D9000A0302100C0000230C100D830C20099300C
:101DA000C300260028082100C500260027082100BE
:101DB000C400BC30C6009930C7009E31AE268E31BB
:101DC000A0302000B7000230B8009C31B4248E311E
:101DD00038302100DA005A082000AC004030913140
:101DE0005F218E312100DB005B082600A00002305D
:101DF0002100DA005A082000B70000309031EA20B4
:101E00008E31260020080F392100DA00DB015A0844
:101E10002000A90021005B082000AA000730AB00C9
:101E20000030AC009D31D9258E3100302100DC001E
:101E30009830DD002000290821005C072600A7005B
:101E400020002A0821005D3D2600A800A0302100C6
:101E5000C0000230C1009930C2009930C300200098
:101E60006C082100DA00DB015A08C4005B08C500D9
:101E7000210067082100C600C701C61BC703260052
:101E800028082100C900260027082100C8009E312B
:101E9000AE268E31A0302000B7000230B8009C3151
:101EA000B4248E3110302100DA005A082000AC0032
:101EB0006A3091315F218E312100DB005B08260002
:101EC000A10013302100DA005A082000AC006A306B
:101ED00091315F218E312100DB005B082600A300D9
:101EE00024302100DA005A082000AC006A30913119
:101EF0005F218E312100DB005B082600A400253025
:101F00002100DA005A082000AC006A3091315F21CC
:101F10008E312100DB005B082600A5001230210075
:101F2000DA005A082000AC006A3091315F218E310E
:101F30002100DB005B082600A20011302100DA003E
:101F40005A082000AC006A3091315F218E312100A7
:101F5000DB005B082600A60003302100DA005A08E7
:101F60002000B70000309031EA208E31A0302100EF
:101F7000C0000230C1004430C2009930C3002600C6
:101F800021082100DA00DB015A08C4005B08C50003
:101F9000260022082100DC00DD015C08C6005D0887
:101FA000C700260023082100DE00DF015E08C8000C
:101FB0005F08C900260024082100E000E101600854
:101FC000CA006108CB00260025082100E200E301D9
:101FD0006208CC006308CD00260026082100E4003A
:101FE000E5016408CE006508CF009E31AE268E3133
:101FF000A0302000B7000230B8009C31B4240800A3
:102000002400940108309500960127309200951223
:1020100008009A31B522903123006C1C1B289A319C
:10202000FE229031003A03191B280F302000A00037
:1020300020082300EA0023006A082000A000A10174
:10204000A035A10D6530200784009930213D850021
:10205000013F8A00003F0A0090312000A2002208C0
:102060002300EA00080023006C100230FA007A080E
:10207000EB0040289A31D72208009A31DB22080071
:102080005D08FA007A08F9000430CF3E860001307E
:102090008700413F8A00403F0A009031FB00FC016D
:1020A0007C08003A031955283D287B08023A031999
:1020B0003A28013A03193A283D2808002300EC1574
:1020C0006B289A31D72208009A31B22203300800D7
:1020D0009A31DB2208005B08FA007A08F900500800
:1020E0008A004F080A009031FB00FC017C08003A8E
:1020F00003197B2868287B08013A03196828033AEA
:1021000003196128013A03196128073A0319642861
:1021100068280800FF34FF34FF34373400346C344F
:10212000553411341F340434A53403344434033497
:1021300004340134723409340134003480343134CD
:1021400005342734DB34263460342B34FE342E340B
:1021500008342034013431340534493408346034CF
:102160005534603444344734D7344634D734373464
:102170000534BD003908BF003808BE002200A601A2
:10218000A70121003E0884003F08850012000319C2
:10219000E128BE30BB003B082000E20021003A08E5
:1021A000BC003C082000E30021003D0884315E248F
:1021B000903162082200A607200063082200A73D94
:1021C000C128220027082100B9002200260821008A
:1021D000B8000800BB00FA283B08F6283B08403E40
:1021E000F6283B08143EF6283B08543EB800380851
:1021F000BA0010293708B800B9013908003A0319A4
:10220000022910293808003A0319EC28013A031969
:10221000EE28033A0319F128013A0319F42810298A
:102220008030B8003808BA073A0894311124903148
:102230000330890B1929000008009A31AF2291312F
:10224000FA00230066088600670887007A08810084
:102250000130E6070030E73D0130E8020030E93B9D
:1022600068086904031938299A31CB22053008001F
:10227000EC1540299A31E72208009A31E322080040
:102280005B08FA007A08F90050088A004F080A0033
:102290009131FB00FC017C08003A031950293D29CB
:1022A0007B08013A03193D29033A03193A29013AF7
:1022B00003193A29073A03193D293D290800AE00C0
:1022C0002A30AD002D08B2000230B0000030B1005D
:1022D0002E089131A6219131003A03196829213045
:1022E000A8001C30A9003230AD002D08AA009B3197
:1022F0006B2391312C30A3000030A4000130A500E5
:102300000030A6009C319F24913100302000A800AD
:10231000A900AA019B315F239131883100209131BE
:102320009D31F4259131AD002D08AF002F03031925
:1023300090292F080319A429FF30B007FF30B13DC1
:1023400030083104031D682932080800A600A701DF
:10235000A70A23006C19EB2920002608A5002508F0
:102360002300E500EC106C156C100E302000A50069
:1023700025082300EA00F430E3000130E400EC1506
:10238000A230CF001A30D000DB01A230D1001A30C9
:10239000D200DC01A230D3001A30D400DD01A2301B
:1023A000D5001A30D600DE01A430D7001A30D8008C
:1023B000DF01B8302000A3001A30A4009B31342381
:1023C00091319A31BB2291319B313C23913187313C
:1023D000FD272000A7012000270808005F345F3494
:1023E0005F340034003400340034003400342834C6
:1023F0006E3475346C346C342934003450345234B7
:1024000060345E345C345F345F345F3400340434F1
:102410005534023466340234623426344734263468
:102420004634263445342634443426344334263462
:10243000423426344134263440340134F2340934F1
:10244000803431341A344934003448344034473409
:10245000FF344634FF344734EB344634EB343734FE
:10246000073437340634373403343734013400301A
:1024700020008C1A0130F4007408F000F101F01B08
:10248000F10322003E08700671040319722A7408D1
:10249000031D722A7408F0007008BE0020000C1A98
:1024A000552AFF30F200FF30582A0130F200003088
:1024B000F3007208F0007008F400053022003D02BD
:1024C0000318642A0310F40D0C303D0203186A2A25
:1024D0000310F40D14303D020318702A0310F40D9C
:1024E000BD017F2A7408F0007008BE00F4017F303F
:1024F0003D0203187F2A0130F0007008BD07740800
:1025000008002508031D2508031D8A2A23089A317F
:10251000A12208002508043E860087011600010458
:102520000319AE2A2508043E86008701403FA60015
:10253000413FA7002508023E86008701403FA800D2
:10254000413FA9002908803AAA002708803A2A02B8
:10255000031DAC2A260828020318080020002508BD
:10256000023E86008701250884008501403F000760
:10257000A6000131413F003DA7002608860027083C
:102580008700230881002508023E8600870101306C
:10259000810741310318810A0800BB006A1CD82A50
:1025A0003B08B6003608AB0033089F3163279231F1
:1025B000B51BDF2A3508BA003408B900E12AB90191
:1025C000BA01B701B8013808803AB6003A08803A33
:1025D0003602031DED2A390837020318012B20307B
:1025E0002000A3000030A4003B08B6003608A50078
:1025F00092318122923101302000B7070030B83D7E
:10260000E32A20006A180C2B3B08B6003608AB0002
:1026100033089F31632792313308A3000230A400AE
:102620009C31DF2439082307B3003A08243DB40065
:102630000800A901A41F232BA309A409A30A0319B5
:10264000A40AA901A90AA61F2E2BA509A609A50A55
:102650000319A60A0130A7002708A906AA01AB01A1
:102660002308240403195D2BA801A80AA41B422BEC
:102670000130A335A40D890B392B0130A7002708A1
:10268000A807362B0130AA35AB0D890B432B240844
:102690002602031D4D2B23082502031C542B23085F
:1026A000A5022408A63B2A140130A436A30C890BEA
:1026B000552B0130A802031D422B29080319652B55
:1026C000AA09AB09AA0A0319AB0A2B08A4002A0815
:1026D000A30008009A31FE229331003A031D7A2BA1
:1026E0009E2B9A31CF2208009A31D32208009A31CA
:1026F000DB22080023005E08FA007A08F9000630A1
:10270000CF3E860001308700413F8A00403F0A00EB
:102710009331FB00FC017C08003A0319902B772BC6
:102720007B08013A0319772B033A0319712B013AFD
:102730000319742B073A0319772B772B23006C109E
:102740006708FB006608FA00E60A0319E70A7A0838
:1027500086007B08870001089A31EF22933101300F
:102760002300E8020030E93B68086904031DBA2B26
:102770000630080003300800B2003208F03909388A
:10278000B0003008B50035080438B0003008B30098
:102790003208B0000330B035FF3E031DCB2B30357F
:1027A000F0390938B1003108B60036080438B000F5
:1027B0003008B4003330B0003008AC000130AD0058
:1027C0000030AE0025309F3119279331000035309D
:1027D0002000B0003008AC000130AD000030AE0089
:1027E00025309F3119279331000034302000B0008C
:1027F0003008AC000130AD000030AE0025309F3114
:1028000019279331000036302000B0003008AC00AA
:102810000130AD000030AE0025309F311927000097
:1028200008002000B2003208F0390838B000300843
:10283000B50035080438B0003008B3003208B000E5
:102840000330B035FF3E031D212C3035F0390838F8
:10285000B1003108B60036080438B0003008B400C2
:102860003330B0003008AC000130AD000030AE00B5
:1028700025309F3119279431000035302000B000F9
:102880003008AC000130AD000030AE0025309F3183
:1028900019279431000034302000B0003008AC001B
:1028A0000130AD000030AE0025309F311927943142
:1028B000000036302000B0003008AC000130AD0020
:1028C0000030AE0025309F3119270000080082300B
:1028D0002000B700DD30890B6B2CB70B6B2C00325E
:1028E00030309F31D827943107302000B7007D3039
:1028F000890B782CB70B782C30309F31D827943146
:102900004230890B812C003230309F31D8279431EE
:102910002130890B892C000020309F31D827943139
:102920002130890B912C00002830943111249431EE
:102930002130890B992C00000C30943111249431F2
:102940002130890BA12C00000130943111249431E5
:1029500007302000B7007D30890BAC2CB70BAC2CB6
:10296000063094311124943107302000B7007D30B7
:10297000890BB82CB70BB82C0800B330B000300866
:10298000AC000230AD000030AE006A309F313E270F
:1029900094310530A3000030A4009B31CF23943143
:1029A000ED30B0003008AC000230AD000030AE00B9
:1029B0006A309F313E279431B130B0003008AC000E
:1029C0000230AD000030AE006A309F313E279431B6
:1029D0004A30B0003008AC000230AD000030AE002C
:1029E0006A309F313E279431AF30B0003008AC00E0
:1029F0000230AD000030AE006A309F313E27943186
:102A0000A730B0003008AC000230AD000030AE009E
:102A10006A309F313E2794314630B0003008AC0018
:102A20000230AD000030AE006A309F313E27943155
:102A30004430B0003008AC000230AD000030AE00D1
:102A40006A309F313E2722008D170800BC00BA1F54
:102A5000632D0530BB003B082200C20020003C086B
:102A6000BB003B082200C30042302000BB003B08F3
:102A7000AC000230AD000030AE006A309F313E271E
:102A800095310630BB003B082200C20020003A0806
:102A9000B600B701B61BB7039D310E259531200056
:102AA00036083C02BB003B082200C3004230200035
:102AB000BB003B08AC000230AD000030AE006A3015
:102AC0009F313E2708000530BB003B082200C200B2
:102AD00020003A083C02BB003B082200C300423001
:102AE0002000BB003B08AC000230AD000030AE005F
:102AF0006A309F313E2795310630BB003B082200EB
:102B0000C20020003C08BB003B082200C30042304A
:102B10002000BB003B08AC000230AD000030AE002E
:102B20006A309F313E2708003008B3002F08B200FA
:102B300032088400330885000008B1003108240001
:102B4000B50001302000B2070030B33D32088400E8
:102B50003308850012002E3A031DB92D7F30B100D5
:102B600031082300A00001302000B2070030B33D3F
:102B7000BE2DFF30B10031082300A0002000320834
:102B80008400330885000008B1003630860002302A
:102B90008700310881000130B2070030B33D3208B0
:102BA00084003308850012002E3A031DE22DA13067
:102BB0008600013087007F3081000130B20700308D
:102BC000B33DE82DA130860001308700FF30810041
:102BD00032088400330885000008B10037308600D1
:102BE00002308700310881000130B2070030B33D68
:102BF000320884003308850012002E3A031D072E88
:102C0000A2308600013087007F3081000800A230AA
:102C1000860001308700FF3081000800103020005E
:102C2000B3003308AC006A3091315F219631B400B3
:102C300034082200B60013302000B3003308AC0083
:102C40006A3091315F219631B40034082200B4001B
:102C500024302000B3003308AC006A3091315F218A
:102C60009631B40034082200B30025302000B300B0
:102C70003308AC006A3091315F219631B4003408DA
:102C80002200B20012302000B3003308AC006A30DA
:102C900091315F219631B40034082200B500113023
:102CA0002000B3003308AC006A3091315F219631C7
:102CB000B40034082200B10031082000B300B40190
:102CC000220032082000B500B6012200330820009F
:102CD000B700B801220034082000B900BA01220070
:102CE000360835072000BB00BC01BC0D39083B0786
:102CF000BD003A083C3DBE0037083D07BF0038081C
:102D00003E3DC00035083F07C1003608403DC200C7
:102D100033084107C3003408423DC400220037088D
:102D2000200043064404031D972E003008002200B3
:102D30003608350734073307320731072000B30060
:102D400033082200B70001300800BC01BD01B50105
:102D5000B601BB01BB0A2F088400300885001200B1
:102D6000203A0319C52E2F0884003008850000087A
:102D7000F73EB100FF3003180030B20000303202DD
:102D80000530031931020318BB013B08B100B20141
:102D90003108B7003208B800370838040319DA2EB2
:102DA0000130AF070030B03DA92E0130B500003032
:102DB000B6000C2F2F088400300885000008B100F1
:102DC000B2013208003A0319E62E102F31082B3ACF
:102DD00003190C2F063A0319D52E102F2F08840043
:102DE000300885000008B1003D08AA003C08A90091
:102DF0000A30AB000030AC009D31D92596312A084D
:102E0000B30031082902B200031CB3033208303E7C
:102E1000BC000030333DBD000130AF070030B03D95
:102E20002F088400300885000008D03EB100FF3034
:102E300003180030B200003032020A3003193102A8
:102E40000318242F0130252F0030B300B4013308BC
:102E5000B9003408BA0039083A04031DEE2E3508CB
:102E60003604031D3F2F3C09B1003D09B200B10AF1
:102E70000319B20A3108AF003208B00008003D085B
:102E8000B0003C08AF000800BF302000B0003008A0
:102E9000AC000230AD000030AE0040309F313E2724
:102EA0009731B930B0003008AC000230AD000030CE
:102EB000AE0040309F313E279731B730B000300828
:102EC000AC000230AD000030AE0040309F313E27F4
:102ED0009731BD30B0003008AC000230AD0000309A
:102EE000AE0040309F313E279731BB30B0003008F4
:102EF000AC000230AD000030AE0040309F313E27C4
:102F00009731B530B0003008AC000230AD00003071
:102F1000AE0040309F313E27973121006603031DEC
:102F2000932F6630942F64302000B0003008AC003E
:102F30000230AD000030AE0040309F313E27973167
:102F4000C130B0003008AC000230AD000030AE003F
:102F500040309F313E279731C330B0003008AC007D
:102F60000230AD000030AE0040309F313E27973137
:102F7000CB30B0003008AC000230AD000030AE0005
:102F800040309F313E279731C930B0003008AC0047
:102F90000230AD000030AE0040309F313E27973107
:102FA0006030B0003008AC000230AD000030AE0040
:102FB00040309F313E2797315230B0003008AC008E
:102FC0000230AD000030AE0040309F313E279731D7
:102FD0004C30B0003008AC000230AD000030AE0024
:102FE00040309F313E279731CD30B0003008AC00E3
:102FF0000230AD000030AE0040309F313E27080067
:1030000055344E344C344B340034003400342034C6
:10301000203438346B3400340034003420343134FC
:1030200031346B34003400340034203431343234E1
:103030006B340034003400342034313436346B3493
:103040000034003400342034323432346B340034F1
:10305000003400342034323434346B3400340034DF
:1030600000342034333432346B34003400340034D0
:10307000343434342E3431346B340034003420345E
:10308000343438346B340034003400342034363473
:1030900034346B34003400340034383438342E3453
:1030A00032346B34003400342034393436346B34E9
:1030B0000034003400343134323438346B3400346A
:1030C000003400343134373436346B340034003457
:1030D00000343134393432346B3400340034003449
:1030E000FF34F934FF34FF34FF349C34FF34FF34B1
:1030F000FF34FF34FF34FF34FF34BF347F34CF3428
:10310000C034F934A434B034993492348234F8346D
:1031100080349034F634B634FF34B734FF34FF349F
:10312000A03488348334C634A13486348E34C23417
:103130008934CF34E1348734C734C834AB34C03435
:103140008C34983488349234CE34C134C1348134D0
:1031500089349134E434C634FF34F034BC34F73469
:10316000DE34A0348334A734A13486348E349034D2
:103170008B34FB34F1348734C734C834AB34A334D4
:103180008C349834AF3492348734E334E33481346C
:1031900089349134E434FF34FF34FF34FE34343462
:1031A00034342E3431340034003400342034343498
:1031B00038340034003400340034203438343834A7
:1031C0002E34323400340034203439343634003470
:1031D00000340034003431343734363400340034B1
:1031E00000340034313439343234003400340034A3
:1031F000003443344F3441345834493441344C342E
:1032000000344F34503454344934433441344C3412
:1032100000344134443443342034203420342034C6
:103220000034483444344D3449342034203420347C
:1032300000344934323453342034203420342034A0
:10324000003443344F34413400340034003400340B
:103250004F3450345434003400340034003441349A
:10326000643443340034003400340034483444348B
:103270004D340034003400340034313432345334AB
:1032800000340034003400345734413452343A347A
:103290002534303432345834203425343034323408
:1032A00058342034253430343234583420342534E2
:1032B00030343234583420342534303432345834B5
:1032C00025343034323458340034F4341A3424344D
:1032D0001B3416341B346A3413341D341134043453
:1032E0001B345E341034CF341A34D3341A34D73408
:1032F0001A34DB341A34DF341A34E3341A34E73442
:103300001A34F9341A34333410344634693472348C
:103310006D3477346134723465343A342034323465
:103320003034323430344A3455344E343034363418
:10333000003456344F344C343A3425343334643406
:103340002034423441344C343A34253432346434F9
:1033500020342534733400340034FF340034053411
:1033600001340034053400340034053405340034AD
:10337000053400340034003449344E34503455346C
:103380005434203400344F3455345434503455348C
:103390005434003431346E3470340034003400342A
:1033A00000344F3475347434003400340034003445
:1033B0004134553458343A34253473342034483445
:1033C000503446343A342534733400341B342434B6
:1033D00042342134213421342134213421341B342A
:1033E00028344234003453344F3455345234433447
:1033F00045343A342534733400342534303433348E
:10340000643400342E343034203400342E343534D7
:103410002034003453344F34433400344F34463472
:1034200046340034423441344C3400343134323484
:103430005334003425343234643400342534333486
:103440006434003446344134643400342E3400345F
:103542000800013008000530080024009614080025
:1035520024001615080024009615080024001108FE
:1035620008002000911508002000911108009031F8
:10357200092008002000911108002400951208007B
:103582002100911108002400161408002400961648
:103592001616080024009612161608009A31A62262
:1035A200013008009A31A622023008009A31A62280
:1035B200013008009A31A922003008009A31CB224A
:1035C200053008009A31C7220A3008009A31C72212
:1035D200093008001630210097000800F00070083A
:1035E2002400910008002300EC10EB010E300800CB
:1035F2002300EC10EB010E3008002400160E890C9B
:10360200890C0139080023006C109A31AC22043075
:103612000800640080010131890B0B2B0034FE008D
:1036220012001E00FE0B112B003423006C146535B2
:103632009A31EF2203300800783021009900980176
:1036420022009601080023006C140314650D9A31C0
:10365200EF220530080024082400EA002000230895
:103662002400E900080024082200AF0020002308FB
:103672002200AE0008002400951A080094010830C8
:10368200950096012730920095160800EC1D08005F
:103692007108E7007008E6007308E9007208E800A4
:1036A200EC1108007608F1007508F0007708F800C0
:1036B2007808F20000309F31882708002908A4000A
:1036C2002808A3002A08AB002B08A50002309F316E
:1036D200B02708002908A4002808A3002A08AB0084
:1036E2002B08A50000309F31B02708002000A3005E
:1036F20023082300910015139513151400000000F0
:103702002300130808000130943111249B31073043
:103712002000B7007D30890B8C2BB70B8C2B080057
:103722000230943111249B3107302000B7007D30E4
:10373200890B992BB70B992B08000C30943111246B
:103742009B3103302000B7009730890BA62BB70BB3
:10375200A62B003208002000181DB62B1810710885
:1037620097007008960018140800710897007008F6
:1037720096000800111024006C08F1006B08F0009C
:103782009B31AC239B31240069086A0403190800A9
:103792006A088A0069080A009B310800013020008B
:1037A200A3020030A43B230A0319240A03190800C8
:1037B20006302000A5003030890BDD2BA50BDD2B58
:1037C2000000CF2B3C08A4003B08A3009C31DF245F
:1037D2009B3123083B07AF0024083C3DB0003E0864
:1037E200B2003D08B1009E31D12608007908F000F0
:1037F200FF39031D0030F1000230F2000030F30007
:103802009B3147239B310030F500F600F7019B31D5
:103812005323043008007908F000FF39031D0030FB
:10382200F1000130F2000030F3009B3147239C315C
:103832000030F500F600F7019B31532304300800F5
:103842007908F000FF39031D0030F1000130F20069
:103852000030F3009B3147239C310030F500F60025
:10386200F7019B315323023008007908F000FF3939
:10387200031D0030F1000230F2000030F3009B31F2
:1038820047239C310030F500F600F7019B315323AA
:10389200023008007908F000FF39031D0030F10002
:1038A2000230F2000030F3009B3147239C3100309C
:1038B200F500F600F7019B31532304300800790824
:1038C200F000FF39031D0030F1000130F20000303A
:1038D200F3009B3147239C310030F500F600F701DD
:1038E2009B315323023008007908F000FF39031D91
:1038F2000030F1000230F2000030F3009B31472328
:103902009C310030F500F600F7019B315323023061
:1039120008007908F000FF39031D0030F100013082
:10392200F2000030F3009B3147239C310030F50058
:10393200F600F7019B315323043008002300EC1DED
:103942000800200024082300E700200023082300A9
:10395200E600200026082300E900200025082300B5
:10396200E800EC11080037088600380887000108D3
:1039720003190800370886003808870001089331C8
:10398200BC239C3101302000B7070030B83DB42C75
:10399200F20020307202031CD92C2030F20272088D
:1039A200703E840098300318013E85000008DA2C2E
:1039B200FF30F0007008F100710808002408A70029
:1039C2002308A60023088400240885001200031996
:1039D200EF2C0130A3070030A43DE32C260823027C
:1039E200A3002708243BA400080020002308D03E9F
:1039F200A500FF30243DA600003026020A3003193C
:103A020025020318062D0130072D0030A700A8015A
:103A12002708A3002808A40008003708803AB80045
:103A220080303802031D172D0130360203180800BA
:103A320020003609B8003709B900B80A0319B90AD3
:103A42003808B6003908B700080020002308BF3E36
:103A5200A500FF30243DA600003026021A300319CB
:103A620025020318362D0130372D0030A700A8019A
:103A72002708A3002808A4000800200023089F3E6E
:103A8200A500FF30243DA600003026021A3003199B
:103A9200250203184E2D01304F2D0030A700A8013A
:103AA2002708A3002808A40008007908023E86001F
:103AB20087010108F0000030F100790886008701D3
:103AC200403FF200413FF3009B3147239D310030DC
:103AD200F500F600F7019B31532302300800790804
:103AE200023E860087010108F0000030F1007908EB
:103AF20086008701403FF200413FF3009B3147239C
:103B02009D310030F500F600F7019B31532302305E
:103B1200080022008C018D018E01383021008C00BA
:103B220070308D008E0123008E018D018C0170306A
:103B320024008D0038308C008E0121009517220060
:103B42009D019E010800A400A501A50A2300EC180E
:103B5200BB2DEC142000A50124080319B42D230069
:103B6200EA01EA0AB92D0230A30023082300EA0081
:103B72009A31C42220002508080020009901E03073
:103B82009700DC309600111017082400EC0020008A
:103B920016082400EB0021001114B2302000A3000B
:103BA2000830A4009B312C2301302000980008002B
:103BB200AD01AE01291CE12D2B08AD072C08AE3D4D
:103BC2000130AB35AC0D890BE22D0130AA36A90CC0
:103BD200890BE72D29082A04031DDB2D2E08AA00D4
:103BE2002D08A9000800A401A40A2300EC180E2E37
:103BF2006C11FF302000A30023082300E5009A3156
:103C0200BB229D319A31C1229D319A31BE222300BD
:103C12006B082000A3002308A40020002408080049
:103C22002000A701A70A2030230624040319262E08
:103C32002308F73EA500FF30243DA60000302602EF
:103C42000530031925020318A7012708A500A601BC
:103C52002508A3002608A400080020302000230421
:103C6200A50000302404A60025089F3EA700FF30CF
:103C7200263DA800003028021A3003192702031833
:103C8200442E0130452E0030A900AA012908A300C4
:103C92002A08A40008002000A6000830A400240876
:103CA200A700A8012608A4000730A436890B562EC7
:103CB20028352404A5002508A8000310A60D230812
:103CC2002802031C662E2308A8020130A702031D46
:103CD200532E28080800AA002A0823009100200079
:103CE20029082300930095131513151500308B1B1B
:103CF20001302000AB008B13553023009600AA3010
:103D0200960095149518832E151120002B0C031C78
:103D12008B1303188B17080029089F3EAB00FF3056
:103D22002A3DAC0000302C021A3003192B02031872
:103D32009C2E01309D2E0030AD00AE012D08AF004B
:103D42002E08B0002F083004031908005F3029053F
:103D5200A90000302A05AA000800C430D00050088B
:103D6200D3004108D5004008D400D601D701D801BC
:103D7200D9014308B9004208B800D330D000500836
:103D8200BA00D4309031B9200230D43E8600870187
:103D9200403F40078400413F413D850080010800CB
:103DA2003208B8003108B7003008BA002F08B9004D
:103DB2003A08B4003908B300B90A0319BA0A330839
:103DC2008600340887003808B6003708B500B70AFD
:103DD2000319B80A35088400360885000008C03F78
:103DE200890803190800D92E213408342134883473
:103DF200043405340334843460342234603411349E
:103E020034340134343400346C3433346C3422347A
:103E12006C3411346C3400346B3455346B343334B9
:103E22006B3422346B3411346F3400346F34083401
:103E3200AF002F089131A6219F31003A03191A2FA2
:103E42002C08A3000030A4002E08A6002D08A5000F
:103E52009C319F249F3100302000A800A900AA01B4
:103E62009B315F239F31883100209F319D31F425A2
:103E72009F31013A031D0800372FAF002F089131FF
:103E8200A6219F31003A03193F2F2C08A3000130CD
:103E9200A4002E08A6002D08A5009C319F249F3166
:103EA20000302000A800A900AA019B315F239F31A6
:103EB200883100209F319D31F4259F31013A031D45
:103EC20008005C2FB200B001B10130083207AC002B
:103ED2002C088600023087000108AD002D08AF00D3
:103EE2002F08031908002F08AC00AD012C08A3000D
:103EF2002D08A4002B08AE002E08A50092318122C5
:103F02009F3101302000B0070030B13D662FF40030
:103F1200700871040319A02F7435CF3E860001305A
:103F220087007008C03F7108C13F7208F30074082F
:103F3200DB3E86000130870073088100080074357B
:103F4200CF3E860001308700A230C03F1A30C13F09
:103F52007408DB3E86000130870081010800A7005B
:103F6200230824040319C82F2735CF3E86000130C9
:103F720087002308C03F2408C13F2508A600270860
:103F8200DB3E8600013087002608810008002735C5
:103F9200CF3E860001308700A230C03F1A30C13FB9
:103FA2002708DB3E860001308700810108002000DF
:103FB200B1003108F0390838B0003008B3003308D6
:103FC2000438B0003008B2003230B0003008AC0023
:103FD2000130AD000030AE0025309F3119279F31EE
:103FE200000033302000B0003008AC000130AD00DA
:0E3FF2000030AE0025309F3119270000080076
:020000040001F9
:04000E00A43FFF1EEE
:00000001FF
